{
	"data": {
		"bytecode": {
			"linkReferences": {},
			"object": "60806040523480156200001157600080fd5b5060408051808201825260098152682932b3b4b9ba3930b960b91b6020808301918252835180850190945260018452602960f91b9084015281519192916200005c9160009162000120565b5080516200007290600190602084019062000120565b5050600a805460ff1916905550620000896200008f565b62000241565b6200009962000113565b15620000c25760405162461bcd60e51b8152600401620000b990620001da565b60405180910390fd5b600a805460ff191660011790557f62e78cea01bee320cd4e420270b5ea74000d11b0c9f74754ebdbfc544b05a258620000fa6200011c565b604051620001099190620001c6565b60405180910390a1565b600a5460ff1690565b3390565b8280546200012e9062000204565b90600052602060002090601f0160209004810192826200015257600085556200019d565b82601f106200016d57805160ff19168380011785556200019d565b828001600101855582156200019d579182015b828111156200019d57825182559160200191906001019062000180565b50620001ab929150620001af565b5090565b5b80821115620001ab5760008155600101620001b0565b6001600160a01b0391909116815260200190565b60208082526010908201526f14185d5cd8589b194e881c185d5cd95960821b604082015260600190565b6002810460018216806200021957607f821691505b602082108114156200023b57634e487b7160e01b600052602260045260246000fd5b50919050565b61345680620002516000396000f3fe608060405234801561001057600080fd5b506004361061035d5760003560e01c80636352211e116101d3578063a22cb46511610104578063e985e9c5116100a2578063f35fd0a81161007c578063f35fd0a814610735578063f417358f14610748578063fe4d34641461075b578063ff450f5d1461076e5761035d565b8063e985e9c5146106fc578063eaef9f321461070f578063f1e09b2e146107225761035d565b8063c87b56dd116100de578063c87b56dd146106b0578063ca54b172146106c3578063e318de73146106d6578063e761ba30146106e95761035d565b8063a22cb46514610677578063b88d4fde1461068a578063bf0314141461069d5761035d565b80637ac4ed6411610171578063949955101161014b578063949955101461063657806395d89b41146106495780639d74b37d146106515780639e1b3240146106645761035d565b80637ac4ed64146105fd5780638313132214610610578063905ed505146106235761035d565b806366f1eff6116101ad57806366f1eff6146105b157806370a08231146105c45780637610a54c146105d7578063783cbd7b146105ea5761035d565b80636352211e1461057857806363ba47b51461058b5780636556f7671461059e5761035d565b80631bac15e0116102ad57806342842e0e1161024b5780634f6ccce7116102255780634f6ccce7146105375780635283b0c51461054a5780635c975abb1461055d5780635eafe415146105655761035d565b806342842e0e146104fe5780634b324990146105115780634e3a37be146105245761035d565b80632f745c59116102875780632f745c59146104b05780633334998c146104c35780633342bfd8146104d85780633736a53f146104eb5761035d565b80631bac15e01461048257806323b872dd1461048a5780632447a7aa1461049d5761035d565b80630c8fc1471161031a57806310affe13116102f457806310affe1314610441578063158c62921461045457806318160ddd146104675780631b79e5cc1461046f5761035d565b80630c8fc147146103fb5780630e7efc651461040e5780630f65d87c1461042e5761035d565b806301ffc9a714610362578063020491f21461038b57806305fb86df1461039e57806306fdde03146103b1578063081812fc146103c6578063095ea7b3146103e6575b600080fd5b610375610370366004612c45565b610781565b6040516103829190612d7f565b60405180910390f35b6103756103993660046129af565b6107ae565b6103756103ac366004612943565b610875565b6103b961092b565b6040516103829190612da8565b6103d96103d4366004612c7d565b6109bd565b6040516103829190612d2e565b6103f96103f4366004612943565b610a00565b005b610375610409366004612943565b610a98565b61042161041c366004612943565b610b35565b6040516103829190612d8a565b61042161043c366004612a8b565b610b63565b61042161044f366004612943565b610bcd565b610375610462366004612943565b610bf9565b610421610c91565b61037561047d366004612a20565b610c97565b6103b9610d41565b6103f9610498366004612865565b610d6d565b6103756104ab366004612b85565b610da5565b6104216104be366004612943565b610de0565b6104cb610e32565b6040516103829190612d93565b6104216104e6366004612a8b565b610e56565b6103756104f936600461296e565b610e93565b6103f961050c366004612865565b610f3c565b61037561051f366004612a8b565b610f57565b61037561053236600461282d565b610fb4565b610421610545366004612c7d565b6110c0565b610375610558366004612b85565b61111b565b61037561114e565b6103d9610573366004612a8b565b611157565b6103d9610586366004612c7d565b6111ca565b610375610599366004612a77565b6111ff565b6103b96105ac366004612943565b611294565b6103756105bf366004612b85565b61134f565b6104216105d23660046127f5565b611382565b6103756105e5366004612a77565b6113c6565b6103756105f8366004612bdc565b61145b565b6103d961060b366004612943565b61148e565b61037561061e366004612b30565b6114ba565b6103756106313660046129ec565b6114ed565b610421610644366004612943565b611582565b6103b96115ae565b61037561065f366004612943565b6115bd565b610421610672366004612a8b565b6115e8565b6103f961068536600461290f565b611625565b6103f96106983660046128a5565b6116f3565b6103b96106ab366004612a8b565b611732565b6103b96106be366004612c7d565b61179e565b6103756106d1366004612943565b611821565b6103b96106e4366004612943565b611967565b6103756106f7366004612bdc565b61199c565b61037561070a36600461282d565b6119cf565b61037561071d366004612943565b6119fd565b610375610730366004612a20565b611aa0565b610375610743366004612943565b611b4a565b6103b9610756366004612a8b565b611bf1565b610375610769366004612ad9565b611c2e565b61037561077c366004612943565b611c61565b60006001600160e01b03198216638f33886960e01b14806107a657506107a682611da7565b90505b919050565b6000836107c26107bc611dcc565b82610fb4565b6107e75760405162461bcd60e51b81526004016107de90613112565b60405180910390fd5b6001600160a01b0385166000818152600c602090815260408083208884529091529020805460ff19168515151790558490610820611dcc565b6001600160a01b03167ff5826cf7251f05c8e6983e624e6fcbdfed8ed4519f694f5ac2e440a720057975866040516108589190612d7f565b60405180910390a461086a8585611dd0565b506001949350505050565b6000826108836107bc611dcc565b61089f5760405162461bcd60e51b81526004016107de90613112565b6001600160a01b0384166000818152600c602090815260408083208784526003810183528184205460069091019092528220919091559084906108e0611dcc565b6001600160a01b03167fe9fbb47cbd24cf513fe96df212531aa750436238a3cf2051e7cfdb61064d146a846040516109189190612d8a565b60405180910390a4506001949350505050565b60606000805461093a90613346565b80601f016020809104026020016040519081016040528092919081815260200182805461096690613346565b80156109b35780601f10610988576101008083540402835291602001916109b3565b820191906000526020600020905b81548152906001019060200180831161099657829003601f168201915b5050505050905090565b60006109c882611e17565b6109e45760405162461bcd60e51b81526004016107de906130c6565b506000908152600460205260409020546001600160a01b031690565b6000610a0b826111ca565b9050806001600160a01b0316836001600160a01b03161415610a3f5760405162461bcd60e51b81526004016107de906131f9565b806001600160a01b0316610a51611dcc565b6001600160a01b03161480610a6d5750610a6d8161070a611dcc565b610a895760405162461bcd60e51b81526004016107de90612fa1565b610a938383611e34565b505050565b600082610aa66107bc611dcc565b610ac25760405162461bcd60e51b81526004016107de90613112565b6001600160a01b0384166000818152600c602090815260408083208784529091529020805460ff19811690915560ff16908490610afd611dcc565b6001600160a01b03167feefa0f8263336d06fa6a821afa8b541fb731e184798e6144eecb6df002f65378846040516109189190612d7f565b6001600160a01b0382166000908152600c602090815260408083208484526006019091529020545b92915050565b6000600c6000846001600160a01b03166001600160a01b03168152602001908152602001600020600601600083604051602001610ba09190612ce3565b60405160208183030381529060405280519060200120815260200190815260200160002054905092915050565b6001600160a01b03919091166000908152600c6020908152604080832093835260039093019052205490565b600082610c076107bc611dcc565b610c235760405162461bcd60e51b81526004016107de90613112565b6001600160a01b0384166000818152600c6020908152604080832087845260060190915281208054919055908490610c59611dcc565b6001600160a01b03167f6a896444e4f75fa9d129a5acbc1f1e4b20aaff3e0560ec0c7bfaca3cf6f10cfe846040516109189190612d8a565b60085490565b600083610ca56107bc611dcc565b610cc15760405162461bcd60e51b81526004016107de90613112565b6001600160a01b0385166000908152600c6020908152604080832087845260040182529091208451610cf5928601906126cb565b5083856001600160a01b0316610d09611dcc565b6001600160a01b03167f3adf90418d334230d047132bd1d514157d373abc937cccce7ecdf8d1b65399a6866040516108589190612da8565b6040805160048152602481019091526020810180516001600160e01b0316638da5cb5b60e01b17905281565b610d7e610d78611dcc565b82611ea2565b610d9a5760405162461bcd60e51b81526004016107de9061323a565b610a93838383611f1f565b6000610dd88484604051602001610dbc9190612ce3565b60405160208183030381529060405280519060200120846111ff565b949350505050565b6000610deb83611382565b8210610e095760405162461bcd60e51b81526004016107de90612e06565b506001600160a01b03919091166000908152600660209081526040808320938352929052205490565b7f8da5cb5b36e7f68c1d2e56001220cdbdd3ba2616072f718acfda4a06441a807d81565b6000600c6000846001600160a01b03166001600160a01b03168152602001908152602001600020600301600083604051602001610ba09190612ce3565b600083610ea16107bc611dcc565b610ebd5760405162461bcd60e51b81526004016107de90613112565b6001600160a01b038581166000818152600c60209081526040808320898452600101909152902080546001600160a01b031916928616929092179091558490610f04611dcc565b6001600160a01b03167f9ab66a7afd0acd8c5b217ebe7b3a96046ddd0ddf94495f5e8983f546195cefdd866040516108589190612d2e565b610a93838383604051806020016040528060008152506116f3565b6001600160a01b0382166000908152600c60209081526040808320905190918391610f8491869101612ce3565b60408051808303601f190181529181528151602092830120835290820192909252016000205460ff169392505050565b6000826001600160a01b0316826001600160a01b03161415610fd857506001610b5d565b610fe18261204c565b156110b75760408051600481526024810182526020810180516001600160e01b0316638da5cb5b60e01b179052905160009182916001600160a01b0386169161102991612ce3565b600060405180830381855afa9150503d8060008114611064576040519150601f19603f3d011682016040523d82523d6000602084013e611069565b606091505b509150915081156110b45760008180602001905181019061108a9190612811565b9050856001600160a01b0316816001600160a01b031614156110b25760019350505050610b5d565b505b50505b50600092915050565b60006110ca610c91565b82106110e85760405162461bcd60e51b81526004016107de9061328b565b6008828154811061110957634e487b7160e01b600052603260045260246000fd5b90600052602060002001549050919050565b6000610dd884846040516020016111329190612ce3565b60405160208183030381529060405280519060200120846114ed565b600a5460ff1690565b6000600c6000846001600160a01b03166001600160a01b031681526020019081526020016000206001016000836040516020016111949190612ce3565b60408051808303601f19018152918152815160209283012083529082019290925201600020546001600160a01b03169392505050565b6000818152600260205260408120546001600160a01b0316806107a65760405162461bcd60e51b81526004016107de90613048565b60008361120d6107bc611dcc565b6112295760405162461bcd60e51b81526004016107de90613112565b6001600160a01b0385166000818152600c602090815260408083208884526003019091529020849055849061125c611dcc565b6001600160a01b03167f6adedbed0553c840e64127e9b14cc738a8cf4a7ec57c587c7c4c72ba6a30ffc0866040516108589190612d8a565b6001600160a01b0382166000908152600c6020908152604080832084845260050190915290208054606091906112c990613346565b80601f01602080910402602001604051908101604052809291908181526020018280546112f590613346565b80156113425780601f1061131757610100808354040283529160200191611342565b820191906000526020600020905b81548152906001019060200180831161132557829003601f168201915b5050505050905092915050565b6000610dd884846040516020016113669190612ce3565b60405160208183030381529060405280519060200120846113c6565b60006001600160a01b0382166113aa5760405162461bcd60e51b81526004016107de90612ffe565b506001600160a01b031660009081526003602052604090205490565b6000836113d46107bc611dcc565b6113f05760405162461bcd60e51b81526004016107de90613112565b6001600160a01b0385166000818152600c6020908152604080832088845260020190915290208490558490611423611dcc565b6001600160a01b03167f515c5cb2d6a18401c0db4cbf521ae573aa279304d12c95651e656e45cdff5128866040516109189190612d8a565b6000610dd884846040516020016114729190612ce3565b6040516020818303038152906040528051906020012084610c97565b6001600160a01b039182166000908152600c602090815260408083209383526001909301905220541690565b6000610dd884846040516020016114d19190612ce3565b60405160208183030381529060405280519060200120846107ae565b6000836114fb6107bc611dcc565b6115175760405162461bcd60e51b81526004016107de90613112565b6001600160a01b0385166000818152600c602090815260408083208884526006019091529020849055849061154a611dcc565b6001600160a01b03167ff95b41278b70d73c1d109802ffde79f632fdac6fb868b4acfaa9dca3045e11e8866040516108589190612d8a565b6001600160a01b03919091166000908152600c6020908152604080832093835260029093019052205490565b60606001805461093a90613346565b6001600160a01b03919091166000908152600c60209081526040808320938352929052205460ff1690565b6000600c6000846001600160a01b03166001600160a01b03168152602001908152602001600020600201600083604051602001610ba09190612ce3565b61162d611dcc565b6001600160a01b0316826001600160a01b0316141561165e5760405162461bcd60e51b81526004016107de90612f1e565b806005600061166b611dcc565b6001600160a01b03908116825260208083019390935260409182016000908120918716808252919093529120805460ff1916921515929092179091556116af611dcc565b6001600160a01b03167f17307eab39ab6107e8899845ad3d59bd9653f200f220920489ca2b5937696c31836040516116e79190612d7f565b60405180910390a35050565b6117046116fe611dcc565b83611ea2565b6117205760405162461bcd60e51b81526004016107de9061323a565b61172c84848484612052565b50505050565b6060600c6000846001600160a01b03166001600160a01b0316815260200190815260200160002060050160008360405160200161176f9190612ce3565b60405160208183030381529060405280519060200120815260200190815260200160002080546112c990613346565b60606117a982611e17565b6117c55760405162461bcd60e51b81526004016107de906131aa565b60006117cf612085565b905060008151116117ef576040518060200160405280600081525061181a565b806117f984612094565b60405160200161180a929190612cff565b6040516020818303038152906040525b9392505050565b60008261182f6107bc611dcc565b61184b5760405162461bcd60e51b81526004016107de90613112565b6001600160a01b0384166000908152600c602090815260408083208684526004019091528120805461187c90613346565b80601f01602080910402602001604051908101604052809291908181526020018280546118a890613346565b80156118f55780601f106118ca576101008083540402835291602001916118f5565b820191906000526020600020905b8154815290600101906020018083116118d857829003601f168201915b505050506001600160a01b0387166000818152600c602090815260408083208a84526006019091528120559192508591905061192f611dcc565b6001600160a01b03167f11c772f0ef83410c24fe7254ab7ae10c0b0325db299d5d5720cc89ba7557a094846040516109189190612da8565b6001600160a01b0382166000908152600c6020908152604080832084845260040190915290208054606091906112c990613346565b6000610dd884846040516020016119b39190612ce3565b6040516020818303038152906040528051906020012084611aa0565b6001600160a01b03918216600090815260056020908152604080832093909416825291909152205460ff1690565b600082611a0b6107bc611dcc565b611a275760405162461bcd60e51b81526004016107de90613112565b6001600160a01b0384166000818152600c60209081526040808320878452600281018352818420546006909101909252822091909155908490611a68611dcc565b6001600160a01b03167f7836f712669f75559b636c022b1f33725270c9c4666a98106e720eebbce9d670846040516109189190612d8a565b600083611aae6107bc611dcc565b611aca5760405162461bcd60e51b81526004016107de90613112565b6001600160a01b0385166000908152600c6020908152604080832087845260050182529091208451611afe928601906126cb565b5083856001600160a01b0316611b12611dcc565b6001600160a01b03167f9d54e3141b21a6d7a1ce81e97ea38485cf5209c4d5c8506dff78986cd9937a22866040516108589190612da8565b600082611b586107bc611dcc565b611b745760405162461bcd60e51b81526004016107de90613112565b6001600160a01b038481166000818152600c60209081526040808320888452600181018352818420546006909101909252822091909155909116908490611bb9611dcc565b6001600160a01b03167fb0f90a705d9e5f778f1939e884f852acd834cfd27be5b656bc8d220440cc1371846040516109189190612d2e565b6060600c6000846001600160a01b03166001600160a01b0316815260200190815260200160002060040160008360405160200161176f9190612ce3565b6000610dd88484604051602001611c459190612ce3565b6040516020818303038152906040528051906020012084610e93565b600082611c6f6107bc611dcc565b611c8b5760405162461bcd60e51b81526004016107de90613112565b6001600160a01b0384166000908152600c6020908152604080832086845260050190915281208054611cbc90613346565b80601f0160208091040260200160405190810160405280929190818152602001828054611ce890613346565b8015611d355780601f10611d0a57610100808354040283529160200191611d35565b820191906000526020600020905b815481529060010190602001808311611d1857829003601f168201915b505050506001600160a01b0387166000818152600c602090815260408083208a845260060190915281205591925085919050611d6f611dcc565b6001600160a01b03167f9603b13721ba50674b5e47a223a396590472f70da883cc5ac3fc24ef0a90c9c3846040516109189190612da8565b60006001600160e01b0319821663780e9d6360e01b14806107a657506107a6826121af565b3390565b60008282604051602001611de5929190612cc1565b6040516020818303038152906040528051906020012060001c9050611e0981611e17565b610a9357610a9383826121ef565b6000908152600260205260409020546001600160a01b0316151590565b600081815260046020526040902080546001600160a01b0319166001600160a01b0384169081179091558190611e69826111ca565b6001600160a01b03167f8c5be1e5ebec7d5bd14f71427d1e84f3dd0314c0f7b2291e5b200ac8c7c3b92560405160405180910390a45050565b6000611ead82611e17565b611ec95760405162461bcd60e51b81526004016107de90612f55565b6000611ed4836111ca565b9050806001600160a01b0316846001600160a01b03161480611f0f5750836001600160a01b0316611f04846109bd565b6001600160a01b0316145b80610dd85750610dd881856119cf565b826001600160a01b0316611f32826111ca565b6001600160a01b031614611f585760405162461bcd60e51b81526004016107de90613161565b6001600160a01b038216611f7e5760405162461bcd60e51b81526004016107de90612eda565b611f898383836122ce565b611f94600082611e34565b6001600160a01b0383166000908152600360205260408120805460019290611fbd908490613303565b90915550506001600160a01b0382166000908152600360205260408120805460019290611feb9084906132d7565b909155505060008181526002602052604080822080546001600160a01b0319166001600160a01b0386811691821790925591518493918716917fddf252ad1be2c89b69c2b068fc378daa952ba7f163c4a11628f55a4df523b3ef91a4505050565b3b151590565b61205d848484611f1f565b612069848484846122d9565b61172c5760405162461bcd60e51b81526004016107de90612e51565b6060600b805461093a90613346565b6060816120b957506040805180820190915260018152600360fc1b60208201526107a9565b8160005b81156120e357806120cd81613381565b91506120dc9050600a836132ef565b91506120bd565b60008167ffffffffffffffff81111561210c57634e487b7160e01b600052604160045260246000fd5b6040519080825280601f01601f191660200182016040528015612136576020820181803683370190505b5090505b8415610dd85761214b600183613303565b9150612158600a8661339c565b6121639060306132d7565b60f81b81838151811061218657634e487b7160e01b600052603260045260246000fd5b60200101906001600160f81b031916908160001a9053506121a8600a866132ef565b945061213a565b60006001600160e01b031982166380ac58cd60e01b14806121e057506001600160e01b03198216635b5e139f60e01b145b806107a657506107a6826123e9565b6001600160a01b0382166122155760405162461bcd60e51b81526004016107de90613091565b61221e81611e17565b1561223b5760405162461bcd60e51b81526004016107de90612ea3565b612247600083836122ce565b6001600160a01b03821660009081526003602052604081208054600192906122709084906132d7565b909155505060008181526002602052604080822080546001600160a01b0319166001600160a01b03861690811790915590518392907fddf252ad1be2c89b69c2b068fc378daa952ba7f163c4a11628f55a4df523b3ef908290a45050565b610a93838383612402565b60006122ed846001600160a01b031661204c565b1561086a57836001600160a01b031663150b7a02612309611dcc565b8786866040518563ffffffff1660e01b815260040161232b9493929190612d42565b602060405180830381600087803b15801561234557600080fd5b505af1925050508015612375575060408051601f3d908101601f1916820190925261237291810190612c61565b60015b6123cf573d8080156123a3576040519150601f19603f3d011682016040523d82523d6000602084013e6123a8565b606091505b5080516123c75760405162461bcd60e51b81526004016107de90612e51565b805181602001fd5b6001600160e01b031916630a85bd0160e11b149050610dd8565b6001600160e01b031981166301ffc9a760e01b14919050565b61240d838383612444565b61241561114e565b158061242857506001600160a01b038316155b610a935760405162461bcd60e51b81526004016107de90612dbb565b61244f838383610a93565b6001600160a01b03831661246b57612466816124cd565b61248e565b816001600160a01b0316836001600160a01b03161461248e5761248e8382612511565b6001600160a01b0382166124aa576124a5816125ae565b610a93565b826001600160a01b0316826001600160a01b031614610a9357610a938282612687565b600880546000838152600960205260408120829055600182018355919091527ff3f7a9fe364faab93b216da50a3214154f22a0a2b415b23a84c8169e8b636ee30155565b6000600161251e84611382565b6125289190613303565b60008381526007602052604090205490915080821461257b576001600160a01b03841660009081526006602090815260408083208584528252808320548484528184208190558352600790915290208190555b5060009182526007602090815260408084208490556001600160a01b039094168352600681528383209183525290812055565b6008546000906125c090600190613303565b600083815260096020526040812054600880549394509092849081106125f657634e487b7160e01b600052603260045260246000fd5b90600052602060002001549050806008838154811061262557634e487b7160e01b600052603260045260246000fd5b600091825260208083209091019290925582815260099091526040808220849055858252812055600880548061266b57634e487b7160e01b600052603160045260246000fd5b6001900381819060005260206000200160009055905550505050565b600061269283611382565b6001600160a01b039093166000908152600660209081526040808320868452825280832085905593825260079052919091209190915550565b8280546126d790613346565b90600052602060002090601f0160209004810192826126f9576000855561273f565b82601f1061271257805160ff191683800117855561273f565b8280016001018555821561273f579182015b8281111561273f578251825591602001919060010190612724565b5061274b92915061274f565b5090565b5b8082111561274b5760008155600101612750565b803580151581146107a957600080fd5b600082601f830112612784578081fd5b813567ffffffffffffffff8082111561279f5761279f6133dc565b604051601f8301601f1916810160200182811182821017156127c3576127c36133dc565b6040528281528483016020018610156127da578384fd5b82602086016020830137918201602001929092529392505050565b600060208284031215612806578081fd5b813561181a816133f2565b600060208284031215612822578081fd5b815161181a816133f2565b6000806040838503121561283f578081fd5b823561284a816133f2565b9150602083013561285a816133f2565b809150509250929050565b600080600060608486031215612879578081fd5b8335612884816133f2565b92506020840135612894816133f2565b929592945050506040919091013590565b600080600080608085870312156128ba578081fd5b84356128c5816133f2565b935060208501356128d5816133f2565b925060408501359150606085013567ffffffffffffffff8111156128f7578182fd5b61290387828801612774565b91505092959194509250565b60008060408385031215612921578182fd5b823561292c816133f2565b915061293a60208401612764565b90509250929050565b60008060408385031215612955578182fd5b8235612960816133f2565b946020939093013593505050565b600080600060608486031215612982578283fd5b833561298d816133f2565b92506020840135915060408401356129a4816133f2565b809150509250925092565b6000806000606084860312156129c3578283fd5b83356129ce816133f2565b9250602084013591506129e360408501612764565b90509250925092565b600080600060608486031215612a00578283fd5b8335612a0b816133f2565b95602085013595506040909401359392505050565b600080600060608486031215612a34578081fd5b8335612a3f816133f2565b925060208401359150604084013567ffffffffffffffff811115612a61578182fd5b612a6d86828701612774565b9150509250925092565b600080600060608486031215612a00578081fd5b60008060408385031215612a9d578182fd5b8235612aa8816133f2565b9150602083013567ffffffffffffffff811115612ac3578182fd5b612acf85828601612774565b9150509250929050565b600080600060608486031215612aed578081fd5b8335612af8816133f2565b9250602084013567ffffffffffffffff811115612b13578182fd5b612b1f86828701612774565b92505060408401356129a4816133f2565b600080600060608486031215612b44578081fd5b8335612b4f816133f2565b9250602084013567ffffffffffffffff811115612b6a578182fd5b612b7686828701612774565b9250506129e360408501612764565b600080600060608486031215612b99578081fd5b8335612ba4816133f2565b9250602084013567ffffffffffffffff811115612bbf578182fd5b612bcb86828701612774565b925050604084013590509250925092565b600080600060608486031215612bf0578081fd5b8335612bfb816133f2565b9250602084013567ffffffffffffffff80821115612c17578283fd5b612c2387838801612774565b93506040860135915080821115612c38578283fd5b50612a6d86828701612774565b600060208284031215612c56578081fd5b813561181a8161340a565b600060208284031215612c72578081fd5b815161181a8161340a565b600060208284031215612c8e578081fd5b5035919050565b60008151808452612cad81602086016020860161331a565b601f01601f19169290920160200192915050565b60609290921b6bffffffffffffffffffffffff19168252601482015260340190565b60008251612cf581846020870161331a565b9190910192915050565b60008351612d1181846020880161331a565b835190830190612d2581836020880161331a565b01949350505050565b6001600160a01b0391909116815260200190565b6001600160a01b0385811682528416602082015260408101839052608060608201819052600090612d7590830184612c95565b9695505050505050565b901515815260200190565b90815260200190565b6001600160e01b031991909116815260200190565b60006020825261181a6020830184612c95565b6020808252602b908201527f4552433732315061757361626c653a20746f6b656e207472616e73666572207760408201526a1a1a5b19481c185d5cd95960aa1b606082015260800190565b6020808252602b908201527f455243373231456e756d657261626c653a206f776e657220696e646578206f7560408201526a74206f6620626f756e647360a81b606082015260800190565b60208082526032908201527f4552433732313a207472616e7366657220746f206e6f6e20455243373231526560408201527131b2b4bb32b91034b6b83632b6b2b73a32b960711b606082015260800190565b6020808252601c908201527f4552433732313a20746f6b656e20616c7265616479206d696e74656400000000604082015260600190565b60208082526024908201527f4552433732313a207472616e7366657220746f20746865207a65726f206164646040820152637265737360e01b606082015260800190565b60208082526019908201527f4552433732313a20617070726f766520746f2063616c6c657200000000000000604082015260600190565b6020808252602c908201527f4552433732313a206f70657261746f7220717565727920666f72206e6f6e657860408201526b34b9ba32b73a103a37b5b2b760a11b606082015260800190565b60208082526038908201527f4552433732313a20617070726f76652063616c6c6572206973206e6f74206f7760408201527f6e6572206e6f7220617070726f76656420666f7220616c6c0000000000000000606082015260800190565b6020808252602a908201527f4552433732313a2062616c616e636520717565727920666f7220746865207a65604082015269726f206164647265737360b01b606082015260800190565b60208082526029908201527f4552433732313a206f776e657220717565727920666f72206e6f6e657869737460408201526832b73a103a37b5b2b760b91b606082015260800190565b6020808252818101527f4552433732313a206d696e7420746f20746865207a65726f2061646472657373604082015260600190565b6020808252602c908201527f4552433732313a20617070726f76656420717565727920666f72206e6f6e657860408201526b34b9ba32b73a103a37b5b2b760a11b606082015260800190565b6020808252602f908201527f5265676973747261723a2063616c6c6572206973206e6f7420746865206f776e60408201526e195c881bd9881c9958da5c1a595b9d608a1b606082015260800190565b60208082526029908201527f4552433732313a207472616e73666572206f6620746f6b656e2074686174206960408201526839903737ba1037bbb760b91b606082015260800190565b6020808252602f908201527f4552433732314d657461646174613a2055524920717565727920666f72206e6f60408201526e3732bc34b9ba32b73a103a37b5b2b760891b606082015260800190565b60208082526021908201527f4552433732313a20617070726f76616c20746f2063757272656e74206f776e656040820152603960f91b606082015260800190565b60208082526031908201527f4552433732313a207472616e736665722063616c6c6572206973206e6f74206f6040820152701ddb995c881b9bdc88185c1c1c9bdd9959607a1b606082015260800190565b6020808252602c908201527f455243373231456e756d657261626c653a20676c6f62616c20696e646578206f60408201526b7574206f6620626f756e647360a01b606082015260800190565b600082198211156132ea576132ea6133b0565b500190565b6000826132fe576132fe6133c6565b500490565b600082821015613315576133156133b0565b500390565b60005b8381101561333557818101518382015260200161331d565b8381111561172c5750506000910152565b60028104600182168061335a57607f821691505b6020821081141561337b57634e487b7160e01b600052602260045260246000fd5b50919050565b6000600019821415613395576133956133b0565b5060010190565b6000826133ab576133ab6133c6565b500690565b634e487b7160e01b600052601160045260246000fd5b634e487b7160e01b600052601260045260246000fd5b634e487b7160e01b600052604160045260246000fd5b6001600160a01b038116811461340757600080fd5b50565b6001600160e01b03198116811461340757600080fdfea26469706673582212205368221ac91fc0045d4d402368b6a70a92598887cdb7cdfbc80aff8c027cb7c564736f6c63430008000033",
			"opcodes": "PUSH1 0x80 PUSH1 0x40 MSTORE CALLVALUE DUP1 ISZERO PUSH3 0x11 JUMPI PUSH1 0x0 DUP1 REVERT JUMPDEST POP PUSH1 0x40 DUP1 MLOAD DUP1 DUP3 ADD DUP3 MSTORE PUSH1 0x9 DUP2 MSTORE PUSH9 0x2932B3B4B9BA3930B9 PUSH1 0xB9 SHL PUSH1 0x20 DUP1 DUP4 ADD SWAP2 DUP3 MSTORE DUP4 MLOAD DUP1 DUP6 ADD SWAP1 SWAP5 MSTORE PUSH1 0x1 DUP5 MSTORE PUSH1 0x29 PUSH1 0xF9 SHL SWAP1 DUP5 ADD MSTORE DUP2 MLOAD SWAP2 SWAP3 SWAP2 PUSH3 0x5C SWAP2 PUSH1 0x0 SWAP2 PUSH3 0x120 JUMP JUMPDEST POP DUP1 MLOAD PUSH3 0x72 SWAP1 PUSH1 0x1 SWAP1 PUSH1 0x20 DUP5 ADD SWAP1 PUSH3 0x120 JUMP JUMPDEST POP POP PUSH1 0xA DUP1 SLOAD PUSH1 0xFF NOT AND SWAP1 SSTORE POP PUSH3 0x89 PUSH3 0x8F JUMP JUMPDEST PUSH3 0x241 JUMP JUMPDEST PUSH3 0x99 PUSH3 0x113 JUMP JUMPDEST ISZERO PUSH3 0xC2 JUMPI PUSH1 0x40 MLOAD PUSH3 0x461BCD PUSH1 0xE5 SHL DUP2 MSTORE PUSH1 0x4 ADD PUSH3 0xB9 SWAP1 PUSH3 0x1DA JUMP JUMPDEST PUSH1 0x40 MLOAD DUP1 SWAP2 SUB SWAP1 REVERT JUMPDEST PUSH1 0xA DUP1 SLOAD PUSH1 0xFF NOT AND PUSH1 0x1 OR SWAP1 SSTORE PUSH32 0x62E78CEA01BEE320CD4E420270B5EA74000D11B0C9F74754EBDBFC544B05A258 PUSH3 0xFA PUSH3 0x11C JUMP JUMPDEST PUSH1 0x40 MLOAD PUSH3 0x109 SWAP2 SWAP1 PUSH3 0x1C6 JUMP JUMPDEST PUSH1 0x40 MLOAD DUP1 SWAP2 SUB SWAP1 LOG1 JUMP JUMPDEST PUSH1 0xA SLOAD PUSH1 0xFF AND SWAP1 JUMP JUMPDEST CALLER SWAP1 JUMP JUMPDEST DUP3 DUP1 SLOAD PUSH3 0x12E SWAP1 PUSH3 0x204 JUMP JUMPDEST SWAP1 PUSH1 0x0 MSTORE PUSH1 0x20 PUSH1 0x0 KECCAK256 SWAP1 PUSH1 0x1F ADD PUSH1 0x20 SWAP1 DIV DUP2 ADD SWAP3 DUP3 PUSH3 0x152 JUMPI PUSH1 0x0 DUP6 SSTORE PUSH3 0x19D JUMP JUMPDEST DUP3 PUSH1 0x1F LT PUSH3 0x16D JUMPI DUP1 MLOAD PUSH1 0xFF NOT AND DUP4 DUP1 ADD OR DUP6 SSTORE PUSH3 0x19D JUMP JUMPDEST DUP3 DUP1 ADD PUSH1 0x1 ADD DUP6 SSTORE DUP3 ISZERO PUSH3 0x19D JUMPI SWAP2 DUP3 ADD JUMPDEST DUP3 DUP2 GT ISZERO PUSH3 0x19D JUMPI DUP3 MLOAD DUP3 SSTORE SWAP2 PUSH1 0x20 ADD SWAP2 SWAP1 PUSH1 0x1 ADD SWAP1 PUSH3 0x180 JUMP JUMPDEST POP PUSH3 0x1AB SWAP3 SWAP2 POP PUSH3 0x1AF JUMP JUMPDEST POP SWAP1 JUMP JUMPDEST JUMPDEST DUP1 DUP3 GT ISZERO PUSH3 0x1AB JUMPI PUSH1 0x0 DUP2 SSTORE PUSH1 0x1 ADD PUSH3 0x1B0 JUMP JUMPDEST PUSH1 0x1 PUSH1 0x1 PUSH1 0xA0 SHL SUB SWAP2 SWAP1 SWAP2 AND DUP2 MSTORE PUSH1 0x20 ADD SWAP1 JUMP JUMPDEST PUSH1 0x20 DUP1 DUP3 MSTORE PUSH1 0x10 SWAP1 DUP3 ADD MSTORE PUSH16 0x14185D5CD8589B194E881C185D5CD959 PUSH1 0x82 SHL PUSH1 0x40 DUP3 ADD MSTORE PUSH1 0x60 ADD SWAP1 JUMP JUMPDEST PUSH1 0x2 DUP2 DIV PUSH1 0x1 DUP3 AND DUP1 PUSH3 0x219 JUMPI PUSH1 0x7F DUP3 AND SWAP2 POP JUMPDEST PUSH1 0x20 DUP3 LT DUP2 EQ ISZERO PUSH3 0x23B JUMPI PUSH4 0x4E487B71 PUSH1 0xE0 SHL PUSH1 0x0 MSTORE PUSH1 0x22 PUSH1 0x4 MSTORE PUSH1 0x24 PUSH1 0x0 REVERT JUMPDEST POP SWAP2 SWAP1 POP JUMP JUMPDEST PUSH2 0x3456 DUP1 PUSH3 0x251 PUSH1 0x0 CODECOPY PUSH1 0x0 RETURN INVALID PUSH1 0x80 PUSH1 0x40 MSTORE CALLVALUE DUP1 ISZERO PUSH2 0x10 JUMPI PUSH1 0x0 DUP1 REVERT JUMPDEST POP PUSH1 0x4 CALLDATASIZE LT PUSH2 0x35D JUMPI PUSH1 0x0 CALLDATALOAD PUSH1 0xE0 SHR DUP1 PUSH4 0x6352211E GT PUSH2 0x1D3 JUMPI DUP1 PUSH4 0xA22CB465 GT PUSH2 0x104 JUMPI DUP1 PUSH4 0xE985E9C5 GT PUSH2 0xA2 JUMPI DUP1 PUSH4 0xF35FD0A8 GT PUSH2 0x7C JUMPI DUP1 PUSH4 0xF35FD0A8 EQ PUSH2 0x735 JUMPI DUP1 PUSH4 0xF417358F EQ PUSH2 0x748 JUMPI DUP1 PUSH4 0xFE4D3464 EQ PUSH2 0x75B JUMPI DUP1 PUSH4 0xFF450F5D EQ PUSH2 0x76E JUMPI PUSH2 0x35D JUMP JUMPDEST DUP1 PUSH4 0xE985E9C5 EQ PUSH2 0x6FC JUMPI DUP1 PUSH4 0xEAEF9F32 EQ PUSH2 0x70F JUMPI DUP1 PUSH4 0xF1E09B2E EQ PUSH2 0x722 JUMPI PUSH2 0x35D JUMP JUMPDEST DUP1 PUSH4 0xC87B56DD GT PUSH2 0xDE JUMPI DUP1 PUSH4 0xC87B56DD EQ PUSH2 0x6B0 JUMPI DUP1 PUSH4 0xCA54B172 EQ PUSH2 0x6C3 JUMPI DUP1 PUSH4 0xE318DE73 EQ PUSH2 0x6D6 JUMPI DUP1 PUSH4 0xE761BA30 EQ PUSH2 0x6E9 JUMPI PUSH2 0x35D JUMP JUMPDEST DUP1 PUSH4 0xA22CB465 EQ PUSH2 0x677 JUMPI DUP1 PUSH4 0xB88D4FDE EQ PUSH2 0x68A JUMPI DUP1 PUSH4 0xBF031414 EQ PUSH2 0x69D JUMPI PUSH2 0x35D JUMP JUMPDEST DUP1 PUSH4 0x7AC4ED64 GT PUSH2 0x171 JUMPI DUP1 PUSH4 0x94995510 GT PUSH2 0x14B JUMPI DUP1 PUSH4 0x94995510 EQ PUSH2 0x636 JUMPI DUP1 PUSH4 0x95D89B41 EQ PUSH2 0x649 JUMPI DUP1 PUSH4 0x9D74B37D EQ PUSH2 0x651 JUMPI DUP1 PUSH4 0x9E1B3240 EQ PUSH2 0x664 JUMPI PUSH2 0x35D JUMP JUMPDEST DUP1 PUSH4 0x7AC4ED64 EQ PUSH2 0x5FD JUMPI DUP1 PUSH4 0x83131322 EQ PUSH2 0x610 JUMPI DUP1 PUSH4 0x905ED505 EQ PUSH2 0x623 JUMPI PUSH2 0x35D JUMP JUMPDEST DUP1 PUSH4 0x66F1EFF6 GT PUSH2 0x1AD JUMPI DUP1 PUSH4 0x66F1EFF6 EQ PUSH2 0x5B1 JUMPI DUP1 PUSH4 0x70A08231 EQ PUSH2 0x5C4 JUMPI DUP1 PUSH4 0x7610A54C EQ PUSH2 0x5D7 JUMPI DUP1 PUSH4 0x783CBD7B EQ PUSH2 0x5EA JUMPI PUSH2 0x35D JUMP JUMPDEST DUP1 PUSH4 0x6352211E EQ PUSH2 0x578 JUMPI DUP1 PUSH4 0x63BA47B5 EQ PUSH2 0x58B JUMPI DUP1 PUSH4 0x6556F767 EQ PUSH2 0x59E JUMPI PUSH2 0x35D JUMP JUMPDEST DUP1 PUSH4 0x1BAC15E0 GT PUSH2 0x2AD JUMPI DUP1 PUSH4 0x42842E0E GT PUSH2 0x24B JUMPI DUP1 PUSH4 0x4F6CCCE7 GT PUSH2 0x225 JUMPI DUP1 PUSH4 0x4F6CCCE7 EQ PUSH2 0x537 JUMPI DUP1 PUSH4 0x5283B0C5 EQ PUSH2 0x54A JUMPI DUP1 PUSH4 0x5C975ABB EQ PUSH2 0x55D JUMPI DUP1 PUSH4 0x5EAFE415 EQ PUSH2 0x565 JUMPI PUSH2 0x35D JUMP JUMPDEST DUP1 PUSH4 0x42842E0E EQ PUSH2 0x4FE JUMPI DUP1 PUSH4 0x4B324990 EQ PUSH2 0x511 JUMPI DUP1 PUSH4 0x4E3A37BE EQ PUSH2 0x524 JUMPI PUSH2 0x35D JUMP JUMPDEST DUP1 PUSH4 0x2F745C59 GT PUSH2 0x287 JUMPI DUP1 PUSH4 0x2F745C59 EQ PUSH2 0x4B0 JUMPI DUP1 PUSH4 0x3334998C EQ PUSH2 0x4C3 JUMPI DUP1 PUSH4 0x3342BFD8 EQ PUSH2 0x4D8 JUMPI DUP1 PUSH4 0x3736A53F EQ PUSH2 0x4EB JUMPI PUSH2 0x35D JUMP JUMPDEST DUP1 PUSH4 0x1BAC15E0 EQ PUSH2 0x482 JUMPI DUP1 PUSH4 0x23B872DD EQ PUSH2 0x48A JUMPI DUP1 PUSH4 0x2447A7AA EQ PUSH2 0x49D JUMPI PUSH2 0x35D JUMP JUMPDEST DUP1 PUSH4 0xC8FC147 GT PUSH2 0x31A JUMPI DUP1 PUSH4 0x10AFFE13 GT PUSH2 0x2F4 JUMPI DUP1 PUSH4 0x10AFFE13 EQ PUSH2 0x441 JUMPI DUP1 PUSH4 0x158C6292 EQ PUSH2 0x454 JUMPI DUP1 PUSH4 0x18160DDD EQ PUSH2 0x467 JUMPI DUP1 PUSH4 0x1B79E5CC EQ PUSH2 0x46F JUMPI PUSH2 0x35D JUMP JUMPDEST DUP1 PUSH4 0xC8FC147 EQ PUSH2 0x3FB JUMPI DUP1 PUSH4 0xE7EFC65 EQ PUSH2 0x40E JUMPI DUP1 PUSH4 0xF65D87C EQ PUSH2 0x42E JUMPI PUSH2 0x35D JUMP JUMPDEST DUP1 PUSH4 0x1FFC9A7 EQ PUSH2 0x362 JUMPI DUP1 PUSH4 0x20491F2 EQ PUSH2 0x38B JUMPI DUP1 PUSH4 0x5FB86DF EQ PUSH2 0x39E JUMPI DUP1 PUSH4 0x6FDDE03 EQ PUSH2 0x3B1 JUMPI DUP1 PUSH4 0x81812FC EQ PUSH2 0x3C6 JUMPI DUP1 PUSH4 0x95EA7B3 EQ PUSH2 0x3E6 JUMPI JUMPDEST PUSH1 0x0 DUP1 REVERT JUMPDEST PUSH2 0x375 PUSH2 0x370 CALLDATASIZE PUSH1 0x4 PUSH2 0x2C45 JUMP JUMPDEST PUSH2 0x781 JUMP JUMPDEST PUSH1 0x40 MLOAD PUSH2 0x382 SWAP2 SWAP1 PUSH2 0x2D7F JUMP JUMPDEST PUSH1 0x40 MLOAD DUP1 SWAP2 SUB SWAP1 RETURN JUMPDEST PUSH2 0x375 PUSH2 0x399 CALLDATASIZE PUSH1 0x4 PUSH2 0x29AF JUMP JUMPDEST PUSH2 0x7AE JUMP JUMPDEST PUSH2 0x375 PUSH2 0x3AC CALLDATASIZE PUSH1 0x4 PUSH2 0x2943 JUMP JUMPDEST PUSH2 0x875 JUMP JUMPDEST PUSH2 0x3B9 PUSH2 0x92B JUMP JUMPDEST PUSH1 0x40 MLOAD PUSH2 0x382 SWAP2 SWAP1 PUSH2 0x2DA8 JUMP JUMPDEST PUSH2 0x3D9 PUSH2 0x3D4 CALLDATASIZE PUSH1 0x4 PUSH2 0x2C7D JUMP JUMPDEST PUSH2 0x9BD JUMP JUMPDEST PUSH1 0x40 MLOAD PUSH2 0x382 SWAP2 SWAP1 PUSH2 0x2D2E JUMP JUMPDEST PUSH2 0x3F9 PUSH2 0x3F4 CALLDATASIZE PUSH1 0x4 PUSH2 0x2943 JUMP JUMPDEST PUSH2 0xA00 JUMP JUMPDEST STOP JUMPDEST PUSH2 0x375 PUSH2 0x409 CALLDATASIZE PUSH1 0x4 PUSH2 0x2943 JUMP JUMPDEST PUSH2 0xA98 JUMP JUMPDEST PUSH2 0x421 PUSH2 0x41C CALLDATASIZE PUSH1 0x4 PUSH2 0x2943 JUMP JUMPDEST PUSH2 0xB35 JUMP JUMPDEST PUSH1 0x40 MLOAD PUSH2 0x382 SWAP2 SWAP1 PUSH2 0x2D8A JUMP JUMPDEST PUSH2 0x421 PUSH2 0x43C CALLDATASIZE PUSH1 0x4 PUSH2 0x2A8B JUMP JUMPDEST PUSH2 0xB63 JUMP JUMPDEST PUSH2 0x421 PUSH2 0x44F CALLDATASIZE PUSH1 0x4 PUSH2 0x2943 JUMP JUMPDEST PUSH2 0xBCD JUMP JUMPDEST PUSH2 0x375 PUSH2 0x462 CALLDATASIZE PUSH1 0x4 PUSH2 0x2943 JUMP JUMPDEST PUSH2 0xBF9 JUMP JUMPDEST PUSH2 0x421 PUSH2 0xC91 JUMP JUMPDEST PUSH2 0x375 PUSH2 0x47D CALLDATASIZE PUSH1 0x4 PUSH2 0x2A20 JUMP JUMPDEST PUSH2 0xC97 JUMP JUMPDEST PUSH2 0x3B9 PUSH2 0xD41 JUMP JUMPDEST PUSH2 0x3F9 PUSH2 0x498 CALLDATASIZE PUSH1 0x4 PUSH2 0x2865 JUMP JUMPDEST PUSH2 0xD6D JUMP JUMPDEST PUSH2 0x375 PUSH2 0x4AB CALLDATASIZE PUSH1 0x4 PUSH2 0x2B85 JUMP JUMPDEST PUSH2 0xDA5 JUMP JUMPDEST PUSH2 0x421 PUSH2 0x4BE CALLDATASIZE PUSH1 0x4 PUSH2 0x2943 JUMP JUMPDEST PUSH2 0xDE0 JUMP JUMPDEST PUSH2 0x4CB PUSH2 0xE32 JUMP JUMPDEST PUSH1 0x40 MLOAD PUSH2 0x382 SWAP2 SWAP1 PUSH2 0x2D93 JUMP JUMPDEST PUSH2 0x421 PUSH2 0x4E6 CALLDATASIZE PUSH1 0x4 PUSH2 0x2A8B JUMP JUMPDEST PUSH2 0xE56 JUMP JUMPDEST PUSH2 0x375 PUSH2 0x4F9 CALLDATASIZE PUSH1 0x4 PUSH2 0x296E JUMP JUMPDEST PUSH2 0xE93 JUMP JUMPDEST PUSH2 0x3F9 PUSH2 0x50C CALLDATASIZE PUSH1 0x4 PUSH2 0x2865 JUMP JUMPDEST PUSH2 0xF3C JUMP JUMPDEST PUSH2 0x375 PUSH2 0x51F CALLDATASIZE PUSH1 0x4 PUSH2 0x2A8B JUMP JUMPDEST PUSH2 0xF57 JUMP JUMPDEST PUSH2 0x375 PUSH2 0x532 CALLDATASIZE PUSH1 0x4 PUSH2 0x282D JUMP JUMPDEST PUSH2 0xFB4 JUMP JUMPDEST PUSH2 0x421 PUSH2 0x545 CALLDATASIZE PUSH1 0x4 PUSH2 0x2C7D JUMP JUMPDEST PUSH2 0x10C0 JUMP JUMPDEST PUSH2 0x375 PUSH2 0x558 CALLDATASIZE PUSH1 0x4 PUSH2 0x2B85 JUMP JUMPDEST PUSH2 0x111B JUMP JUMPDEST PUSH2 0x375 PUSH2 0x114E JUMP JUMPDEST PUSH2 0x3D9 PUSH2 0x573 CALLDATASIZE PUSH1 0x4 PUSH2 0x2A8B JUMP JUMPDEST PUSH2 0x1157 JUMP JUMPDEST PUSH2 0x3D9 PUSH2 0x586 CALLDATASIZE PUSH1 0x4 PUSH2 0x2C7D JUMP JUMPDEST PUSH2 0x11CA JUMP JUMPDEST PUSH2 0x375 PUSH2 0x599 CALLDATASIZE PUSH1 0x4 PUSH2 0x2A77 JUMP JUMPDEST PUSH2 0x11FF JUMP JUMPDEST PUSH2 0x3B9 PUSH2 0x5AC CALLDATASIZE PUSH1 0x4 PUSH2 0x2943 JUMP JUMPDEST PUSH2 0x1294 JUMP JUMPDEST PUSH2 0x375 PUSH2 0x5BF CALLDATASIZE PUSH1 0x4 PUSH2 0x2B85 JUMP JUMPDEST PUSH2 0x134F JUMP JUMPDEST PUSH2 0x421 PUSH2 0x5D2 CALLDATASIZE PUSH1 0x4 PUSH2 0x27F5 JUMP JUMPDEST PUSH2 0x1382 JUMP JUMPDEST PUSH2 0x375 PUSH2 0x5E5 CALLDATASIZE PUSH1 0x4 PUSH2 0x2A77 JUMP JUMPDEST PUSH2 0x13C6 JUMP JUMPDEST PUSH2 0x375 PUSH2 0x5F8 CALLDATASIZE PUSH1 0x4 PUSH2 0x2BDC JUMP JUMPDEST PUSH2 0x145B JUMP JUMPDEST PUSH2 0x3D9 PUSH2 0x60B CALLDATASIZE PUSH1 0x4 PUSH2 0x2943 JUMP JUMPDEST PUSH2 0x148E JUMP JUMPDEST PUSH2 0x375 PUSH2 0x61E CALLDATASIZE PUSH1 0x4 PUSH2 0x2B30 JUMP JUMPDEST PUSH2 0x14BA JUMP JUMPDEST PUSH2 0x375 PUSH2 0x631 CALLDATASIZE PUSH1 0x4 PUSH2 0x29EC JUMP JUMPDEST PUSH2 0x14ED JUMP JUMPDEST PUSH2 0x421 PUSH2 0x644 CALLDATASIZE PUSH1 0x4 PUSH2 0x2943 JUMP JUMPDEST PUSH2 0x1582 JUMP JUMPDEST PUSH2 0x3B9 PUSH2 0x15AE JUMP JUMPDEST PUSH2 0x375 PUSH2 0x65F CALLDATASIZE PUSH1 0x4 PUSH2 0x2943 JUMP JUMPDEST PUSH2 0x15BD JUMP JUMPDEST PUSH2 0x421 PUSH2 0x672 CALLDATASIZE PUSH1 0x4 PUSH2 0x2A8B JUMP JUMPDEST PUSH2 0x15E8 JUMP JUMPDEST PUSH2 0x3F9 PUSH2 0x685 CALLDATASIZE PUSH1 0x4 PUSH2 0x290F JUMP JUMPDEST PUSH2 0x1625 JUMP JUMPDEST PUSH2 0x3F9 PUSH2 0x698 CALLDATASIZE PUSH1 0x4 PUSH2 0x28A5 JUMP JUMPDEST PUSH2 0x16F3 JUMP JUMPDEST PUSH2 0x3B9 PUSH2 0x6AB CALLDATASIZE PUSH1 0x4 PUSH2 0x2A8B JUMP JUMPDEST PUSH2 0x1732 JUMP JUMPDEST PUSH2 0x3B9 PUSH2 0x6BE CALLDATASIZE PUSH1 0x4 PUSH2 0x2C7D JUMP JUMPDEST PUSH2 0x179E JUMP JUMPDEST PUSH2 0x375 PUSH2 0x6D1 CALLDATASIZE PUSH1 0x4 PUSH2 0x2943 JUMP JUMPDEST PUSH2 0x1821 JUMP JUMPDEST PUSH2 0x3B9 PUSH2 0x6E4 CALLDATASIZE PUSH1 0x4 PUSH2 0x2943 JUMP JUMPDEST PUSH2 0x1967 JUMP JUMPDEST PUSH2 0x375 PUSH2 0x6F7 CALLDATASIZE PUSH1 0x4 PUSH2 0x2BDC JUMP JUMPDEST PUSH2 0x199C JUMP JUMPDEST PUSH2 0x375 PUSH2 0x70A CALLDATASIZE PUSH1 0x4 PUSH2 0x282D JUMP JUMPDEST PUSH2 0x19CF JUMP JUMPDEST PUSH2 0x375 PUSH2 0x71D CALLDATASIZE PUSH1 0x4 PUSH2 0x2943 JUMP JUMPDEST PUSH2 0x19FD JUMP JUMPDEST PUSH2 0x375 PUSH2 0x730 CALLDATASIZE PUSH1 0x4 PUSH2 0x2A20 JUMP JUMPDEST PUSH2 0x1AA0 JUMP JUMPDEST PUSH2 0x375 PUSH2 0x743 CALLDATASIZE PUSH1 0x4 PUSH2 0x2943 JUMP JUMPDEST PUSH2 0x1B4A JUMP JUMPDEST PUSH2 0x3B9 PUSH2 0x756 CALLDATASIZE PUSH1 0x4 PUSH2 0x2A8B JUMP JUMPDEST PUSH2 0x1BF1 JUMP JUMPDEST PUSH2 0x375 PUSH2 0x769 CALLDATASIZE PUSH1 0x4 PUSH2 0x2AD9 JUMP JUMPDEST PUSH2 0x1C2E JUMP JUMPDEST PUSH2 0x375 PUSH2 0x77C CALLDATASIZE PUSH1 0x4 PUSH2 0x2943 JUMP JUMPDEST PUSH2 0x1C61 JUMP JUMPDEST PUSH1 0x0 PUSH1 0x1 PUSH1 0x1 PUSH1 0xE0 SHL SUB NOT DUP3 AND PUSH4 0x8F338869 PUSH1 0xE0 SHL EQ DUP1 PUSH2 0x7A6 JUMPI POP PUSH2 0x7A6 DUP3 PUSH2 0x1DA7 JUMP JUMPDEST SWAP1 POP JUMPDEST SWAP2 SWAP1 POP JUMP JUMPDEST PUSH1 0x0 DUP4 PUSH2 0x7C2 PUSH2 0x7BC PUSH2 0x1DCC JUMP JUMPDEST DUP3 PUSH2 0xFB4 JUMP JUMPDEST PUSH2 0x7E7 JUMPI PUSH1 0x40 MLOAD PUSH3 0x461BCD PUSH1 0xE5 SHL DUP2 MSTORE PUSH1 0x4 ADD PUSH2 0x7DE SWAP1 PUSH2 0x3112 JUMP JUMPDEST PUSH1 0x40 MLOAD DUP1 SWAP2 SUB SWAP1 REVERT JUMPDEST PUSH1 0x1 PUSH1 0x1 PUSH1 0xA0 SHL SUB DUP6 AND PUSH1 0x0 DUP2 DUP2 MSTORE PUSH1 0xC PUSH1 0x20 SWAP1 DUP2 MSTORE PUSH1 0x40 DUP1 DUP4 KECCAK256 DUP9 DUP5 MSTORE SWAP1 SWAP2 MSTORE SWAP1 KECCAK256 DUP1 SLOAD PUSH1 0xFF NOT AND DUP6 ISZERO ISZERO OR SWAP1 SSTORE DUP5 SWAP1 PUSH2 0x820 PUSH2 0x1DCC JUMP JUMPDEST PUSH1 0x1 PUSH1 0x1 PUSH1 0xA0 SHL SUB AND PUSH32 0xF5826CF7251F05C8E6983E624E6FCBDFED8ED4519F694F5AC2E440A720057975 DUP7 PUSH1 0x40 MLOAD PUSH2 0x858 SWAP2 SWAP1 PUSH2 0x2D7F JUMP JUMPDEST PUSH1 0x40 MLOAD DUP1 SWAP2 SUB SWAP1 LOG4 PUSH2 0x86A DUP6 DUP6 PUSH2 0x1DD0 JUMP JUMPDEST POP PUSH1 0x1 SWAP5 SWAP4 POP POP POP POP JUMP JUMPDEST PUSH1 0x0 DUP3 PUSH2 0x883 PUSH2 0x7BC PUSH2 0x1DCC JUMP JUMPDEST PUSH2 0x89F JUMPI PUSH1 0x40 MLOAD PUSH3 0x461BCD PUSH1 0xE5 SHL DUP2 MSTORE PUSH1 0x4 ADD PUSH2 0x7DE SWAP1 PUSH2 0x3112 JUMP JUMPDEST PUSH1 0x1 PUSH1 0x1 PUSH1 0xA0 SHL SUB DUP5 AND PUSH1 0x0 DUP2 DUP2 MSTORE PUSH1 0xC PUSH1 0x20 SWAP1 DUP2 MSTORE PUSH1 0x40 DUP1 DUP4 KECCAK256 DUP8 DUP5 MSTORE PUSH1 0x3 DUP2 ADD DUP4 MSTORE DUP2 DUP5 KECCAK256 SLOAD PUSH1 0x6 SWAP1 SWAP2 ADD SWAP1 SWAP3 MSTORE DUP3 KECCAK256 SWAP2 SWAP1 SWAP2 SSTORE SWAP1 DUP5 SWAP1 PUSH2 0x8E0 PUSH2 0x1DCC JUMP JUMPDEST PUSH1 0x1 PUSH1 0x1 PUSH1 0xA0 SHL SUB AND PUSH32 0xE9FBB47CBD24CF513FE96DF212531AA750436238A3CF2051E7CFDB61064D146A DUP5 PUSH1 0x40 MLOAD PUSH2 0x918 SWAP2 SWAP1 PUSH2 0x2D8A JUMP JUMPDEST PUSH1 0x40 MLOAD DUP1 SWAP2 SUB SWAP1 LOG4 POP PUSH1 0x1 SWAP5 SWAP4 POP POP POP POP JUMP JUMPDEST PUSH1 0x60 PUSH1 0x0 DUP1 SLOAD PUSH2 0x93A SWAP1 PUSH2 0x3346 JUMP JUMPDEST DUP1 PUSH1 0x1F ADD PUSH1 0x20 DUP1 SWAP2 DIV MUL PUSH1 0x20 ADD PUSH1 0x40 MLOAD SWAP1 DUP2 ADD PUSH1 0x40 MSTORE DUP1 SWAP3 SWAP2 SWAP1 DUP2 DUP2 MSTORE PUSH1 0x20 ADD DUP3 DUP1 SLOAD PUSH2 0x966 SWAP1 PUSH2 0x3346 JUMP JUMPDEST DUP1 ISZERO PUSH2 0x9B3 JUMPI DUP1 PUSH1 0x1F LT PUSH2 0x988 JUMPI PUSH2 0x100 DUP1 DUP4 SLOAD DIV MUL DUP4 MSTORE SWAP2 PUSH1 0x20 ADD SWAP2 PUSH2 0x9B3 JUMP JUMPDEST DUP3 ADD SWAP2 SWAP1 PUSH1 0x0 MSTORE PUSH1 0x20 PUSH1 0x0 KECCAK256 SWAP1 JUMPDEST DUP2 SLOAD DUP2 MSTORE SWAP1 PUSH1 0x1 ADD SWAP1 PUSH1 0x20 ADD DUP1 DUP4 GT PUSH2 0x996 JUMPI DUP3 SWAP1 SUB PUSH1 0x1F AND DUP3 ADD SWAP2 JUMPDEST POP POP POP POP POP SWAP1 POP SWAP1 JUMP JUMPDEST PUSH1 0x0 PUSH2 0x9C8 DUP3 PUSH2 0x1E17 JUMP JUMPDEST PUSH2 0x9E4 JUMPI PUSH1 0x40 MLOAD PUSH3 0x461BCD PUSH1 0xE5 SHL DUP2 MSTORE PUSH1 0x4 ADD PUSH2 0x7DE SWAP1 PUSH2 0x30C6 JUMP JUMPDEST POP PUSH1 0x0 SWAP1 DUP2 MSTORE PUSH1 0x4 PUSH1 0x20 MSTORE PUSH1 0x40 SWAP1 KECCAK256 SLOAD PUSH1 0x1 PUSH1 0x1 PUSH1 0xA0 SHL SUB AND SWAP1 JUMP JUMPDEST PUSH1 0x0 PUSH2 0xA0B DUP3 PUSH2 0x11CA JUMP JUMPDEST SWAP1 POP DUP1 PUSH1 0x1 PUSH1 0x1 PUSH1 0xA0 SHL SUB AND DUP4 PUSH1 0x1 PUSH1 0x1 PUSH1 0xA0 SHL SUB AND EQ ISZERO PUSH2 0xA3F JUMPI PUSH1 0x40 MLOAD PUSH3 0x461BCD PUSH1 0xE5 SHL DUP2 MSTORE PUSH1 0x4 ADD PUSH2 0x7DE SWAP1 PUSH2 0x31F9 JUMP JUMPDEST DUP1 PUSH1 0x1 PUSH1 0x1 PUSH1 0xA0 SHL SUB AND PUSH2 0xA51 PUSH2 0x1DCC JUMP JUMPDEST PUSH1 0x1 PUSH1 0x1 PUSH1 0xA0 SHL SUB AND EQ DUP1 PUSH2 0xA6D JUMPI POP PUSH2 0xA6D DUP2 PUSH2 0x70A PUSH2 0x1DCC JUMP JUMPDEST PUSH2 0xA89 JUMPI PUSH1 0x40 MLOAD PUSH3 0x461BCD PUSH1 0xE5 SHL DUP2 MSTORE PUSH1 0x4 ADD PUSH2 0x7DE SWAP1 PUSH2 0x2FA1 JUMP JUMPDEST PUSH2 0xA93 DUP4 DUP4 PUSH2 0x1E34 JUMP JUMPDEST POP POP POP JUMP JUMPDEST PUSH1 0x0 DUP3 PUSH2 0xAA6 PUSH2 0x7BC PUSH2 0x1DCC JUMP JUMPDEST PUSH2 0xAC2 JUMPI PUSH1 0x40 MLOAD PUSH3 0x461BCD PUSH1 0xE5 SHL DUP2 MSTORE PUSH1 0x4 ADD PUSH2 0x7DE SWAP1 PUSH2 0x3112 JUMP JUMPDEST PUSH1 0x1 PUSH1 0x1 PUSH1 0xA0 SHL SUB DUP5 AND PUSH1 0x0 DUP2 DUP2 MSTORE PUSH1 0xC PUSH1 0x20 SWAP1 DUP2 MSTORE PUSH1 0x40 DUP1 DUP4 KECCAK256 DUP8 DUP5 MSTORE SWAP1 SWAP2 MSTORE SWAP1 KECCAK256 DUP1 SLOAD PUSH1 0xFF NOT DUP2 AND SWAP1 SWAP2 SSTORE PUSH1 0xFF AND SWAP1 DUP5 SWAP1 PUSH2 0xAFD PUSH2 0x1DCC JUMP JUMPDEST PUSH1 0x1 PUSH1 0x1 PUSH1 0xA0 SHL SUB AND PUSH32 0xEEFA0F8263336D06FA6A821AFA8B541FB731E184798E6144EECB6DF002F65378 DUP5 PUSH1 0x40 MLOAD PUSH2 0x918 SWAP2 SWAP1 PUSH2 0x2D7F JUMP JUMPDEST PUSH1 0x1 PUSH1 0x1 PUSH1 0xA0 SHL SUB DUP3 AND PUSH1 0x0 SWAP1 DUP2 MSTORE PUSH1 0xC PUSH1 0x20 SWAP1 DUP2 MSTORE PUSH1 0x40 DUP1 DUP4 KECCAK256 DUP5 DUP5 MSTORE PUSH1 0x6 ADD SWAP1 SWAP2 MSTORE SWAP1 KECCAK256 SLOAD JUMPDEST SWAP3 SWAP2 POP POP JUMP JUMPDEST PUSH1 0x0 PUSH1 0xC PUSH1 0x0 DUP5 PUSH1 0x1 PUSH1 0x1 PUSH1 0xA0 SHL SUB AND PUSH1 0x1 PUSH1 0x1 PUSH1 0xA0 SHL SUB AND DUP2 MSTORE PUSH1 0x20 ADD SWAP1 DUP2 MSTORE PUSH1 0x20 ADD PUSH1 0x0 KECCAK256 PUSH1 0x6 ADD PUSH1 0x0 DUP4 PUSH1 0x40 MLOAD PUSH1 0x20 ADD PUSH2 0xBA0 SWAP2 SWAP1 PUSH2 0x2CE3 JUMP JUMPDEST PUSH1 0x40 MLOAD PUSH1 0x20 DUP2 DUP4 SUB SUB DUP2 MSTORE SWAP1 PUSH1 0x40 MSTORE DUP1 MLOAD SWAP1 PUSH1 0x20 ADD KECCAK256 DUP2 MSTORE PUSH1 0x20 ADD SWAP1 DUP2 MSTORE PUSH1 0x20 ADD PUSH1 0x0 KECCAK256 SLOAD SWAP1 POP SWAP3 SWAP2 POP POP JUMP JUMPDEST PUSH1 0x1 PUSH1 0x1 PUSH1 0xA0 SHL SUB SWAP2 SWAP1 SWAP2 AND PUSH1 0x0 SWAP1 DUP2 MSTORE PUSH1 0xC PUSH1 0x20 SWAP1 DUP2 MSTORE PUSH1 0x40 DUP1 DUP4 KECCAK256 SWAP4 DUP4 MSTORE PUSH1 0x3 SWAP1 SWAP4 ADD SWAP1 MSTORE KECCAK256 SLOAD SWAP1 JUMP JUMPDEST PUSH1 0x0 DUP3 PUSH2 0xC07 PUSH2 0x7BC PUSH2 0x1DCC JUMP JUMPDEST PUSH2 0xC23 JUMPI PUSH1 0x40 MLOAD PUSH3 0x461BCD PUSH1 0xE5 SHL DUP2 MSTORE PUSH1 0x4 ADD PUSH2 0x7DE SWAP1 PUSH2 0x3112 JUMP JUMPDEST PUSH1 0x1 PUSH1 0x1 PUSH1 0xA0 SHL SUB DUP5 AND PUSH1 0x0 DUP2 DUP2 MSTORE PUSH1 0xC PUSH1 0x20 SWAP1 DUP2 MSTORE PUSH1 0x40 DUP1 DUP4 KECCAK256 DUP8 DUP5 MSTORE PUSH1 0x6 ADD SWAP1 SWAP2 MSTORE DUP2 KECCAK256 DUP1 SLOAD SWAP2 SWAP1 SSTORE SWAP1 DUP5 SWAP1 PUSH2 0xC59 PUSH2 0x1DCC JUMP JUMPDEST PUSH1 0x1 PUSH1 0x1 PUSH1 0xA0 SHL SUB AND PUSH32 0x6A896444E4F75FA9D129A5ACBC1F1E4B20AAFF3E0560EC0C7BFACA3CF6F10CFE DUP5 PUSH1 0x40 MLOAD PUSH2 0x918 SWAP2 SWAP1 PUSH2 0x2D8A JUMP JUMPDEST PUSH1 0x8 SLOAD SWAP1 JUMP JUMPDEST PUSH1 0x0 DUP4 PUSH2 0xCA5 PUSH2 0x7BC PUSH2 0x1DCC JUMP JUMPDEST PUSH2 0xCC1 JUMPI PUSH1 0x40 MLOAD PUSH3 0x461BCD PUSH1 0xE5 SHL DUP2 MSTORE PUSH1 0x4 ADD PUSH2 0x7DE SWAP1 PUSH2 0x3112 JUMP JUMPDEST PUSH1 0x1 PUSH1 0x1 PUSH1 0xA0 SHL SUB DUP6 AND PUSH1 0x0 SWAP1 DUP2 MSTORE PUSH1 0xC PUSH1 0x20 SWAP1 DUP2 MSTORE PUSH1 0x40 DUP1 DUP4 KECCAK256 DUP8 DUP5 MSTORE PUSH1 0x4 ADD DUP3 MSTORE SWAP1 SWAP2 KECCAK256 DUP5 MLOAD PUSH2 0xCF5 SWAP3 DUP7 ADD SWAP1 PUSH2 0x26CB JUMP JUMPDEST POP DUP4 DUP6 PUSH1 0x1 PUSH1 0x1 PUSH1 0xA0 SHL SUB AND PUSH2 0xD09 PUSH2 0x1DCC JUMP JUMPDEST PUSH1 0x1 PUSH1 0x1 PUSH1 0xA0 SHL SUB AND PUSH32 0x3ADF90418D334230D047132BD1D514157D373ABC937CCCCE7ECDF8D1B65399A6 DUP7 PUSH1 0x40 MLOAD PUSH2 0x858 SWAP2 SWAP1 PUSH2 0x2DA8 JUMP JUMPDEST PUSH1 0x40 DUP1 MLOAD PUSH1 0x4 DUP2 MSTORE PUSH1 0x24 DUP2 ADD SWAP1 SWAP2 MSTORE PUSH1 0x20 DUP2 ADD DUP1 MLOAD PUSH1 0x1 PUSH1 0x1 PUSH1 0xE0 SHL SUB AND PUSH4 0x8DA5CB5B PUSH1 0xE0 SHL OR SWAP1 MSTORE DUP2 JUMP JUMPDEST PUSH2 0xD7E PUSH2 0xD78 PUSH2 0x1DCC JUMP JUMPDEST DUP3 PUSH2 0x1EA2 JUMP JUMPDEST PUSH2 0xD9A JUMPI PUSH1 0x40 MLOAD PUSH3 0x461BCD PUSH1 0xE5 SHL DUP2 MSTORE PUSH1 0x4 ADD PUSH2 0x7DE SWAP1 PUSH2 0x323A JUMP JUMPDEST PUSH2 0xA93 DUP4 DUP4 DUP4 PUSH2 0x1F1F JUMP JUMPDEST PUSH1 0x0 PUSH2 0xDD8 DUP5 DUP5 PUSH1 0x40 MLOAD PUSH1 0x20 ADD PUSH2 0xDBC SWAP2 SWAP1 PUSH2 0x2CE3 JUMP JUMPDEST PUSH1 0x40 MLOAD PUSH1 0x20 DUP2 DUP4 SUB SUB DUP2 MSTORE SWAP1 PUSH1 0x40 MSTORE DUP1 MLOAD SWAP1 PUSH1 0x20 ADD KECCAK256 DUP5 PUSH2 0x11FF JUMP JUMPDEST SWAP5 SWAP4 POP POP POP POP JUMP JUMPDEST PUSH1 0x0 PUSH2 0xDEB DUP4 PUSH2 0x1382 JUMP JUMPDEST DUP3 LT PUSH2 0xE09 JUMPI PUSH1 0x40 MLOAD PUSH3 0x461BCD PUSH1 0xE5 SHL DUP2 MSTORE PUSH1 0x4 ADD PUSH2 0x7DE SWAP1 PUSH2 0x2E06 JUMP JUMPDEST POP PUSH1 0x1 PUSH1 0x1 PUSH1 0xA0 SHL SUB SWAP2 SWAP1 SWAP2 AND PUSH1 0x0 SWAP1 DUP2 MSTORE PUSH1 0x6 PUSH1 0x20 SWAP1 DUP2 MSTORE PUSH1 0x40 DUP1 DUP4 KECCAK256 SWAP4 DUP4 MSTORE SWAP3 SWAP1 MSTORE KECCAK256 SLOAD SWAP1 JUMP JUMPDEST PUSH32 0x8DA5CB5B36E7F68C1D2E56001220CDBDD3BA2616072F718ACFDA4A06441A807D DUP2 JUMP JUMPDEST PUSH1 0x0 PUSH1 0xC PUSH1 0x0 DUP5 PUSH1 0x1 PUSH1 0x1 PUSH1 0xA0 SHL SUB AND PUSH1 0x1 PUSH1 0x1 PUSH1 0xA0 SHL SUB AND DUP2 MSTORE PUSH1 0x20 ADD SWAP1 DUP2 MSTORE PUSH1 0x20 ADD PUSH1 0x0 KECCAK256 PUSH1 0x3 ADD PUSH1 0x0 DUP4 PUSH1 0x40 MLOAD PUSH1 0x20 ADD PUSH2 0xBA0 SWAP2 SWAP1 PUSH2 0x2CE3 JUMP JUMPDEST PUSH1 0x0 DUP4 PUSH2 0xEA1 PUSH2 0x7BC PUSH2 0x1DCC JUMP JUMPDEST PUSH2 0xEBD JUMPI PUSH1 0x40 MLOAD PUSH3 0x461BCD PUSH1 0xE5 SHL DUP2 MSTORE PUSH1 0x4 ADD PUSH2 0x7DE SWAP1 PUSH2 0x3112 JUMP JUMPDEST PUSH1 0x1 PUSH1 0x1 PUSH1 0xA0 SHL SUB DUP6 DUP2 AND PUSH1 0x0 DUP2 DUP2 MSTORE PUSH1 0xC PUSH1 0x20 SWAP1 DUP2 MSTORE PUSH1 0x40 DUP1 DUP4 KECCAK256 DUP10 DUP5 MSTORE PUSH1 0x1 ADD SWAP1 SWAP2 MSTORE SWAP1 KECCAK256 DUP1 SLOAD PUSH1 0x1 PUSH1 0x1 PUSH1 0xA0 SHL SUB NOT AND SWAP3 DUP7 AND SWAP3 SWAP1 SWAP3 OR SWAP1 SWAP2 SSTORE DUP5 SWAP1 PUSH2 0xF04 PUSH2 0x1DCC JUMP JUMPDEST PUSH1 0x1 PUSH1 0x1 PUSH1 0xA0 SHL SUB AND PUSH32 0x9AB66A7AFD0ACD8C5B217EBE7B3A96046DDD0DDF94495F5E8983F546195CEFDD DUP7 PUSH1 0x40 MLOAD PUSH2 0x858 SWAP2 SWAP1 PUSH2 0x2D2E JUMP JUMPDEST PUSH2 0xA93 DUP4 DUP4 DUP4 PUSH1 0x40 MLOAD DUP1 PUSH1 0x20 ADD PUSH1 0x40 MSTORE DUP1 PUSH1 0x0 DUP2 MSTORE POP PUSH2 0x16F3 JUMP JUMPDEST PUSH1 0x1 PUSH1 0x1 PUSH1 0xA0 SHL SUB DUP3 AND PUSH1 0x0 SWAP1 DUP2 MSTORE PUSH1 0xC PUSH1 0x20 SWAP1 DUP2 MSTORE PUSH1 0x40 DUP1 DUP4 KECCAK256 SWAP1 MLOAD SWAP1 SWAP2 DUP4 SWAP2 PUSH2 0xF84 SWAP2 DUP7 SWAP2 ADD PUSH2 0x2CE3 JUMP JUMPDEST PUSH1 0x40 DUP1 MLOAD DUP1 DUP4 SUB PUSH1 0x1F NOT ADD DUP2 MSTORE SWAP2 DUP2 MSTORE DUP2 MLOAD PUSH1 0x20 SWAP3 DUP4 ADD KECCAK256 DUP4 MSTORE SWAP1 DUP3 ADD SWAP3 SWAP1 SWAP3 MSTORE ADD PUSH1 0x0 KECCAK256 SLOAD PUSH1 0xFF AND SWAP4 SWAP3 POP POP POP JUMP JUMPDEST PUSH1 0x0 DUP3 PUSH1 0x1 PUSH1 0x1 PUSH1 0xA0 SHL SUB AND DUP3 PUSH1 0x1 PUSH1 0x1 PUSH1 0xA0 SHL SUB AND EQ ISZERO PUSH2 0xFD8 JUMPI POP PUSH1 0x1 PUSH2 0xB5D JUMP JUMPDEST PUSH2 0xFE1 DUP3 PUSH2 0x204C JUMP JUMPDEST ISZERO PUSH2 0x10B7 JUMPI PUSH1 0x40 DUP1 MLOAD PUSH1 0x4 DUP2 MSTORE PUSH1 0x24 DUP2 ADD DUP3 MSTORE PUSH1 0x20 DUP2 ADD DUP1 MLOAD PUSH1 0x1 PUSH1 0x1 PUSH1 0xE0 SHL SUB AND PUSH4 0x8DA5CB5B PUSH1 0xE0 SHL OR SWAP1 MSTORE SWAP1 MLOAD PUSH1 0x0 SWAP2 DUP3 SWAP2 PUSH1 0x1 PUSH1 0x1 PUSH1 0xA0 SHL SUB DUP7 AND SWAP2 PUSH2 0x1029 SWAP2 PUSH2 0x2CE3 JUMP JUMPDEST PUSH1 0x0 PUSH1 0x40 MLOAD DUP1 DUP4 SUB DUP2 DUP6 GAS STATICCALL SWAP2 POP POP RETURNDATASIZE DUP1 PUSH1 0x0 DUP2 EQ PUSH2 0x1064 JUMPI PUSH1 0x40 MLOAD SWAP2 POP PUSH1 0x1F NOT PUSH1 0x3F RETURNDATASIZE ADD AND DUP3 ADD PUSH1 0x40 MSTORE RETURNDATASIZE DUP3 MSTORE RETURNDATASIZE PUSH1 0x0 PUSH1 0x20 DUP5 ADD RETURNDATACOPY PUSH2 0x1069 JUMP JUMPDEST PUSH1 0x60 SWAP2 POP JUMPDEST POP SWAP2 POP SWAP2 POP DUP2 ISZERO PUSH2 0x10B4 JUMPI PUSH1 0x0 DUP2 DUP1 PUSH1 0x20 ADD SWAP1 MLOAD DUP2 ADD SWAP1 PUSH2 0x108A SWAP2 SWAP1 PUSH2 0x2811 JUMP JUMPDEST SWAP1 POP DUP6 PUSH1 0x1 PUSH1 0x1 PUSH1 0xA0 SHL SUB AND DUP2 PUSH1 0x1 PUSH1 0x1 PUSH1 0xA0 SHL SUB AND EQ ISZERO PUSH2 0x10B2 JUMPI PUSH1 0x1 SWAP4 POP POP POP POP PUSH2 0xB5D JUMP JUMPDEST POP JUMPDEST POP POP JUMPDEST POP PUSH1 0x0 SWAP3 SWAP2 POP POP JUMP JUMPDEST PUSH1 0x0 PUSH2 0x10CA PUSH2 0xC91 JUMP JUMPDEST DUP3 LT PUSH2 0x10E8 JUMPI PUSH1 0x40 MLOAD PUSH3 0x461BCD PUSH1 0xE5 SHL DUP2 MSTORE PUSH1 0x4 ADD PUSH2 0x7DE SWAP1 PUSH2 0x328B JUMP JUMPDEST PUSH1 0x8 DUP3 DUP2 SLOAD DUP2 LT PUSH2 0x1109 JUMPI PUSH4 0x4E487B71 PUSH1 0xE0 SHL PUSH1 0x0 MSTORE PUSH1 0x32 PUSH1 0x4 MSTORE PUSH1 0x24 PUSH1 0x0 REVERT JUMPDEST SWAP1 PUSH1 0x0 MSTORE PUSH1 0x20 PUSH1 0x0 KECCAK256 ADD SLOAD SWAP1 POP SWAP2 SWAP1 POP JUMP JUMPDEST PUSH1 0x0 PUSH2 0xDD8 DUP5 DUP5 PUSH1 0x40 MLOAD PUSH1 0x20 ADD PUSH2 0x1132 SWAP2 SWAP1 PUSH2 0x2CE3 JUMP JUMPDEST PUSH1 0x40 MLOAD PUSH1 0x20 DUP2 DUP4 SUB SUB DUP2 MSTORE SWAP1 PUSH1 0x40 MSTORE DUP1 MLOAD SWAP1 PUSH1 0x20 ADD KECCAK256 DUP5 PUSH2 0x14ED JUMP JUMPDEST PUSH1 0xA SLOAD PUSH1 0xFF AND SWAP1 JUMP JUMPDEST PUSH1 0x0 PUSH1 0xC PUSH1 0x0 DUP5 PUSH1 0x1 PUSH1 0x1 PUSH1 0xA0 SHL SUB AND PUSH1 0x1 PUSH1 0x1 PUSH1 0xA0 SHL SUB AND DUP2 MSTORE PUSH1 0x20 ADD SWAP1 DUP2 MSTORE PUSH1 0x20 ADD PUSH1 0x0 KECCAK256 PUSH1 0x1 ADD PUSH1 0x0 DUP4 PUSH1 0x40 MLOAD PUSH1 0x20 ADD PUSH2 0x1194 SWAP2 SWAP1 PUSH2 0x2CE3 JUMP JUMPDEST PUSH1 0x40 DUP1 MLOAD DUP1 DUP4 SUB PUSH1 0x1F NOT ADD DUP2 MSTORE SWAP2 DUP2 MSTORE DUP2 MLOAD PUSH1 0x20 SWAP3 DUP4 ADD KECCAK256 DUP4 MSTORE SWAP1 DUP3 ADD SWAP3 SWAP1 SWAP3 MSTORE ADD PUSH1 0x0 KECCAK256 SLOAD PUSH1 0x1 PUSH1 0x1 PUSH1 0xA0 SHL SUB AND SWAP4 SWAP3 POP POP POP JUMP JUMPDEST PUSH1 0x0 DUP2 DUP2 MSTORE PUSH1 0x2 PUSH1 0x20 MSTORE PUSH1 0x40 DUP2 KECCAK256 SLOAD PUSH1 0x1 PUSH1 0x1 PUSH1 0xA0 SHL SUB AND DUP1 PUSH2 0x7A6 JUMPI PUSH1 0x40 MLOAD PUSH3 0x461BCD PUSH1 0xE5 SHL DUP2 MSTORE PUSH1 0x4 ADD PUSH2 0x7DE SWAP1 PUSH2 0x3048 JUMP JUMPDEST PUSH1 0x0 DUP4 PUSH2 0x120D PUSH2 0x7BC PUSH2 0x1DCC JUMP JUMPDEST PUSH2 0x1229 JUMPI PUSH1 0x40 MLOAD PUSH3 0x461BCD PUSH1 0xE5 SHL DUP2 MSTORE PUSH1 0x4 ADD PUSH2 0x7DE SWAP1 PUSH2 0x3112 JUMP JUMPDEST PUSH1 0x1 PUSH1 0x1 PUSH1 0xA0 SHL SUB DUP6 AND PUSH1 0x0 DUP2 DUP2 MSTORE PUSH1 0xC PUSH1 0x20 SWAP1 DUP2 MSTORE PUSH1 0x40 DUP1 DUP4 KECCAK256 DUP9 DUP5 MSTORE PUSH1 0x3 ADD SWAP1 SWAP2 MSTORE SWAP1 KECCAK256 DUP5 SWAP1 SSTORE DUP5 SWAP1 PUSH2 0x125C PUSH2 0x1DCC JUMP JUMPDEST PUSH1 0x1 PUSH1 0x1 PUSH1 0xA0 SHL SUB AND PUSH32 0x6ADEDBED0553C840E64127E9B14CC738A8CF4A7EC57C587C7C4C72BA6A30FFC0 DUP7 PUSH1 0x40 MLOAD PUSH2 0x858 SWAP2 SWAP1 PUSH2 0x2D8A JUMP JUMPDEST PUSH1 0x1 PUSH1 0x1 PUSH1 0xA0 SHL SUB DUP3 AND PUSH1 0x0 SWAP1 DUP2 MSTORE PUSH1 0xC PUSH1 0x20 SWAP1 DUP2 MSTORE PUSH1 0x40 DUP1 DUP4 KECCAK256 DUP5 DUP5 MSTORE PUSH1 0x5 ADD SWAP1 SWAP2 MSTORE SWAP1 KECCAK256 DUP1 SLOAD PUSH1 0x60 SWAP2 SWAP1 PUSH2 0x12C9 SWAP1 PUSH2 0x3346 JUMP JUMPDEST DUP1 PUSH1 0x1F ADD PUSH1 0x20 DUP1 SWAP2 DIV MUL PUSH1 0x20 ADD PUSH1 0x40 MLOAD SWAP1 DUP2 ADD PUSH1 0x40 MSTORE DUP1 SWAP3 SWAP2 SWAP1 DUP2 DUP2 MSTORE PUSH1 0x20 ADD DUP3 DUP1 SLOAD PUSH2 0x12F5 SWAP1 PUSH2 0x3346 JUMP JUMPDEST DUP1 ISZERO PUSH2 0x1342 JUMPI DUP1 PUSH1 0x1F LT PUSH2 0x1317 JUMPI PUSH2 0x100 DUP1 DUP4 SLOAD DIV MUL DUP4 MSTORE SWAP2 PUSH1 0x20 ADD SWAP2 PUSH2 0x1342 JUMP JUMPDEST DUP3 ADD SWAP2 SWAP1 PUSH1 0x0 MSTORE PUSH1 0x20 PUSH1 0x0 KECCAK256 SWAP1 JUMPDEST DUP2 SLOAD DUP2 MSTORE SWAP1 PUSH1 0x1 ADD SWAP1 PUSH1 0x20 ADD DUP1 DUP4 GT PUSH2 0x1325 JUMPI DUP3 SWAP1 SUB PUSH1 0x1F AND DUP3 ADD SWAP2 JUMPDEST POP POP POP POP POP SWAP1 POP SWAP3 SWAP2 POP POP JUMP JUMPDEST PUSH1 0x0 PUSH2 0xDD8 DUP5 DUP5 PUSH1 0x40 MLOAD PUSH1 0x20 ADD PUSH2 0x1366 SWAP2 SWAP1 PUSH2 0x2CE3 JUMP JUMPDEST PUSH1 0x40 MLOAD PUSH1 0x20 DUP2 DUP4 SUB SUB DUP2 MSTORE SWAP1 PUSH1 0x40 MSTORE DUP1 MLOAD SWAP1 PUSH1 0x20 ADD KECCAK256 DUP5 PUSH2 0x13C6 JUMP JUMPDEST PUSH1 0x0 PUSH1 0x1 PUSH1 0x1 PUSH1 0xA0 SHL SUB DUP3 AND PUSH2 0x13AA JUMPI PUSH1 0x40 MLOAD PUSH3 0x461BCD PUSH1 0xE5 SHL DUP2 MSTORE PUSH1 0x4 ADD PUSH2 0x7DE SWAP1 PUSH2 0x2FFE JUMP JUMPDEST POP PUSH1 0x1 PUSH1 0x1 PUSH1 0xA0 SHL SUB AND PUSH1 0x0 SWAP1 DUP2 MSTORE PUSH1 0x3 PUSH1 0x20 MSTORE PUSH1 0x40 SWAP1 KECCAK256 SLOAD SWAP1 JUMP JUMPDEST PUSH1 0x0 DUP4 PUSH2 0x13D4 PUSH2 0x7BC PUSH2 0x1DCC JUMP JUMPDEST PUSH2 0x13F0 JUMPI PUSH1 0x40 MLOAD PUSH3 0x461BCD PUSH1 0xE5 SHL DUP2 MSTORE PUSH1 0x4 ADD PUSH2 0x7DE SWAP1 PUSH2 0x3112 JUMP JUMPDEST PUSH1 0x1 PUSH1 0x1 PUSH1 0xA0 SHL SUB DUP6 AND PUSH1 0x0 DUP2 DUP2 MSTORE PUSH1 0xC PUSH1 0x20 SWAP1 DUP2 MSTORE PUSH1 0x40 DUP1 DUP4 KECCAK256 DUP9 DUP5 MSTORE PUSH1 0x2 ADD SWAP1 SWAP2 MSTORE SWAP1 KECCAK256 DUP5 SWAP1 SSTORE DUP5 SWAP1 PUSH2 0x1423 PUSH2 0x1DCC JUMP JUMPDEST PUSH1 0x1 PUSH1 0x1 PUSH1 0xA0 SHL SUB AND PUSH32 0x515C5CB2D6A18401C0DB4CBF521AE573AA279304D12C95651E656E45CDFF5128 DUP7 PUSH1 0x40 MLOAD PUSH2 0x918 SWAP2 SWAP1 PUSH2 0x2D8A JUMP JUMPDEST PUSH1 0x0 PUSH2 0xDD8 DUP5 DUP5 PUSH1 0x40 MLOAD PUSH1 0x20 ADD PUSH2 0x1472 SWAP2 SWAP1 PUSH2 0x2CE3 JUMP JUMPDEST PUSH1 0x40 MLOAD PUSH1 0x20 DUP2 DUP4 SUB SUB DUP2 MSTORE SWAP1 PUSH1 0x40 MSTORE DUP1 MLOAD SWAP1 PUSH1 0x20 ADD KECCAK256 DUP5 PUSH2 0xC97 JUMP JUMPDEST PUSH1 0x1 PUSH1 0x1 PUSH1 0xA0 SHL SUB SWAP2 DUP3 AND PUSH1 0x0 SWAP1 DUP2 MSTORE PUSH1 0xC PUSH1 0x20 SWAP1 DUP2 MSTORE PUSH1 0x40 DUP1 DUP4 KECCAK256 SWAP4 DUP4 MSTORE PUSH1 0x1 SWAP1 SWAP4 ADD SWAP1 MSTORE KECCAK256 SLOAD AND SWAP1 JUMP JUMPDEST PUSH1 0x0 PUSH2 0xDD8 DUP5 DUP5 PUSH1 0x40 MLOAD PUSH1 0x20 ADD PUSH2 0x14D1 SWAP2 SWAP1 PUSH2 0x2CE3 JUMP JUMPDEST PUSH1 0x40 MLOAD PUSH1 0x20 DUP2 DUP4 SUB SUB DUP2 MSTORE SWAP1 PUSH1 0x40 MSTORE DUP1 MLOAD SWAP1 PUSH1 0x20 ADD KECCAK256 DUP5 PUSH2 0x7AE JUMP JUMPDEST PUSH1 0x0 DUP4 PUSH2 0x14FB PUSH2 0x7BC PUSH2 0x1DCC JUMP JUMPDEST PUSH2 0x1517 JUMPI PUSH1 0x40 MLOAD PUSH3 0x461BCD PUSH1 0xE5 SHL DUP2 MSTORE PUSH1 0x4 ADD PUSH2 0x7DE SWAP1 PUSH2 0x3112 JUMP JUMPDEST PUSH1 0x1 PUSH1 0x1 PUSH1 0xA0 SHL SUB DUP6 AND PUSH1 0x0 DUP2 DUP2 MSTORE PUSH1 0xC PUSH1 0x20 SWAP1 DUP2 MSTORE PUSH1 0x40 DUP1 DUP4 KECCAK256 DUP9 DUP5 MSTORE PUSH1 0x6 ADD SWAP1 SWAP2 MSTORE SWAP1 KECCAK256 DUP5 SWAP1 SSTORE DUP5 SWAP1 PUSH2 0x154A PUSH2 0x1DCC JUMP JUMPDEST PUSH1 0x1 PUSH1 0x1 PUSH1 0xA0 SHL SUB AND PUSH32 0xF95B41278B70D73C1D109802FFDE79F632FDAC6FB868B4ACFAA9DCA3045E11E8 DUP7 PUSH1 0x40 MLOAD PUSH2 0x858 SWAP2 SWAP1 PUSH2 0x2D8A JUMP JUMPDEST PUSH1 0x1 PUSH1 0x1 PUSH1 0xA0 SHL SUB SWAP2 SWAP1 SWAP2 AND PUSH1 0x0 SWAP1 DUP2 MSTORE PUSH1 0xC PUSH1 0x20 SWAP1 DUP2 MSTORE PUSH1 0x40 DUP1 DUP4 KECCAK256 SWAP4 DUP4 MSTORE PUSH1 0x2 SWAP1 SWAP4 ADD SWAP1 MSTORE KECCAK256 SLOAD SWAP1 JUMP JUMPDEST PUSH1 0x60 PUSH1 0x1 DUP1 SLOAD PUSH2 0x93A SWAP1 PUSH2 0x3346 JUMP JUMPDEST PUSH1 0x1 PUSH1 0x1 PUSH1 0xA0 SHL SUB SWAP2 SWAP1 SWAP2 AND PUSH1 0x0 SWAP1 DUP2 MSTORE PUSH1 0xC PUSH1 0x20 SWAP1 DUP2 MSTORE PUSH1 0x40 DUP1 DUP4 KECCAK256 SWAP4 DUP4 MSTORE SWAP3 SWAP1 MSTORE KECCAK256 SLOAD PUSH1 0xFF AND SWAP1 JUMP JUMPDEST PUSH1 0x0 PUSH1 0xC PUSH1 0x0 DUP5 PUSH1 0x1 PUSH1 0x1 PUSH1 0xA0 SHL SUB AND PUSH1 0x1 PUSH1 0x1 PUSH1 0xA0 SHL SUB AND DUP2 MSTORE PUSH1 0x20 ADD SWAP1 DUP2 MSTORE PUSH1 0x20 ADD PUSH1 0x0 KECCAK256 PUSH1 0x2 ADD PUSH1 0x0 DUP4 PUSH1 0x40 MLOAD PUSH1 0x20 ADD PUSH2 0xBA0 SWAP2 SWAP1 PUSH2 0x2CE3 JUMP JUMPDEST PUSH2 0x162D PUSH2 0x1DCC JUMP JUMPDEST PUSH1 0x1 PUSH1 0x1 PUSH1 0xA0 SHL SUB AND DUP3 PUSH1 0x1 PUSH1 0x1 PUSH1 0xA0 SHL SUB AND EQ ISZERO PUSH2 0x165E JUMPI PUSH1 0x40 MLOAD PUSH3 0x461BCD PUSH1 0xE5 SHL DUP2 MSTORE PUSH1 0x4 ADD PUSH2 0x7DE SWAP1 PUSH2 0x2F1E JUMP JUMPDEST DUP1 PUSH1 0x5 PUSH1 0x0 PUSH2 0x166B PUSH2 0x1DCC JUMP JUMPDEST PUSH1 0x1 PUSH1 0x1 PUSH1 0xA0 SHL SUB SWAP1 DUP2 AND DUP3 MSTORE PUSH1 0x20 DUP1 DUP4 ADD SWAP4 SWAP1 SWAP4 MSTORE PUSH1 0x40 SWAP2 DUP3 ADD PUSH1 0x0 SWAP1 DUP2 KECCAK256 SWAP2 DUP8 AND DUP1 DUP3 MSTORE SWAP2 SWAP1 SWAP4 MSTORE SWAP2 KECCAK256 DUP1 SLOAD PUSH1 0xFF NOT AND SWAP3 ISZERO ISZERO SWAP3 SWAP1 SWAP3 OR SWAP1 SWAP2 SSTORE PUSH2 0x16AF PUSH2 0x1DCC JUMP JUMPDEST PUSH1 0x1 PUSH1 0x1 PUSH1 0xA0 SHL SUB AND PUSH32 0x17307EAB39AB6107E8899845AD3D59BD9653F200F220920489CA2B5937696C31 DUP4 PUSH1 0x40 MLOAD PUSH2 0x16E7 SWAP2 SWAP1 PUSH2 0x2D7F JUMP JUMPDEST PUSH1 0x40 MLOAD DUP1 SWAP2 SUB SWAP1 LOG3 POP POP JUMP JUMPDEST PUSH2 0x1704 PUSH2 0x16FE PUSH2 0x1DCC JUMP JUMPDEST DUP4 PUSH2 0x1EA2 JUMP JUMPDEST PUSH2 0x1720 JUMPI PUSH1 0x40 MLOAD PUSH3 0x461BCD PUSH1 0xE5 SHL DUP2 MSTORE PUSH1 0x4 ADD PUSH2 0x7DE SWAP1 PUSH2 0x323A JUMP JUMPDEST PUSH2 0x172C DUP5 DUP5 DUP5 DUP5 PUSH2 0x2052 JUMP JUMPDEST POP POP POP POP JUMP JUMPDEST PUSH1 0x60 PUSH1 0xC PUSH1 0x0 DUP5 PUSH1 0x1 PUSH1 0x1 PUSH1 0xA0 SHL SUB AND PUSH1 0x1 PUSH1 0x1 PUSH1 0xA0 SHL SUB AND DUP2 MSTORE PUSH1 0x20 ADD SWAP1 DUP2 MSTORE PUSH1 0x20 ADD PUSH1 0x0 KECCAK256 PUSH1 0x5 ADD PUSH1 0x0 DUP4 PUSH1 0x40 MLOAD PUSH1 0x20 ADD PUSH2 0x176F SWAP2 SWAP1 PUSH2 0x2CE3 JUMP JUMPDEST PUSH1 0x40 MLOAD PUSH1 0x20 DUP2 DUP4 SUB SUB DUP2 MSTORE SWAP1 PUSH1 0x40 MSTORE DUP1 MLOAD SWAP1 PUSH1 0x20 ADD KECCAK256 DUP2 MSTORE PUSH1 0x20 ADD SWAP1 DUP2 MSTORE PUSH1 0x20 ADD PUSH1 0x0 KECCAK256 DUP1 SLOAD PUSH2 0x12C9 SWAP1 PUSH2 0x3346 JUMP JUMPDEST PUSH1 0x60 PUSH2 0x17A9 DUP3 PUSH2 0x1E17 JUMP JUMPDEST PUSH2 0x17C5 JUMPI PUSH1 0x40 MLOAD PUSH3 0x461BCD PUSH1 0xE5 SHL DUP2 MSTORE PUSH1 0x4 ADD PUSH2 0x7DE SWAP1 PUSH2 0x31AA JUMP JUMPDEST PUSH1 0x0 PUSH2 0x17CF PUSH2 0x2085 JUMP JUMPDEST SWAP1 POP PUSH1 0x0 DUP2 MLOAD GT PUSH2 0x17EF JUMPI PUSH1 0x40 MLOAD DUP1 PUSH1 0x20 ADD PUSH1 0x40 MSTORE DUP1 PUSH1 0x0 DUP2 MSTORE POP PUSH2 0x181A JUMP JUMPDEST DUP1 PUSH2 0x17F9 DUP5 PUSH2 0x2094 JUMP JUMPDEST PUSH1 0x40 MLOAD PUSH1 0x20 ADD PUSH2 0x180A SWAP3 SWAP2 SWAP1 PUSH2 0x2CFF JUMP JUMPDEST PUSH1 0x40 MLOAD PUSH1 0x20 DUP2 DUP4 SUB SUB DUP2 MSTORE SWAP1 PUSH1 0x40 MSTORE JUMPDEST SWAP4 SWAP3 POP POP POP JUMP JUMPDEST PUSH1 0x0 DUP3 PUSH2 0x182F PUSH2 0x7BC PUSH2 0x1DCC JUMP JUMPDEST PUSH2 0x184B JUMPI PUSH1 0x40 MLOAD PUSH3 0x461BCD PUSH1 0xE5 SHL DUP2 MSTORE PUSH1 0x4 ADD PUSH2 0x7DE SWAP1 PUSH2 0x3112 JUMP JUMPDEST PUSH1 0x1 PUSH1 0x1 PUSH1 0xA0 SHL SUB DUP5 AND PUSH1 0x0 SWAP1 DUP2 MSTORE PUSH1 0xC PUSH1 0x20 SWAP1 DUP2 MSTORE PUSH1 0x40 DUP1 DUP4 KECCAK256 DUP7 DUP5 MSTORE PUSH1 0x4 ADD SWAP1 SWAP2 MSTORE DUP2 KECCAK256 DUP1 SLOAD PUSH2 0x187C SWAP1 PUSH2 0x3346 JUMP JUMPDEST DUP1 PUSH1 0x1F ADD PUSH1 0x20 DUP1 SWAP2 DIV MUL PUSH1 0x20 ADD PUSH1 0x40 MLOAD SWAP1 DUP2 ADD PUSH1 0x40 MSTORE DUP1 SWAP3 SWAP2 SWAP1 DUP2 DUP2 MSTORE PUSH1 0x20 ADD DUP3 DUP1 SLOAD PUSH2 0x18A8 SWAP1 PUSH2 0x3346 JUMP JUMPDEST DUP1 ISZERO PUSH2 0x18F5 JUMPI DUP1 PUSH1 0x1F LT PUSH2 0x18CA JUMPI PUSH2 0x100 DUP1 DUP4 SLOAD DIV MUL DUP4 MSTORE SWAP2 PUSH1 0x20 ADD SWAP2 PUSH2 0x18F5 JUMP JUMPDEST DUP3 ADD SWAP2 SWAP1 PUSH1 0x0 MSTORE PUSH1 0x20 PUSH1 0x0 KECCAK256 SWAP1 JUMPDEST DUP2 SLOAD DUP2 MSTORE SWAP1 PUSH1 0x1 ADD SWAP1 PUSH1 0x20 ADD DUP1 DUP4 GT PUSH2 0x18D8 JUMPI DUP3 SWAP1 SUB PUSH1 0x1F AND DUP3 ADD SWAP2 JUMPDEST POP POP POP POP PUSH1 0x1 PUSH1 0x1 PUSH1 0xA0 SHL SUB DUP8 AND PUSH1 0x0 DUP2 DUP2 MSTORE PUSH1 0xC PUSH1 0x20 SWAP1 DUP2 MSTORE PUSH1 0x40 DUP1 DUP4 KECCAK256 DUP11 DUP5 MSTORE PUSH1 0x6 ADD SWAP1 SWAP2 MSTORE DUP2 KECCAK256 SSTORE SWAP2 SWAP3 POP DUP6 SWAP2 SWAP1 POP PUSH2 0x192F PUSH2 0x1DCC JUMP JUMPDEST PUSH1 0x1 PUSH1 0x1 PUSH1 0xA0 SHL SUB AND PUSH32 0x11C772F0EF83410C24FE7254AB7AE10C0B0325DB299D5D5720CC89BA7557A094 DUP5 PUSH1 0x40 MLOAD PUSH2 0x918 SWAP2 SWAP1 PUSH2 0x2DA8 JUMP JUMPDEST PUSH1 0x1 PUSH1 0x1 PUSH1 0xA0 SHL SUB DUP3 AND PUSH1 0x0 SWAP1 DUP2 MSTORE PUSH1 0xC PUSH1 0x20 SWAP1 DUP2 MSTORE PUSH1 0x40 DUP1 DUP4 KECCAK256 DUP5 DUP5 MSTORE PUSH1 0x4 ADD SWAP1 SWAP2 MSTORE SWAP1 KECCAK256 DUP1 SLOAD PUSH1 0x60 SWAP2 SWAP1 PUSH2 0x12C9 SWAP1 PUSH2 0x3346 JUMP JUMPDEST PUSH1 0x0 PUSH2 0xDD8 DUP5 DUP5 PUSH1 0x40 MLOAD PUSH1 0x20 ADD PUSH2 0x19B3 SWAP2 SWAP1 PUSH2 0x2CE3 JUMP JUMPDEST PUSH1 0x40 MLOAD PUSH1 0x20 DUP2 DUP4 SUB SUB DUP2 MSTORE SWAP1 PUSH1 0x40 MSTORE DUP1 MLOAD SWAP1 PUSH1 0x20 ADD KECCAK256 DUP5 PUSH2 0x1AA0 JUMP JUMPDEST PUSH1 0x1 PUSH1 0x1 PUSH1 0xA0 SHL SUB SWAP2 DUP3 AND PUSH1 0x0 SWAP1 DUP2 MSTORE PUSH1 0x5 PUSH1 0x20 SWAP1 DUP2 MSTORE PUSH1 0x40 DUP1 DUP4 KECCAK256 SWAP4 SWAP1 SWAP5 AND DUP3 MSTORE SWAP2 SWAP1 SWAP2 MSTORE KECCAK256 SLOAD PUSH1 0xFF AND SWAP1 JUMP JUMPDEST PUSH1 0x0 DUP3 PUSH2 0x1A0B PUSH2 0x7BC PUSH2 0x1DCC JUMP JUMPDEST PUSH2 0x1A27 JUMPI PUSH1 0x40 MLOAD PUSH3 0x461BCD PUSH1 0xE5 SHL DUP2 MSTORE PUSH1 0x4 ADD PUSH2 0x7DE SWAP1 PUSH2 0x3112 JUMP JUMPDEST PUSH1 0x1 PUSH1 0x1 PUSH1 0xA0 SHL SUB DUP5 AND PUSH1 0x0 DUP2 DUP2 MSTORE PUSH1 0xC PUSH1 0x20 SWAP1 DUP2 MSTORE PUSH1 0x40 DUP1 DUP4 KECCAK256 DUP8 DUP5 MSTORE PUSH1 0x2 DUP2 ADD DUP4 MSTORE DUP2 DUP5 KECCAK256 SLOAD PUSH1 0x6 SWAP1 SWAP2 ADD SWAP1 SWAP3 MSTORE DUP3 KECCAK256 SWAP2 SWAP1 SWAP2 SSTORE SWAP1 DUP5 SWAP1 PUSH2 0x1A68 PUSH2 0x1DCC JUMP JUMPDEST PUSH1 0x1 PUSH1 0x1 PUSH1 0xA0 SHL SUB AND PUSH32 0x7836F712669F75559B636C022B1F33725270C9C4666A98106E720EEBBCE9D670 DUP5 PUSH1 0x40 MLOAD PUSH2 0x918 SWAP2 SWAP1 PUSH2 0x2D8A JUMP JUMPDEST PUSH1 0x0 DUP4 PUSH2 0x1AAE PUSH2 0x7BC PUSH2 0x1DCC JUMP JUMPDEST PUSH2 0x1ACA JUMPI PUSH1 0x40 MLOAD PUSH3 0x461BCD PUSH1 0xE5 SHL DUP2 MSTORE PUSH1 0x4 ADD PUSH2 0x7DE SWAP1 PUSH2 0x3112 JUMP JUMPDEST PUSH1 0x1 PUSH1 0x1 PUSH1 0xA0 SHL SUB DUP6 AND PUSH1 0x0 SWAP1 DUP2 MSTORE PUSH1 0xC PUSH1 0x20 SWAP1 DUP2 MSTORE PUSH1 0x40 DUP1 DUP4 KECCAK256 DUP8 DUP5 MSTORE PUSH1 0x5 ADD DUP3 MSTORE SWAP1 SWAP2 KECCAK256 DUP5 MLOAD PUSH2 0x1AFE SWAP3 DUP7 ADD SWAP1 PUSH2 0x26CB JUMP JUMPDEST POP DUP4 DUP6 PUSH1 0x1 PUSH1 0x1 PUSH1 0xA0 SHL SUB AND PUSH2 0x1B12 PUSH2 0x1DCC JUMP JUMPDEST PUSH1 0x1 PUSH1 0x1 PUSH1 0xA0 SHL SUB AND PUSH32 0x9D54E3141B21A6D7A1CE81E97EA38485CF5209C4D5C8506DFF78986CD9937A22 DUP7 PUSH1 0x40 MLOAD PUSH2 0x858 SWAP2 SWAP1 PUSH2 0x2DA8 JUMP JUMPDEST PUSH1 0x0 DUP3 PUSH2 0x1B58 PUSH2 0x7BC PUSH2 0x1DCC JUMP JUMPDEST PUSH2 0x1B74 JUMPI PUSH1 0x40 MLOAD PUSH3 0x461BCD PUSH1 0xE5 SHL DUP2 MSTORE PUSH1 0x4 ADD PUSH2 0x7DE SWAP1 PUSH2 0x3112 JUMP JUMPDEST PUSH1 0x1 PUSH1 0x1 PUSH1 0xA0 SHL SUB DUP5 DUP2 AND PUSH1 0x0 DUP2 DUP2 MSTORE PUSH1 0xC PUSH1 0x20 SWAP1 DUP2 MSTORE PUSH1 0x40 DUP1 DUP4 KECCAK256 DUP9 DUP5 MSTORE PUSH1 0x1 DUP2 ADD DUP4 MSTORE DUP2 DUP5 KECCAK256 SLOAD PUSH1 0x6 SWAP1 SWAP2 ADD SWAP1 SWAP3 MSTORE DUP3 KECCAK256 SWAP2 SWAP1 SWAP2 SSTORE SWAP1 SWAP2 AND SWAP1 DUP5 SWAP1 PUSH2 0x1BB9 PUSH2 0x1DCC JUMP JUMPDEST PUSH1 0x1 PUSH1 0x1 PUSH1 0xA0 SHL SUB AND PUSH32 0xB0F90A705D9E5F778F1939E884F852ACD834CFD27BE5B656BC8D220440CC1371 DUP5 PUSH1 0x40 MLOAD PUSH2 0x918 SWAP2 SWAP1 PUSH2 0x2D2E JUMP JUMPDEST PUSH1 0x60 PUSH1 0xC PUSH1 0x0 DUP5 PUSH1 0x1 PUSH1 0x1 PUSH1 0xA0 SHL SUB AND PUSH1 0x1 PUSH1 0x1 PUSH1 0xA0 SHL SUB AND DUP2 MSTORE PUSH1 0x20 ADD SWAP1 DUP2 MSTORE PUSH1 0x20 ADD PUSH1 0x0 KECCAK256 PUSH1 0x4 ADD PUSH1 0x0 DUP4 PUSH1 0x40 MLOAD PUSH1 0x20 ADD PUSH2 0x176F SWAP2 SWAP1 PUSH2 0x2CE3 JUMP JUMPDEST PUSH1 0x0 PUSH2 0xDD8 DUP5 DUP5 PUSH1 0x40 MLOAD PUSH1 0x20 ADD PUSH2 0x1C45 SWAP2 SWAP1 PUSH2 0x2CE3 JUMP JUMPDEST PUSH1 0x40 MLOAD PUSH1 0x20 DUP2 DUP4 SUB SUB DUP2 MSTORE SWAP1 PUSH1 0x40 MSTORE DUP1 MLOAD SWAP1 PUSH1 0x20 ADD KECCAK256 DUP5 PUSH2 0xE93 JUMP JUMPDEST PUSH1 0x0 DUP3 PUSH2 0x1C6F PUSH2 0x7BC PUSH2 0x1DCC JUMP JUMPDEST PUSH2 0x1C8B JUMPI PUSH1 0x40 MLOAD PUSH3 0x461BCD PUSH1 0xE5 SHL DUP2 MSTORE PUSH1 0x4 ADD PUSH2 0x7DE SWAP1 PUSH2 0x3112 JUMP JUMPDEST PUSH1 0x1 PUSH1 0x1 PUSH1 0xA0 SHL SUB DUP5 AND PUSH1 0x0 SWAP1 DUP2 MSTORE PUSH1 0xC PUSH1 0x20 SWAP1 DUP2 MSTORE PUSH1 0x40 DUP1 DUP4 KECCAK256 DUP7 DUP5 MSTORE PUSH1 0x5 ADD SWAP1 SWAP2 MSTORE DUP2 KECCAK256 DUP1 SLOAD PUSH2 0x1CBC SWAP1 PUSH2 0x3346 JUMP JUMPDEST DUP1 PUSH1 0x1F ADD PUSH1 0x20 DUP1 SWAP2 DIV MUL PUSH1 0x20 ADD PUSH1 0x40 MLOAD SWAP1 DUP2 ADD PUSH1 0x40 MSTORE DUP1 SWAP3 SWAP2 SWAP1 DUP2 DUP2 MSTORE PUSH1 0x20 ADD DUP3 DUP1 SLOAD PUSH2 0x1CE8 SWAP1 PUSH2 0x3346 JUMP JUMPDEST DUP1 ISZERO PUSH2 0x1D35 JUMPI DUP1 PUSH1 0x1F LT PUSH2 0x1D0A JUMPI PUSH2 0x100 DUP1 DUP4 SLOAD DIV MUL DUP4 MSTORE SWAP2 PUSH1 0x20 ADD SWAP2 PUSH2 0x1D35 JUMP JUMPDEST DUP3 ADD SWAP2 SWAP1 PUSH1 0x0 MSTORE PUSH1 0x20 PUSH1 0x0 KECCAK256 SWAP1 JUMPDEST DUP2 SLOAD DUP2 MSTORE SWAP1 PUSH1 0x1 ADD SWAP1 PUSH1 0x20 ADD DUP1 DUP4 GT PUSH2 0x1D18 JUMPI DUP3 SWAP1 SUB PUSH1 0x1F AND DUP3 ADD SWAP2 JUMPDEST POP POP POP POP PUSH1 0x1 PUSH1 0x1 PUSH1 0xA0 SHL SUB DUP8 AND PUSH1 0x0 DUP2 DUP2 MSTORE PUSH1 0xC PUSH1 0x20 SWAP1 DUP2 MSTORE PUSH1 0x40 DUP1 DUP4 KECCAK256 DUP11 DUP5 MSTORE PUSH1 0x6 ADD SWAP1 SWAP2 MSTORE DUP2 KECCAK256 SSTORE SWAP2 SWAP3 POP DUP6 SWAP2 SWAP1 POP PUSH2 0x1D6F PUSH2 0x1DCC JUMP JUMPDEST PUSH1 0x1 PUSH1 0x1 PUSH1 0xA0 SHL SUB AND PUSH32 0x9603B13721BA50674B5E47A223A396590472F70DA883CC5AC3FC24EF0A90C9C3 DUP5 PUSH1 0x40 MLOAD PUSH2 0x918 SWAP2 SWAP1 PUSH2 0x2DA8 JUMP JUMPDEST PUSH1 0x0 PUSH1 0x1 PUSH1 0x1 PUSH1 0xE0 SHL SUB NOT DUP3 AND PUSH4 0x780E9D63 PUSH1 0xE0 SHL EQ DUP1 PUSH2 0x7A6 JUMPI POP PUSH2 0x7A6 DUP3 PUSH2 0x21AF JUMP JUMPDEST CALLER SWAP1 JUMP JUMPDEST PUSH1 0x0 DUP3 DUP3 PUSH1 0x40 MLOAD PUSH1 0x20 ADD PUSH2 0x1DE5 SWAP3 SWAP2 SWAP1 PUSH2 0x2CC1 JUMP JUMPDEST PUSH1 0x40 MLOAD PUSH1 0x20 DUP2 DUP4 SUB SUB DUP2 MSTORE SWAP1 PUSH1 0x40 MSTORE DUP1 MLOAD SWAP1 PUSH1 0x20 ADD KECCAK256 PUSH1 0x0 SHR SWAP1 POP PUSH2 0x1E09 DUP2 PUSH2 0x1E17 JUMP JUMPDEST PUSH2 0xA93 JUMPI PUSH2 0xA93 DUP4 DUP3 PUSH2 0x21EF JUMP JUMPDEST PUSH1 0x0 SWAP1 DUP2 MSTORE PUSH1 0x2 PUSH1 0x20 MSTORE PUSH1 0x40 SWAP1 KECCAK256 SLOAD PUSH1 0x1 PUSH1 0x1 PUSH1 0xA0 SHL SUB AND ISZERO ISZERO SWAP1 JUMP JUMPDEST PUSH1 0x0 DUP2 DUP2 MSTORE PUSH1 0x4 PUSH1 0x20 MSTORE PUSH1 0x40 SWAP1 KECCAK256 DUP1 SLOAD PUSH1 0x1 PUSH1 0x1 PUSH1 0xA0 SHL SUB NOT AND PUSH1 0x1 PUSH1 0x1 PUSH1 0xA0 SHL SUB DUP5 AND SWAP1 DUP2 OR SWAP1 SWAP2 SSTORE DUP2 SWAP1 PUSH2 0x1E69 DUP3 PUSH2 0x11CA JUMP JUMPDEST PUSH1 0x1 PUSH1 0x1 PUSH1 0xA0 SHL SUB AND PUSH32 0x8C5BE1E5EBEC7D5BD14F71427D1E84F3DD0314C0F7B2291E5B200AC8C7C3B925 PUSH1 0x40 MLOAD PUSH1 0x40 MLOAD DUP1 SWAP2 SUB SWAP1 LOG4 POP POP JUMP JUMPDEST PUSH1 0x0 PUSH2 0x1EAD DUP3 PUSH2 0x1E17 JUMP JUMPDEST PUSH2 0x1EC9 JUMPI PUSH1 0x40 MLOAD PUSH3 0x461BCD PUSH1 0xE5 SHL DUP2 MSTORE PUSH1 0x4 ADD PUSH2 0x7DE SWAP1 PUSH2 0x2F55 JUMP JUMPDEST PUSH1 0x0 PUSH2 0x1ED4 DUP4 PUSH2 0x11CA JUMP JUMPDEST SWAP1 POP DUP1 PUSH1 0x1 PUSH1 0x1 PUSH1 0xA0 SHL SUB AND DUP5 PUSH1 0x1 PUSH1 0x1 PUSH1 0xA0 SHL SUB AND EQ DUP1 PUSH2 0x1F0F JUMPI POP DUP4 PUSH1 0x1 PUSH1 0x1 PUSH1 0xA0 SHL SUB AND PUSH2 0x1F04 DUP5 PUSH2 0x9BD JUMP JUMPDEST PUSH1 0x1 PUSH1 0x1 PUSH1 0xA0 SHL SUB AND EQ JUMPDEST DUP1 PUSH2 0xDD8 JUMPI POP PUSH2 0xDD8 DUP2 DUP6 PUSH2 0x19CF JUMP JUMPDEST DUP3 PUSH1 0x1 PUSH1 0x1 PUSH1 0xA0 SHL SUB AND PUSH2 0x1F32 DUP3 PUSH2 0x11CA JUMP JUMPDEST PUSH1 0x1 PUSH1 0x1 PUSH1 0xA0 SHL SUB AND EQ PUSH2 0x1F58 JUMPI PUSH1 0x40 MLOAD PUSH3 0x461BCD PUSH1 0xE5 SHL DUP2 MSTORE PUSH1 0x4 ADD PUSH2 0x7DE SWAP1 PUSH2 0x3161 JUMP JUMPDEST PUSH1 0x1 PUSH1 0x1 PUSH1 0xA0 SHL SUB DUP3 AND PUSH2 0x1F7E JUMPI PUSH1 0x40 MLOAD PUSH3 0x461BCD PUSH1 0xE5 SHL DUP2 MSTORE PUSH1 0x4 ADD PUSH2 0x7DE SWAP1 PUSH2 0x2EDA JUMP JUMPDEST PUSH2 0x1F89 DUP4 DUP4 DUP4 PUSH2 0x22CE JUMP JUMPDEST PUSH2 0x1F94 PUSH1 0x0 DUP3 PUSH2 0x1E34 JUMP JUMPDEST PUSH1 0x1 PUSH1 0x1 PUSH1 0xA0 SHL SUB DUP4 AND PUSH1 0x0 SWAP1 DUP2 MSTORE PUSH1 0x3 PUSH1 0x20 MSTORE PUSH1 0x40 DUP2 KECCAK256 DUP1 SLOAD PUSH1 0x1 SWAP3 SWAP1 PUSH2 0x1FBD SWAP1 DUP5 SWAP1 PUSH2 0x3303 JUMP JUMPDEST SWAP1 SWAP2 SSTORE POP POP PUSH1 0x1 PUSH1 0x1 PUSH1 0xA0 SHL SUB DUP3 AND PUSH1 0x0 SWAP1 DUP2 MSTORE PUSH1 0x3 PUSH1 0x20 MSTORE PUSH1 0x40 DUP2 KECCAK256 DUP1 SLOAD PUSH1 0x1 SWAP3 SWAP1 PUSH2 0x1FEB SWAP1 DUP5 SWAP1 PUSH2 0x32D7 JUMP JUMPDEST SWAP1 SWAP2 SSTORE POP POP PUSH1 0x0 DUP2 DUP2 MSTORE PUSH1 0x2 PUSH1 0x20 MSTORE PUSH1 0x40 DUP1 DUP3 KECCAK256 DUP1 SLOAD PUSH1 0x1 PUSH1 0x1 PUSH1 0xA0 SHL SUB NOT AND PUSH1 0x1 PUSH1 0x1 PUSH1 0xA0 SHL SUB DUP7 DUP2 AND SWAP2 DUP3 OR SWAP1 SWAP3 SSTORE SWAP2 MLOAD DUP5 SWAP4 SWAP2 DUP8 AND SWAP2 PUSH32 0xDDF252AD1BE2C89B69C2B068FC378DAA952BA7F163C4A11628F55A4DF523B3EF SWAP2 LOG4 POP POP POP JUMP JUMPDEST EXTCODESIZE ISZERO ISZERO SWAP1 JUMP JUMPDEST PUSH2 0x205D DUP5 DUP5 DUP5 PUSH2 0x1F1F JUMP JUMPDEST PUSH2 0x2069 DUP5 DUP5 DUP5 DUP5 PUSH2 0x22D9 JUMP JUMPDEST PUSH2 0x172C JUMPI PUSH1 0x40 MLOAD PUSH3 0x461BCD PUSH1 0xE5 SHL DUP2 MSTORE PUSH1 0x4 ADD PUSH2 0x7DE SWAP1 PUSH2 0x2E51 JUMP JUMPDEST PUSH1 0x60 PUSH1 0xB DUP1 SLOAD PUSH2 0x93A SWAP1 PUSH2 0x3346 JUMP JUMPDEST PUSH1 0x60 DUP2 PUSH2 0x20B9 JUMPI POP PUSH1 0x40 DUP1 MLOAD DUP1 DUP3 ADD SWAP1 SWAP2 MSTORE PUSH1 0x1 DUP2 MSTORE PUSH1 0x3 PUSH1 0xFC SHL PUSH1 0x20 DUP3 ADD MSTORE PUSH2 0x7A9 JUMP JUMPDEST DUP2 PUSH1 0x0 JUMPDEST DUP2 ISZERO PUSH2 0x20E3 JUMPI DUP1 PUSH2 0x20CD DUP2 PUSH2 0x3381 JUMP JUMPDEST SWAP2 POP PUSH2 0x20DC SWAP1 POP PUSH1 0xA DUP4 PUSH2 0x32EF JUMP JUMPDEST SWAP2 POP PUSH2 0x20BD JUMP JUMPDEST PUSH1 0x0 DUP2 PUSH8 0xFFFFFFFFFFFFFFFF DUP2 GT ISZERO PUSH2 0x210C JUMPI PUSH4 0x4E487B71 PUSH1 0xE0 SHL PUSH1 0x0 MSTORE PUSH1 0x41 PUSH1 0x4 MSTORE PUSH1 0x24 PUSH1 0x0 REVERT JUMPDEST PUSH1 0x40 MLOAD SWAP1 DUP1 DUP3 MSTORE DUP1 PUSH1 0x1F ADD PUSH1 0x1F NOT AND PUSH1 0x20 ADD DUP3 ADD PUSH1 0x40 MSTORE DUP1 ISZERO PUSH2 0x2136 JUMPI PUSH1 0x20 DUP3 ADD DUP2 DUP1 CALLDATASIZE DUP4 CALLDATACOPY ADD SWAP1 POP JUMPDEST POP SWAP1 POP JUMPDEST DUP5 ISZERO PUSH2 0xDD8 JUMPI PUSH2 0x214B PUSH1 0x1 DUP4 PUSH2 0x3303 JUMP JUMPDEST SWAP2 POP PUSH2 0x2158 PUSH1 0xA DUP7 PUSH2 0x339C JUMP JUMPDEST PUSH2 0x2163 SWAP1 PUSH1 0x30 PUSH2 0x32D7 JUMP JUMPDEST PUSH1 0xF8 SHL DUP2 DUP4 DUP2 MLOAD DUP2 LT PUSH2 0x2186 JUMPI PUSH4 0x4E487B71 PUSH1 0xE0 SHL PUSH1 0x0 MSTORE PUSH1 0x32 PUSH1 0x4 MSTORE PUSH1 0x24 PUSH1 0x0 REVERT JUMPDEST PUSH1 0x20 ADD ADD SWAP1 PUSH1 0x1 PUSH1 0x1 PUSH1 0xF8 SHL SUB NOT AND SWAP1 DUP2 PUSH1 0x0 BYTE SWAP1 MSTORE8 POP PUSH2 0x21A8 PUSH1 0xA DUP7 PUSH2 0x32EF JUMP JUMPDEST SWAP5 POP PUSH2 0x213A JUMP JUMPDEST PUSH1 0x0 PUSH1 0x1 PUSH1 0x1 PUSH1 0xE0 SHL SUB NOT DUP3 AND PUSH4 0x80AC58CD PUSH1 0xE0 SHL EQ DUP1 PUSH2 0x21E0 JUMPI POP PUSH1 0x1 PUSH1 0x1 PUSH1 0xE0 SHL SUB NOT DUP3 AND PUSH4 0x5B5E139F PUSH1 0xE0 SHL EQ JUMPDEST DUP1 PUSH2 0x7A6 JUMPI POP PUSH2 0x7A6 DUP3 PUSH2 0x23E9 JUMP JUMPDEST PUSH1 0x1 PUSH1 0x1 PUSH1 0xA0 SHL SUB DUP3 AND PUSH2 0x2215 JUMPI PUSH1 0x40 MLOAD PUSH3 0x461BCD PUSH1 0xE5 SHL DUP2 MSTORE PUSH1 0x4 ADD PUSH2 0x7DE SWAP1 PUSH2 0x3091 JUMP JUMPDEST PUSH2 0x221E DUP2 PUSH2 0x1E17 JUMP JUMPDEST ISZERO PUSH2 0x223B JUMPI PUSH1 0x40 MLOAD PUSH3 0x461BCD PUSH1 0xE5 SHL DUP2 MSTORE PUSH1 0x4 ADD PUSH2 0x7DE SWAP1 PUSH2 0x2EA3 JUMP JUMPDEST PUSH2 0x2247 PUSH1 0x0 DUP4 DUP4 PUSH2 0x22CE JUMP JUMPDEST PUSH1 0x1 PUSH1 0x1 PUSH1 0xA0 SHL SUB DUP3 AND PUSH1 0x0 SWAP1 DUP2 MSTORE PUSH1 0x3 PUSH1 0x20 MSTORE PUSH1 0x40 DUP2 KECCAK256 DUP1 SLOAD PUSH1 0x1 SWAP3 SWAP1 PUSH2 0x2270 SWAP1 DUP5 SWAP1 PUSH2 0x32D7 JUMP JUMPDEST SWAP1 SWAP2 SSTORE POP POP PUSH1 0x0 DUP2 DUP2 MSTORE PUSH1 0x2 PUSH1 0x20 MSTORE PUSH1 0x40 DUP1 DUP3 KECCAK256 DUP1 SLOAD PUSH1 0x1 PUSH1 0x1 PUSH1 0xA0 SHL SUB NOT AND PUSH1 0x1 PUSH1 0x1 PUSH1 0xA0 SHL SUB DUP7 AND SWAP1 DUP2 OR SWAP1 SWAP2 SSTORE SWAP1 MLOAD DUP4 SWAP3 SWAP1 PUSH32 0xDDF252AD1BE2C89B69C2B068FC378DAA952BA7F163C4A11628F55A4DF523B3EF SWAP1 DUP3 SWAP1 LOG4 POP POP JUMP JUMPDEST PUSH2 0xA93 DUP4 DUP4 DUP4 PUSH2 0x2402 JUMP JUMPDEST PUSH1 0x0 PUSH2 0x22ED DUP5 PUSH1 0x1 PUSH1 0x1 PUSH1 0xA0 SHL SUB AND PUSH2 0x204C JUMP JUMPDEST ISZERO PUSH2 0x86A JUMPI DUP4 PUSH1 0x1 PUSH1 0x1 PUSH1 0xA0 SHL SUB AND PUSH4 0x150B7A02 PUSH2 0x2309 PUSH2 0x1DCC JUMP JUMPDEST DUP8 DUP7 DUP7 PUSH1 0x40 MLOAD DUP6 PUSH4 0xFFFFFFFF AND PUSH1 0xE0 SHL DUP2 MSTORE PUSH1 0x4 ADD PUSH2 0x232B SWAP5 SWAP4 SWAP3 SWAP2 SWAP1 PUSH2 0x2D42 JUMP JUMPDEST PUSH1 0x20 PUSH1 0x40 MLOAD DUP1 DUP4 SUB DUP2 PUSH1 0x0 DUP8 DUP1 EXTCODESIZE ISZERO DUP1 ISZERO PUSH2 0x2345 JUMPI PUSH1 0x0 DUP1 REVERT JUMPDEST POP GAS CALL SWAP3 POP POP POP DUP1 ISZERO PUSH2 0x2375 JUMPI POP PUSH1 0x40 DUP1 MLOAD PUSH1 0x1F RETURNDATASIZE SWAP1 DUP2 ADD PUSH1 0x1F NOT AND DUP3 ADD SWAP1 SWAP3 MSTORE PUSH2 0x2372 SWAP2 DUP2 ADD SWAP1 PUSH2 0x2C61 JUMP JUMPDEST PUSH1 0x1 JUMPDEST PUSH2 0x23CF JUMPI RETURNDATASIZE DUP1 DUP1 ISZERO PUSH2 0x23A3 JUMPI PUSH1 0x40 MLOAD SWAP2 POP PUSH1 0x1F NOT PUSH1 0x3F RETURNDATASIZE ADD AND DUP3 ADD PUSH1 0x40 MSTORE RETURNDATASIZE DUP3 MSTORE RETURNDATASIZE PUSH1 0x0 PUSH1 0x20 DUP5 ADD RETURNDATACOPY PUSH2 0x23A8 JUMP JUMPDEST PUSH1 0x60 SWAP2 POP JUMPDEST POP DUP1 MLOAD PUSH2 0x23C7 JUMPI PUSH1 0x40 MLOAD PUSH3 0x461BCD PUSH1 0xE5 SHL DUP2 MSTORE PUSH1 0x4 ADD PUSH2 0x7DE SWAP1 PUSH2 0x2E51 JUMP JUMPDEST DUP1 MLOAD DUP2 PUSH1 0x20 ADD REVERT JUMPDEST PUSH1 0x1 PUSH1 0x1 PUSH1 0xE0 SHL SUB NOT AND PUSH4 0xA85BD01 PUSH1 0xE1 SHL EQ SWAP1 POP PUSH2 0xDD8 JUMP JUMPDEST PUSH1 0x1 PUSH1 0x1 PUSH1 0xE0 SHL SUB NOT DUP2 AND PUSH4 0x1FFC9A7 PUSH1 0xE0 SHL EQ SWAP2 SWAP1 POP JUMP JUMPDEST PUSH2 0x240D DUP4 DUP4 DUP4 PUSH2 0x2444 JUMP JUMPDEST PUSH2 0x2415 PUSH2 0x114E JUMP JUMPDEST ISZERO DUP1 PUSH2 0x2428 JUMPI POP PUSH1 0x1 PUSH1 0x1 PUSH1 0xA0 SHL SUB DUP4 AND ISZERO JUMPDEST PUSH2 0xA93 JUMPI PUSH1 0x40 MLOAD PUSH3 0x461BCD PUSH1 0xE5 SHL DUP2 MSTORE PUSH1 0x4 ADD PUSH2 0x7DE SWAP1 PUSH2 0x2DBB JUMP JUMPDEST PUSH2 0x244F DUP4 DUP4 DUP4 PUSH2 0xA93 JUMP JUMPDEST PUSH1 0x1 PUSH1 0x1 PUSH1 0xA0 SHL SUB DUP4 AND PUSH2 0x246B JUMPI PUSH2 0x2466 DUP2 PUSH2 0x24CD JUMP JUMPDEST PUSH2 0x248E JUMP JUMPDEST DUP2 PUSH1 0x1 PUSH1 0x1 PUSH1 0xA0 SHL SUB AND DUP4 PUSH1 0x1 PUSH1 0x1 PUSH1 0xA0 SHL SUB AND EQ PUSH2 0x248E JUMPI PUSH2 0x248E DUP4 DUP3 PUSH2 0x2511 JUMP JUMPDEST PUSH1 0x1 PUSH1 0x1 PUSH1 0xA0 SHL SUB DUP3 AND PUSH2 0x24AA JUMPI PUSH2 0x24A5 DUP2 PUSH2 0x25AE JUMP JUMPDEST PUSH2 0xA93 JUMP JUMPDEST DUP3 PUSH1 0x1 PUSH1 0x1 PUSH1 0xA0 SHL SUB AND DUP3 PUSH1 0x1 PUSH1 0x1 PUSH1 0xA0 SHL SUB AND EQ PUSH2 0xA93 JUMPI PUSH2 0xA93 DUP3 DUP3 PUSH2 0x2687 JUMP JUMPDEST PUSH1 0x8 DUP1 SLOAD PUSH1 0x0 DUP4 DUP2 MSTORE PUSH1 0x9 PUSH1 0x20 MSTORE PUSH1 0x40 DUP2 KECCAK256 DUP3 SWAP1 SSTORE PUSH1 0x1 DUP3 ADD DUP4 SSTORE SWAP2 SWAP1 SWAP2 MSTORE PUSH32 0xF3F7A9FE364FAAB93B216DA50A3214154F22A0A2B415B23A84C8169E8B636EE3 ADD SSTORE JUMP JUMPDEST PUSH1 0x0 PUSH1 0x1 PUSH2 0x251E DUP5 PUSH2 0x1382 JUMP JUMPDEST PUSH2 0x2528 SWAP2 SWAP1 PUSH2 0x3303 JUMP JUMPDEST PUSH1 0x0 DUP4 DUP2 MSTORE PUSH1 0x7 PUSH1 0x20 MSTORE PUSH1 0x40 SWAP1 KECCAK256 SLOAD SWAP1 SWAP2 POP DUP1 DUP3 EQ PUSH2 0x257B JUMPI PUSH1 0x1 PUSH1 0x1 PUSH1 0xA0 SHL SUB DUP5 AND PUSH1 0x0 SWAP1 DUP2 MSTORE PUSH1 0x6 PUSH1 0x20 SWAP1 DUP2 MSTORE PUSH1 0x40 DUP1 DUP4 KECCAK256 DUP6 DUP5 MSTORE DUP3 MSTORE DUP1 DUP4 KECCAK256 SLOAD DUP5 DUP5 MSTORE DUP2 DUP5 KECCAK256 DUP2 SWAP1 SSTORE DUP4 MSTORE PUSH1 0x7 SWAP1 SWAP2 MSTORE SWAP1 KECCAK256 DUP2 SWAP1 SSTORE JUMPDEST POP PUSH1 0x0 SWAP2 DUP3 MSTORE PUSH1 0x7 PUSH1 0x20 SWAP1 DUP2 MSTORE PUSH1 0x40 DUP1 DUP5 KECCAK256 DUP5 SWAP1 SSTORE PUSH1 0x1 PUSH1 0x1 PUSH1 0xA0 SHL SUB SWAP1 SWAP5 AND DUP4 MSTORE PUSH1 0x6 DUP2 MSTORE DUP4 DUP4 KECCAK256 SWAP2 DUP4 MSTORE MSTORE SWAP1 DUP2 KECCAK256 SSTORE JUMP JUMPDEST PUSH1 0x8 SLOAD PUSH1 0x0 SWAP1 PUSH2 0x25C0 SWAP1 PUSH1 0x1 SWAP1 PUSH2 0x3303 JUMP JUMPDEST PUSH1 0x0 DUP4 DUP2 MSTORE PUSH1 0x9 PUSH1 0x20 MSTORE PUSH1 0x40 DUP2 KECCAK256 SLOAD PUSH1 0x8 DUP1 SLOAD SWAP4 SWAP5 POP SWAP1 SWAP3 DUP5 SWAP1 DUP2 LT PUSH2 0x25F6 JUMPI PUSH4 0x4E487B71 PUSH1 0xE0 SHL PUSH1 0x0 MSTORE PUSH1 0x32 PUSH1 0x4 MSTORE PUSH1 0x24 PUSH1 0x0 REVERT JUMPDEST SWAP1 PUSH1 0x0 MSTORE PUSH1 0x20 PUSH1 0x0 KECCAK256 ADD SLOAD SWAP1 POP DUP1 PUSH1 0x8 DUP4 DUP2 SLOAD DUP2 LT PUSH2 0x2625 JUMPI PUSH4 0x4E487B71 PUSH1 0xE0 SHL PUSH1 0x0 MSTORE PUSH1 0x32 PUSH1 0x4 MSTORE PUSH1 0x24 PUSH1 0x0 REVERT JUMPDEST PUSH1 0x0 SWAP2 DUP3 MSTORE PUSH1 0x20 DUP1 DUP4 KECCAK256 SWAP1 SWAP2 ADD SWAP3 SWAP1 SWAP3 SSTORE DUP3 DUP2 MSTORE PUSH1 0x9 SWAP1 SWAP2 MSTORE PUSH1 0x40 DUP1 DUP3 KECCAK256 DUP5 SWAP1 SSTORE DUP6 DUP3 MSTORE DUP2 KECCAK256 SSTORE PUSH1 0x8 DUP1 SLOAD DUP1 PUSH2 0x266B JUMPI PUSH4 0x4E487B71 PUSH1 0xE0 SHL PUSH1 0x0 MSTORE PUSH1 0x31 PUSH1 0x4 MSTORE PUSH1 0x24 PUSH1 0x0 REVERT JUMPDEST PUSH1 0x1 SWAP1 SUB DUP2 DUP2 SWAP1 PUSH1 0x0 MSTORE PUSH1 0x20 PUSH1 0x0 KECCAK256 ADD PUSH1 0x0 SWAP1 SSTORE SWAP1 SSTORE POP POP POP POP JUMP JUMPDEST PUSH1 0x0 PUSH2 0x2692 DUP4 PUSH2 0x1382 JUMP JUMPDEST PUSH1 0x1 PUSH1 0x1 PUSH1 0xA0 SHL SUB SWAP1 SWAP4 AND PUSH1 0x0 SWAP1 DUP2 MSTORE PUSH1 0x6 PUSH1 0x20 SWAP1 DUP2 MSTORE PUSH1 0x40 DUP1 DUP4 KECCAK256 DUP7 DUP5 MSTORE DUP3 MSTORE DUP1 DUP4 KECCAK256 DUP6 SWAP1 SSTORE SWAP4 DUP3 MSTORE PUSH1 0x7 SWAP1 MSTORE SWAP2 SWAP1 SWAP2 KECCAK256 SWAP2 SWAP1 SWAP2 SSTORE POP JUMP JUMPDEST DUP3 DUP1 SLOAD PUSH2 0x26D7 SWAP1 PUSH2 0x3346 JUMP JUMPDEST SWAP1 PUSH1 0x0 MSTORE PUSH1 0x20 PUSH1 0x0 KECCAK256 SWAP1 PUSH1 0x1F ADD PUSH1 0x20 SWAP1 DIV DUP2 ADD SWAP3 DUP3 PUSH2 0x26F9 JUMPI PUSH1 0x0 DUP6 SSTORE PUSH2 0x273F JUMP JUMPDEST DUP3 PUSH1 0x1F LT PUSH2 0x2712 JUMPI DUP1 MLOAD PUSH1 0xFF NOT AND DUP4 DUP1 ADD OR DUP6 SSTORE PUSH2 0x273F JUMP JUMPDEST DUP3 DUP1 ADD PUSH1 0x1 ADD DUP6 SSTORE DUP3 ISZERO PUSH2 0x273F JUMPI SWAP2 DUP3 ADD JUMPDEST DUP3 DUP2 GT ISZERO PUSH2 0x273F JUMPI DUP3 MLOAD DUP3 SSTORE SWAP2 PUSH1 0x20 ADD SWAP2 SWAP1 PUSH1 0x1 ADD SWAP1 PUSH2 0x2724 JUMP JUMPDEST POP PUSH2 0x274B SWAP3 SWAP2 POP PUSH2 0x274F JUMP JUMPDEST POP SWAP1 JUMP JUMPDEST JUMPDEST DUP1 DUP3 GT ISZERO PUSH2 0x274B JUMPI PUSH1 0x0 DUP2 SSTORE PUSH1 0x1 ADD PUSH2 0x2750 JUMP JUMPDEST DUP1 CALLDATALOAD DUP1 ISZERO ISZERO DUP2 EQ PUSH2 0x7A9 JUMPI PUSH1 0x0 DUP1 REVERT JUMPDEST PUSH1 0x0 DUP3 PUSH1 0x1F DUP4 ADD SLT PUSH2 0x2784 JUMPI DUP1 DUP2 REVERT JUMPDEST DUP2 CALLDATALOAD PUSH8 0xFFFFFFFFFFFFFFFF DUP1 DUP3 GT ISZERO PUSH2 0x279F JUMPI PUSH2 0x279F PUSH2 0x33DC JUMP JUMPDEST PUSH1 0x40 MLOAD PUSH1 0x1F DUP4 ADD PUSH1 0x1F NOT AND DUP2 ADD PUSH1 0x20 ADD DUP3 DUP2 GT DUP3 DUP3 LT OR ISZERO PUSH2 0x27C3 JUMPI PUSH2 0x27C3 PUSH2 0x33DC JUMP JUMPDEST PUSH1 0x40 MSTORE DUP3 DUP2 MSTORE DUP5 DUP4 ADD PUSH1 0x20 ADD DUP7 LT ISZERO PUSH2 0x27DA JUMPI DUP4 DUP5 REVERT JUMPDEST DUP3 PUSH1 0x20 DUP7 ADD PUSH1 0x20 DUP4 ADD CALLDATACOPY SWAP2 DUP3 ADD PUSH1 0x20 ADD SWAP3 SWAP1 SWAP3 MSTORE SWAP4 SWAP3 POP POP POP JUMP JUMPDEST PUSH1 0x0 PUSH1 0x20 DUP3 DUP5 SUB SLT ISZERO PUSH2 0x2806 JUMPI DUP1 DUP2 REVERT JUMPDEST DUP2 CALLDATALOAD PUSH2 0x181A DUP2 PUSH2 0x33F2 JUMP JUMPDEST PUSH1 0x0 PUSH1 0x20 DUP3 DUP5 SUB SLT ISZERO PUSH2 0x2822 JUMPI DUP1 DUP2 REVERT JUMPDEST DUP2 MLOAD PUSH2 0x181A DUP2 PUSH2 0x33F2 JUMP JUMPDEST PUSH1 0x0 DUP1 PUSH1 0x40 DUP4 DUP6 SUB SLT ISZERO PUSH2 0x283F JUMPI DUP1 DUP2 REVERT JUMPDEST DUP3 CALLDATALOAD PUSH2 0x284A DUP2 PUSH2 0x33F2 JUMP JUMPDEST SWAP2 POP PUSH1 0x20 DUP4 ADD CALLDATALOAD PUSH2 0x285A DUP2 PUSH2 0x33F2 JUMP JUMPDEST DUP1 SWAP2 POP POP SWAP3 POP SWAP3 SWAP1 POP JUMP JUMPDEST PUSH1 0x0 DUP1 PUSH1 0x0 PUSH1 0x60 DUP5 DUP7 SUB SLT ISZERO PUSH2 0x2879 JUMPI DUP1 DUP2 REVERT JUMPDEST DUP4 CALLDATALOAD PUSH2 0x2884 DUP2 PUSH2 0x33F2 JUMP JUMPDEST SWAP3 POP PUSH1 0x20 DUP5 ADD CALLDATALOAD PUSH2 0x2894 DUP2 PUSH2 0x33F2 JUMP JUMPDEST SWAP3 SWAP6 SWAP3 SWAP5 POP POP POP PUSH1 0x40 SWAP2 SWAP1 SWAP2 ADD CALLDATALOAD SWAP1 JUMP JUMPDEST PUSH1 0x0 DUP1 PUSH1 0x0 DUP1 PUSH1 0x80 DUP6 DUP8 SUB SLT ISZERO PUSH2 0x28BA JUMPI DUP1 DUP2 REVERT JUMPDEST DUP5 CALLDATALOAD PUSH2 0x28C5 DUP2 PUSH2 0x33F2 JUMP JUMPDEST SWAP4 POP PUSH1 0x20 DUP6 ADD CALLDATALOAD PUSH2 0x28D5 DUP2 PUSH2 0x33F2 JUMP JUMPDEST SWAP3 POP PUSH1 0x40 DUP6 ADD CALLDATALOAD SWAP2 POP PUSH1 0x60 DUP6 ADD CALLDATALOAD PUSH8 0xFFFFFFFFFFFFFFFF DUP2 GT ISZERO PUSH2 0x28F7 JUMPI DUP2 DUP3 REVERT JUMPDEST PUSH2 0x2903 DUP8 DUP3 DUP9 ADD PUSH2 0x2774 JUMP JUMPDEST SWAP2 POP POP SWAP3 SWAP6 SWAP2 SWAP5 POP SWAP3 POP JUMP JUMPDEST PUSH1 0x0 DUP1 PUSH1 0x40 DUP4 DUP6 SUB SLT ISZERO PUSH2 0x2921 JUMPI DUP2 DUP3 REVERT JUMPDEST DUP3 CALLDATALOAD PUSH2 0x292C DUP2 PUSH2 0x33F2 JUMP JUMPDEST SWAP2 POP PUSH2 0x293A PUSH1 0x20 DUP5 ADD PUSH2 0x2764 JUMP JUMPDEST SWAP1 POP SWAP3 POP SWAP3 SWAP1 POP JUMP JUMPDEST PUSH1 0x0 DUP1 PUSH1 0x40 DUP4 DUP6 SUB SLT ISZERO PUSH2 0x2955 JUMPI DUP2 DUP3 REVERT JUMPDEST DUP3 CALLDATALOAD PUSH2 0x2960 DUP2 PUSH2 0x33F2 JUMP JUMPDEST SWAP5 PUSH1 0x20 SWAP4 SWAP1 SWAP4 ADD CALLDATALOAD SWAP4 POP POP POP JUMP JUMPDEST PUSH1 0x0 DUP1 PUSH1 0x0 PUSH1 0x60 DUP5 DUP7 SUB SLT ISZERO PUSH2 0x2982 JUMPI DUP3 DUP4 REVERT JUMPDEST DUP4 CALLDATALOAD PUSH2 0x298D DUP2 PUSH2 0x33F2 JUMP JUMPDEST SWAP3 POP PUSH1 0x20 DUP5 ADD CALLDATALOAD SWAP2 POP PUSH1 0x40 DUP5 ADD CALLDATALOAD PUSH2 0x29A4 DUP2 PUSH2 0x33F2 JUMP JUMPDEST DUP1 SWAP2 POP POP SWAP3 POP SWAP3 POP SWAP3 JUMP JUMPDEST PUSH1 0x0 DUP1 PUSH1 0x0 PUSH1 0x60 DUP5 DUP7 SUB SLT ISZERO PUSH2 0x29C3 JUMPI DUP3 DUP4 REVERT JUMPDEST DUP4 CALLDATALOAD PUSH2 0x29CE DUP2 PUSH2 0x33F2 JUMP JUMPDEST SWAP3 POP PUSH1 0x20 DUP5 ADD CALLDATALOAD SWAP2 POP PUSH2 0x29E3 PUSH1 0x40 DUP6 ADD PUSH2 0x2764 JUMP JUMPDEST SWAP1 POP SWAP3 POP SWAP3 POP SWAP3 JUMP JUMPDEST PUSH1 0x0 DUP1 PUSH1 0x0 PUSH1 0x60 DUP5 DUP7 SUB SLT ISZERO PUSH2 0x2A00 JUMPI DUP3 DUP4 REVERT JUMPDEST DUP4 CALLDATALOAD PUSH2 0x2A0B DUP2 PUSH2 0x33F2 JUMP JUMPDEST SWAP6 PUSH1 0x20 DUP6 ADD CALLDATALOAD SWAP6 POP PUSH1 0x40 SWAP1 SWAP5 ADD CALLDATALOAD SWAP4 SWAP3 POP POP POP JUMP JUMPDEST PUSH1 0x0 DUP1 PUSH1 0x0 PUSH1 0x60 DUP5 DUP7 SUB SLT ISZERO PUSH2 0x2A34 JUMPI DUP1 DUP2 REVERT JUMPDEST DUP4 CALLDATALOAD PUSH2 0x2A3F DUP2 PUSH2 0x33F2 JUMP JUMPDEST SWAP3 POP PUSH1 0x20 DUP5 ADD CALLDATALOAD SWAP2 POP PUSH1 0x40 DUP5 ADD CALLDATALOAD PUSH8 0xFFFFFFFFFFFFFFFF DUP2 GT ISZERO PUSH2 0x2A61 JUMPI DUP2 DUP3 REVERT JUMPDEST PUSH2 0x2A6D DUP7 DUP3 DUP8 ADD PUSH2 0x2774 JUMP JUMPDEST SWAP2 POP POP SWAP3 POP SWAP3 POP SWAP3 JUMP JUMPDEST PUSH1 0x0 DUP1 PUSH1 0x0 PUSH1 0x60 DUP5 DUP7 SUB SLT ISZERO PUSH2 0x2A00 JUMPI DUP1 DUP2 REVERT JUMPDEST PUSH1 0x0 DUP1 PUSH1 0x40 DUP4 DUP6 SUB SLT ISZERO PUSH2 0x2A9D JUMPI DUP2 DUP3 REVERT JUMPDEST DUP3 CALLDATALOAD PUSH2 0x2AA8 DUP2 PUSH2 0x33F2 JUMP JUMPDEST SWAP2 POP PUSH1 0x20 DUP4 ADD CALLDATALOAD PUSH8 0xFFFFFFFFFFFFFFFF DUP2 GT ISZERO PUSH2 0x2AC3 JUMPI DUP2 DUP3 REVERT JUMPDEST PUSH2 0x2ACF DUP6 DUP3 DUP7 ADD PUSH2 0x2774 JUMP JUMPDEST SWAP2 POP POP SWAP3 POP SWAP3 SWAP1 POP JUMP JUMPDEST PUSH1 0x0 DUP1 PUSH1 0x0 PUSH1 0x60 DUP5 DUP7 SUB SLT ISZERO PUSH2 0x2AED JUMPI DUP1 DUP2 REVERT JUMPDEST DUP4 CALLDATALOAD PUSH2 0x2AF8 DUP2 PUSH2 0x33F2 JUMP JUMPDEST SWAP3 POP PUSH1 0x20 DUP5 ADD CALLDATALOAD PUSH8 0xFFFFFFFFFFFFFFFF DUP2 GT ISZERO PUSH2 0x2B13 JUMPI DUP2 DUP3 REVERT JUMPDEST PUSH2 0x2B1F DUP7 DUP3 DUP8 ADD PUSH2 0x2774 JUMP JUMPDEST SWAP3 POP POP PUSH1 0x40 DUP5 ADD CALLDATALOAD PUSH2 0x29A4 DUP2 PUSH2 0x33F2 JUMP JUMPDEST PUSH1 0x0 DUP1 PUSH1 0x0 PUSH1 0x60 DUP5 DUP7 SUB SLT ISZERO PUSH2 0x2B44 JUMPI DUP1 DUP2 REVERT JUMPDEST DUP4 CALLDATALOAD PUSH2 0x2B4F DUP2 PUSH2 0x33F2 JUMP JUMPDEST SWAP3 POP PUSH1 0x20 DUP5 ADD CALLDATALOAD PUSH8 0xFFFFFFFFFFFFFFFF DUP2 GT ISZERO PUSH2 0x2B6A JUMPI DUP2 DUP3 REVERT JUMPDEST PUSH2 0x2B76 DUP7 DUP3 DUP8 ADD PUSH2 0x2774 JUMP JUMPDEST SWAP3 POP POP PUSH2 0x29E3 PUSH1 0x40 DUP6 ADD PUSH2 0x2764 JUMP JUMPDEST PUSH1 0x0 DUP1 PUSH1 0x0 PUSH1 0x60 DUP5 DUP7 SUB SLT ISZERO PUSH2 0x2B99 JUMPI DUP1 DUP2 REVERT JUMPDEST DUP4 CALLDATALOAD PUSH2 0x2BA4 DUP2 PUSH2 0x33F2 JUMP JUMPDEST SWAP3 POP PUSH1 0x20 DUP5 ADD CALLDATALOAD PUSH8 0xFFFFFFFFFFFFFFFF DUP2 GT ISZERO PUSH2 0x2BBF JUMPI DUP2 DUP3 REVERT JUMPDEST PUSH2 0x2BCB DUP7 DUP3 DUP8 ADD PUSH2 0x2774 JUMP JUMPDEST SWAP3 POP POP PUSH1 0x40 DUP5 ADD CALLDATALOAD SWAP1 POP SWAP3 POP SWAP3 POP SWAP3 JUMP JUMPDEST PUSH1 0x0 DUP1 PUSH1 0x0 PUSH1 0x60 DUP5 DUP7 SUB SLT ISZERO PUSH2 0x2BF0 JUMPI DUP1 DUP2 REVERT JUMPDEST DUP4 CALLDATALOAD PUSH2 0x2BFB DUP2 PUSH2 0x33F2 JUMP JUMPDEST SWAP3 POP PUSH1 0x20 DUP5 ADD CALLDATALOAD PUSH8 0xFFFFFFFFFFFFFFFF DUP1 DUP3 GT ISZERO PUSH2 0x2C17 JUMPI DUP3 DUP4 REVERT JUMPDEST PUSH2 0x2C23 DUP8 DUP4 DUP9 ADD PUSH2 0x2774 JUMP JUMPDEST SWAP4 POP PUSH1 0x40 DUP7 ADD CALLDATALOAD SWAP2 POP DUP1 DUP3 GT ISZERO PUSH2 0x2C38 JUMPI DUP3 DUP4 REVERT JUMPDEST POP PUSH2 0x2A6D DUP7 DUP3 DUP8 ADD PUSH2 0x2774 JUMP JUMPDEST PUSH1 0x0 PUSH1 0x20 DUP3 DUP5 SUB SLT ISZERO PUSH2 0x2C56 JUMPI DUP1 DUP2 REVERT JUMPDEST DUP2 CALLDATALOAD PUSH2 0x181A DUP2 PUSH2 0x340A JUMP JUMPDEST PUSH1 0x0 PUSH1 0x20 DUP3 DUP5 SUB SLT ISZERO PUSH2 0x2C72 JUMPI DUP1 DUP2 REVERT JUMPDEST DUP2 MLOAD PUSH2 0x181A DUP2 PUSH2 0x340A JUMP JUMPDEST PUSH1 0x0 PUSH1 0x20 DUP3 DUP5 SUB SLT ISZERO PUSH2 0x2C8E JUMPI DUP1 DUP2 REVERT JUMPDEST POP CALLDATALOAD SWAP2 SWAP1 POP JUMP JUMPDEST PUSH1 0x0 DUP2 MLOAD DUP1 DUP5 MSTORE PUSH2 0x2CAD DUP2 PUSH1 0x20 DUP7 ADD PUSH1 0x20 DUP7 ADD PUSH2 0x331A JUMP JUMPDEST PUSH1 0x1F ADD PUSH1 0x1F NOT AND SWAP3 SWAP1 SWAP3 ADD PUSH1 0x20 ADD SWAP3 SWAP2 POP POP JUMP JUMPDEST PUSH1 0x60 SWAP3 SWAP1 SWAP3 SHL PUSH12 0xFFFFFFFFFFFFFFFFFFFFFFFF NOT AND DUP3 MSTORE PUSH1 0x14 DUP3 ADD MSTORE PUSH1 0x34 ADD SWAP1 JUMP JUMPDEST PUSH1 0x0 DUP3 MLOAD PUSH2 0x2CF5 DUP2 DUP5 PUSH1 0x20 DUP8 ADD PUSH2 0x331A JUMP JUMPDEST SWAP2 SWAP1 SWAP2 ADD SWAP3 SWAP2 POP POP JUMP JUMPDEST PUSH1 0x0 DUP4 MLOAD PUSH2 0x2D11 DUP2 DUP5 PUSH1 0x20 DUP9 ADD PUSH2 0x331A JUMP JUMPDEST DUP4 MLOAD SWAP1 DUP4 ADD SWAP1 PUSH2 0x2D25 DUP2 DUP4 PUSH1 0x20 DUP9 ADD PUSH2 0x331A JUMP JUMPDEST ADD SWAP5 SWAP4 POP POP POP POP JUMP JUMPDEST PUSH1 0x1 PUSH1 0x1 PUSH1 0xA0 SHL SUB SWAP2 SWAP1 SWAP2 AND DUP2 MSTORE PUSH1 0x20 ADD SWAP1 JUMP JUMPDEST PUSH1 0x1 PUSH1 0x1 PUSH1 0xA0 SHL SUB DUP6 DUP2 AND DUP3 MSTORE DUP5 AND PUSH1 0x20 DUP3 ADD MSTORE PUSH1 0x40 DUP2 ADD DUP4 SWAP1 MSTORE PUSH1 0x80 PUSH1 0x60 DUP3 ADD DUP2 SWAP1 MSTORE PUSH1 0x0 SWAP1 PUSH2 0x2D75 SWAP1 DUP4 ADD DUP5 PUSH2 0x2C95 JUMP JUMPDEST SWAP7 SWAP6 POP POP POP POP POP POP JUMP JUMPDEST SWAP1 ISZERO ISZERO DUP2 MSTORE PUSH1 0x20 ADD SWAP1 JUMP JUMPDEST SWAP1 DUP2 MSTORE PUSH1 0x20 ADD SWAP1 JUMP JUMPDEST PUSH1 0x1 PUSH1 0x1 PUSH1 0xE0 SHL SUB NOT SWAP2 SWAP1 SWAP2 AND DUP2 MSTORE PUSH1 0x20 ADD SWAP1 JUMP JUMPDEST PUSH1 0x0 PUSH1 0x20 DUP3 MSTORE PUSH2 0x181A PUSH1 0x20 DUP4 ADD DUP5 PUSH2 0x2C95 JUMP JUMPDEST PUSH1 0x20 DUP1 DUP3 MSTORE PUSH1 0x2B SWAP1 DUP3 ADD MSTORE PUSH32 0x4552433732315061757361626C653A20746F6B656E207472616E736665722077 PUSH1 0x40 DUP3 ADD MSTORE PUSH11 0x1A1A5B19481C185D5CD959 PUSH1 0xAA SHL PUSH1 0x60 DUP3 ADD MSTORE PUSH1 0x80 ADD SWAP1 JUMP JUMPDEST PUSH1 0x20 DUP1 DUP3 MSTORE PUSH1 0x2B SWAP1 DUP3 ADD MSTORE PUSH32 0x455243373231456E756D657261626C653A206F776E657220696E646578206F75 PUSH1 0x40 DUP3 ADD MSTORE PUSH11 0x74206F6620626F756E6473 PUSH1 0xA8 SHL PUSH1 0x60 DUP3 ADD MSTORE PUSH1 0x80 ADD SWAP1 JUMP JUMPDEST PUSH1 0x20 DUP1 DUP3 MSTORE PUSH1 0x32 SWAP1 DUP3 ADD MSTORE PUSH32 0x4552433732313A207472616E7366657220746F206E6F6E204552433732315265 PUSH1 0x40 DUP3 ADD MSTORE PUSH18 0x31B2B4BB32B91034B6B83632B6B2B73A32B9 PUSH1 0x71 SHL PUSH1 0x60 DUP3 ADD MSTORE PUSH1 0x80 ADD SWAP1 JUMP JUMPDEST PUSH1 0x20 DUP1 DUP3 MSTORE PUSH1 0x1C SWAP1 DUP3 ADD MSTORE PUSH32 0x4552433732313A20746F6B656E20616C7265616479206D696E74656400000000 PUSH1 0x40 DUP3 ADD MSTORE PUSH1 0x60 ADD SWAP1 JUMP JUMPDEST PUSH1 0x20 DUP1 DUP3 MSTORE PUSH1 0x24 SWAP1 DUP3 ADD MSTORE PUSH32 0x4552433732313A207472616E7366657220746F20746865207A65726F20616464 PUSH1 0x40 DUP3 ADD MSTORE PUSH4 0x72657373 PUSH1 0xE0 SHL PUSH1 0x60 DUP3 ADD MSTORE PUSH1 0x80 ADD SWAP1 JUMP JUMPDEST PUSH1 0x20 DUP1 DUP3 MSTORE PUSH1 0x19 SWAP1 DUP3 ADD MSTORE PUSH32 0x4552433732313A20617070726F766520746F2063616C6C657200000000000000 PUSH1 0x40 DUP3 ADD MSTORE PUSH1 0x60 ADD SWAP1 JUMP JUMPDEST PUSH1 0x20 DUP1 DUP3 MSTORE PUSH1 0x2C SWAP1 DUP3 ADD MSTORE PUSH32 0x4552433732313A206F70657261746F7220717565727920666F72206E6F6E6578 PUSH1 0x40 DUP3 ADD MSTORE PUSH12 0x34B9BA32B73A103A37B5B2B7 PUSH1 0xA1 SHL PUSH1 0x60 DUP3 ADD MSTORE PUSH1 0x80 ADD SWAP1 JUMP JUMPDEST PUSH1 0x20 DUP1 DUP3 MSTORE PUSH1 0x38 SWAP1 DUP3 ADD MSTORE PUSH32 0x4552433732313A20617070726F76652063616C6C6572206973206E6F74206F77 PUSH1 0x40 DUP3 ADD MSTORE PUSH32 0x6E6572206E6F7220617070726F76656420666F7220616C6C0000000000000000 PUSH1 0x60 DUP3 ADD MSTORE PUSH1 0x80 ADD SWAP1 JUMP JUMPDEST PUSH1 0x20 DUP1 DUP3 MSTORE PUSH1 0x2A SWAP1 DUP3 ADD MSTORE PUSH32 0x4552433732313A2062616C616E636520717565727920666F7220746865207A65 PUSH1 0x40 DUP3 ADD MSTORE PUSH10 0x726F2061646472657373 PUSH1 0xB0 SHL PUSH1 0x60 DUP3 ADD MSTORE PUSH1 0x80 ADD SWAP1 JUMP JUMPDEST PUSH1 0x20 DUP1 DUP3 MSTORE PUSH1 0x29 SWAP1 DUP3 ADD MSTORE PUSH32 0x4552433732313A206F776E657220717565727920666F72206E6F6E6578697374 PUSH1 0x40 DUP3 ADD MSTORE PUSH9 0x32B73A103A37B5B2B7 PUSH1 0xB9 SHL PUSH1 0x60 DUP3 ADD MSTORE PUSH1 0x80 ADD SWAP1 JUMP JUMPDEST PUSH1 0x20 DUP1 DUP3 MSTORE DUP2 DUP2 ADD MSTORE PUSH32 0x4552433732313A206D696E7420746F20746865207A65726F2061646472657373 PUSH1 0x40 DUP3 ADD MSTORE PUSH1 0x60 ADD SWAP1 JUMP JUMPDEST PUSH1 0x20 DUP1 DUP3 MSTORE PUSH1 0x2C SWAP1 DUP3 ADD MSTORE PUSH32 0x4552433732313A20617070726F76656420717565727920666F72206E6F6E6578 PUSH1 0x40 DUP3 ADD MSTORE PUSH12 0x34B9BA32B73A103A37B5B2B7 PUSH1 0xA1 SHL PUSH1 0x60 DUP3 ADD MSTORE PUSH1 0x80 ADD SWAP1 JUMP JUMPDEST PUSH1 0x20 DUP1 DUP3 MSTORE PUSH1 0x2F SWAP1 DUP3 ADD MSTORE PUSH32 0x5265676973747261723A2063616C6C6572206973206E6F7420746865206F776E PUSH1 0x40 DUP3 ADD MSTORE PUSH15 0x195C881BD9881C9958DA5C1A595B9D PUSH1 0x8A SHL PUSH1 0x60 DUP3 ADD MSTORE PUSH1 0x80 ADD SWAP1 JUMP JUMPDEST PUSH1 0x20 DUP1 DUP3 MSTORE PUSH1 0x29 SWAP1 DUP3 ADD MSTORE PUSH32 0x4552433732313A207472616E73666572206F6620746F6B656E20746861742069 PUSH1 0x40 DUP3 ADD MSTORE PUSH9 0x39903737BA1037BBB7 PUSH1 0xB9 SHL PUSH1 0x60 DUP3 ADD MSTORE PUSH1 0x80 ADD SWAP1 JUMP JUMPDEST PUSH1 0x20 DUP1 DUP3 MSTORE PUSH1 0x2F SWAP1 DUP3 ADD MSTORE PUSH32 0x4552433732314D657461646174613A2055524920717565727920666F72206E6F PUSH1 0x40 DUP3 ADD MSTORE PUSH15 0x3732BC34B9BA32B73A103A37B5B2B7 PUSH1 0x89 SHL PUSH1 0x60 DUP3 ADD MSTORE PUSH1 0x80 ADD SWAP1 JUMP JUMPDEST PUSH1 0x20 DUP1 DUP3 MSTORE PUSH1 0x21 SWAP1 DUP3 ADD MSTORE PUSH32 0x4552433732313A20617070726F76616C20746F2063757272656E74206F776E65 PUSH1 0x40 DUP3 ADD MSTORE PUSH1 0x39 PUSH1 0xF9 SHL PUSH1 0x60 DUP3 ADD MSTORE PUSH1 0x80 ADD SWAP1 JUMP JUMPDEST PUSH1 0x20 DUP1 DUP3 MSTORE PUSH1 0x31 SWAP1 DUP3 ADD MSTORE PUSH32 0x4552433732313A207472616E736665722063616C6C6572206973206E6F74206F PUSH1 0x40 DUP3 ADD MSTORE PUSH17 0x1DDB995C881B9BDC88185C1C1C9BDD9959 PUSH1 0x7A SHL PUSH1 0x60 DUP3 ADD MSTORE PUSH1 0x80 ADD SWAP1 JUMP JUMPDEST PUSH1 0x20 DUP1 DUP3 MSTORE PUSH1 0x2C SWAP1 DUP3 ADD MSTORE PUSH32 0x455243373231456E756D657261626C653A20676C6F62616C20696E646578206F PUSH1 0x40 DUP3 ADD MSTORE PUSH12 0x7574206F6620626F756E6473 PUSH1 0xA0 SHL PUSH1 0x60 DUP3 ADD MSTORE PUSH1 0x80 ADD SWAP1 JUMP JUMPDEST PUSH1 0x0 DUP3 NOT DUP3 GT ISZERO PUSH2 0x32EA JUMPI PUSH2 0x32EA PUSH2 0x33B0 JUMP JUMPDEST POP ADD SWAP1 JUMP JUMPDEST PUSH1 0x0 DUP3 PUSH2 0x32FE JUMPI PUSH2 0x32FE PUSH2 0x33C6 JUMP JUMPDEST POP DIV SWAP1 JUMP JUMPDEST PUSH1 0x0 DUP3 DUP3 LT ISZERO PUSH2 0x3315 JUMPI PUSH2 0x3315 PUSH2 0x33B0 JUMP JUMPDEST POP SUB SWAP1 JUMP JUMPDEST PUSH1 0x0 JUMPDEST DUP4 DUP2 LT ISZERO PUSH2 0x3335 JUMPI DUP2 DUP2 ADD MLOAD DUP4 DUP3 ADD MSTORE PUSH1 0x20 ADD PUSH2 0x331D JUMP JUMPDEST DUP4 DUP2 GT ISZERO PUSH2 0x172C JUMPI POP POP PUSH1 0x0 SWAP2 ADD MSTORE JUMP JUMPDEST PUSH1 0x2 DUP2 DIV PUSH1 0x1 DUP3 AND DUP1 PUSH2 0x335A JUMPI PUSH1 0x7F DUP3 AND SWAP2 POP JUMPDEST PUSH1 0x20 DUP3 LT DUP2 EQ ISZERO PUSH2 0x337B JUMPI PUSH4 0x4E487B71 PUSH1 0xE0 SHL PUSH1 0x0 MSTORE PUSH1 0x22 PUSH1 0x4 MSTORE PUSH1 0x24 PUSH1 0x0 REVERT JUMPDEST POP SWAP2 SWAP1 POP JUMP JUMPDEST PUSH1 0x0 PUSH1 0x0 NOT DUP3 EQ ISZERO PUSH2 0x3395 JUMPI PUSH2 0x3395 PUSH2 0x33B0 JUMP JUMPDEST POP PUSH1 0x1 ADD SWAP1 JUMP JUMPDEST PUSH1 0x0 DUP3 PUSH2 0x33AB JUMPI PUSH2 0x33AB PUSH2 0x33C6 JUMP JUMPDEST POP MOD SWAP1 JUMP JUMPDEST PUSH4 0x4E487B71 PUSH1 0xE0 SHL PUSH1 0x0 MSTORE PUSH1 0x11 PUSH1 0x4 MSTORE PUSH1 0x24 PUSH1 0x0 REVERT JUMPDEST PUSH4 0x4E487B71 PUSH1 0xE0 SHL PUSH1 0x0 MSTORE PUSH1 0x12 PUSH1 0x4 MSTORE PUSH1 0x24 PUSH1 0x0 REVERT JUMPDEST PUSH4 0x4E487B71 PUSH1 0xE0 SHL PUSH1 0x0 MSTORE PUSH1 0x41 PUSH1 0x4 MSTORE PUSH1 0x24 PUSH1 0x0 REVERT JUMPDEST PUSH1 0x1 PUSH1 0x1 PUSH1 0xA0 SHL SUB DUP2 AND DUP2 EQ PUSH2 0x3407 JUMPI PUSH1 0x0 DUP1 REVERT JUMPDEST POP JUMP JUMPDEST PUSH1 0x1 PUSH1 0x1 PUSH1 0xE0 SHL SUB NOT DUP2 AND DUP2 EQ PUSH2 0x3407 JUMPI PUSH1 0x0 DUP1 REVERT INVALID LOG2 PUSH5 0x6970667358 0x22 SLT KECCAK256 MSTORE8 PUSH9 0x221AC91FC0045D4D40 0x23 PUSH9 0xB6A70A92598887CDB7 0xCD 0xFB 0xC8 EXP SELFDESTRUCT DUP13 MUL PUSH29 0xB7C564736F6C6343000800003300000000000000000000000000000000 "
		},
		"gasEstimates": {
			"creation": {
				"codeDepositCost": "2679600",
				"executionCost": "infinite",
				"totalCost": "infinite"
			},
			"external": {
				"OwnerData()": "infinite",
				"OwnerSelector()": "345",
				"approve(address,uint256)": "infinite",
				"balanceOf(address)": "1394",
				"deleteAddress(address,bytes32)": "infinite",
				"deleteBool(address,bytes32)": "infinite",
				"deleteBytes(address,bytes32)": "infinite",
				"deleteBytes32(address,bytes32)": "infinite",
				"deleteInt256(address,bytes32)": "infinite",
				"deleteString(address,bytes32)": "infinite",
				"deleteUint256(address,bytes32)": "infinite",
				"getAddress(address,bytes32)": "1464",
				"getAddressByString(address,string)": "infinite",
				"getApproved(uint256)": "2290",
				"getBool(address,bytes32)": "1486",
				"getBoolByString(address,string)": "infinite",
				"getBytes(address,bytes32)": "infinite",
				"getBytes32(address,bytes32)": "1465",
				"getBytes32ByString(address,string)": "infinite",
				"getBytesByString(address,string)": "infinite",
				"getInt256(address,bytes32)": "1440",
				"getInt256ByString(address,string)": "infinite",
				"getString(address,bytes32)": "infinite",
				"getStringByString(address,string)": "infinite",
				"getUint256(address,bytes32)": "1439",
				"getUint256ByString(address,string)": "infinite",
				"isApprovedForAll(address,address)": "infinite",
				"isReceiptOwner(address,address)": "infinite",
				"name()": "infinite",
				"ownerOf(uint256)": "1346",
				"paused()": "1151",
				"safeTransferFrom(address,address,uint256)": "infinite",
				"safeTransferFrom(address,address,uint256,bytes)": "infinite",
				"setApprovalForAll(address,bool)": "infinite",
				"supportsInterface(bytes4)": "infinite",
				"symbol()": "infinite",
				"tokenByIndex(uint256)": "2915",
				"tokenOfOwnerByIndex(address,uint256)": "2413",
				"tokenURI(uint256)": "infinite",
				"totalSupply()": "1140",
				"transferFrom(address,address,uint256)": "infinite",
				"updateAddress(address,bytes32,address)": "infinite",
				"updateAddressByString(address,string,address)": "infinite",
				"updateBool(address,bytes32,bool)": "infinite",
				"updateBoolByString(address,string,bool)": "infinite",
				"updateBytes(address,bytes32,bytes)": "infinite",
				"updateBytes32(address,bytes32,bytes32)": "infinite",
				"updateBytes32ByString(address,string,bytes32)": "infinite",
				"updateBytesByString(address,string,bytes)": "infinite",
				"updateInt256(address,bytes32,int256)": "infinite",
				"updateInt256ByString(address,string,int256)": "infinite",
				"updateString(address,bytes32,string)": "infinite",
				"updateStringByString(address,string,string)": "infinite",
				"updateUint256(address,bytes32,uint256)": "infinite",
				"updateUint256ByString(address,string,uint256)": "infinite"
			},
			"internal": {
				"_baseURI()": "infinite",
				"_beforeTokenTransfer(address,address,uint256)": "infinite",
				"mintKey(address,bytes32)": "infinite"
			}
		},
		"methodIdentifiers": {
			"OwnerData()": "1bac15e0",
			"OwnerSelector()": "3334998c",
			"approve(address,uint256)": "095ea7b3",
			"balanceOf(address)": "70a08231",
			"deleteAddress(address,bytes32)": "f35fd0a8",
			"deleteBool(address,bytes32)": "0c8fc147",
			"deleteBytes(address,bytes32)": "ff450f5d",
			"deleteBytes32(address,bytes32)": "158c6292",
			"deleteInt256(address,bytes32)": "05fb86df",
			"deleteString(address,bytes32)": "ca54b172",
			"deleteUint256(address,bytes32)": "eaef9f32",
			"getAddress(address,bytes32)": "7ac4ed64",
			"getAddressByString(address,string)": "5eafe415",
			"getApproved(uint256)": "081812fc",
			"getBool(address,bytes32)": "9d74b37d",
			"getBoolByString(address,string)": "4b324990",
			"getBytes(address,bytes32)": "6556f767",
			"getBytes32(address,bytes32)": "0e7efc65",
			"getBytes32ByString(address,string)": "0f65d87c",
			"getBytesByString(address,string)": "bf031414",
			"getInt256(address,bytes32)": "10affe13",
			"getInt256ByString(address,string)": "3342bfd8",
			"getString(address,bytes32)": "e318de73",
			"getStringByString(address,string)": "f417358f",
			"getUint256(address,bytes32)": "94995510",
			"getUint256ByString(address,string)": "9e1b3240",
			"isApprovedForAll(address,address)": "e985e9c5",
			"isReceiptOwner(address,address)": "4e3a37be",
			"name()": "06fdde03",
			"ownerOf(uint256)": "6352211e",
			"paused()": "5c975abb",
			"safeTransferFrom(address,address,uint256)": "42842e0e",
			"safeTransferFrom(address,address,uint256,bytes)": "b88d4fde",
			"setApprovalForAll(address,bool)": "a22cb465",
			"supportsInterface(bytes4)": "01ffc9a7",
			"symbol()": "95d89b41",
			"tokenByIndex(uint256)": "4f6ccce7",
			"tokenOfOwnerByIndex(address,uint256)": "2f745c59",
			"tokenURI(uint256)": "c87b56dd",
			"totalSupply()": "18160ddd",
			"transferFrom(address,address,uint256)": "23b872dd",
			"updateAddress(address,bytes32,address)": "3736a53f",
			"updateAddressByString(address,string,address)": "fe4d3464",
			"updateBool(address,bytes32,bool)": "020491f2",
			"updateBoolByString(address,string,bool)": "83131322",
			"updateBytes(address,bytes32,bytes)": "f1e09b2e",
			"updateBytes32(address,bytes32,bytes32)": "905ed505",
			"updateBytes32ByString(address,string,bytes32)": "5283b0c5",
			"updateBytesByString(address,string,bytes)": "e761ba30",
			"updateInt256(address,bytes32,int256)": "63ba47b5",
			"updateInt256ByString(address,string,int256)": "2447a7aa",
			"updateString(address,bytes32,string)": "1b79e5cc",
			"updateStringByString(address,string,string)": "783cbd7b",
			"updateUint256(address,bytes32,uint256)": "7610a54c",
			"updateUint256ByString(address,string,uint256)": "66f1eff6"
		}
	},
	"abi": [
		{
			"inputs": [],
			"stateMutability": "nonpayable",
			"type": "constructor"
		},
		{
			"anonymous": false,
			"inputs": [
				{
					"indexed": true,
					"internalType": "address",
					"name": "owner",
					"type": "address"
				},
				{
					"indexed": true,
					"internalType": "address",
					"name": "approved",
					"type": "address"
				},
				{
					"indexed": true,
					"internalType": "uint256",
					"name": "tokenId",
					"type": "uint256"
				}
			],
			"name": "Approval",
			"type": "event"
		},
		{
			"anonymous": false,
			"inputs": [
				{
					"indexed": true,
					"internalType": "address",
					"name": "owner",
					"type": "address"
				},
				{
					"indexed": true,
					"internalType": "address",
					"name": "operator",
					"type": "address"
				},
				{
					"indexed": false,
					"internalType": "bool",
					"name": "approved",
					"type": "bool"
				}
			],
			"name": "ApprovalForAll",
			"type": "event"
		},
		{
			"anonymous": false,
			"inputs": [
				{
					"indexed": true,
					"internalType": "address",
					"name": "owner",
					"type": "address"
				},
				{
					"indexed": true,
					"internalType": "address",
					"name": "recipient",
					"type": "address"
				},
				{
					"indexed": true,
					"internalType": "bytes32",
					"name": "key",
					"type": "bytes32"
				},
				{
					"indexed": false,
					"internalType": "address",
					"name": "value",
					"type": "address"
				}
			],
			"name": "Deleted",
			"type": "event"
		},
		{
			"anonymous": false,
			"inputs": [
				{
					"indexed": true,
					"internalType": "address",
					"name": "owner",
					"type": "address"
				},
				{
					"indexed": true,
					"internalType": "address",
					"name": "recipient",
					"type": "address"
				},
				{
					"indexed": true,
					"internalType": "bytes32",
					"name": "key",
					"type": "bytes32"
				},
				{
					"indexed": false,
					"internalType": "uint256",
					"name": "value",
					"type": "uint256"
				}
			],
			"name": "Deleted",
			"type": "event"
		},
		{
			"anonymous": false,
			"inputs": [
				{
					"indexed": true,
					"internalType": "address",
					"name": "owner",
					"type": "address"
				},
				{
					"indexed": true,
					"internalType": "address",
					"name": "recipient",
					"type": "address"
				},
				{
					"indexed": true,
					"internalType": "bytes32",
					"name": "key",
					"type": "bytes32"
				},
				{
					"indexed": false,
					"internalType": "int256",
					"name": "value",
					"type": "int256"
				}
			],
			"name": "Deleted",
			"type": "event"
		},
		{
			"anonymous": false,
			"inputs": [
				{
					"indexed": true,
					"internalType": "address",
					"name": "owner",
					"type": "address"
				},
				{
					"indexed": true,
					"internalType": "address",
					"name": "recipient",
					"type": "address"
				},
				{
					"indexed": true,
					"internalType": "bytes32",
					"name": "key",
					"type": "bytes32"
				},
				{
					"indexed": false,
					"internalType": "string",
					"name": "value",
					"type": "string"
				}
			],
			"name": "Deleted",
			"type": "event"
		},
		{
			"anonymous": false,
			"inputs": [
				{
					"indexed": true,
					"internalType": "address",
					"name": "owner",
					"type": "address"
				},
				{
					"indexed": true,
					"internalType": "address",
					"name": "recipient",
					"type": "address"
				},
				{
					"indexed": true,
					"internalType": "bytes32",
					"name": "key",
					"type": "bytes32"
				},
				{
					"indexed": false,
					"internalType": "bytes",
					"name": "value",
					"type": "bytes"
				}
			],
			"name": "Deleted",
			"type": "event"
		},
		{
			"anonymous": false,
			"inputs": [
				{
					"indexed": true,
					"internalType": "address",
					"name": "owner",
					"type": "address"
				},
				{
					"indexed": true,
					"internalType": "address",
					"name": "recipient",
					"type": "address"
				},
				{
					"indexed": true,
					"internalType": "bytes32",
					"name": "key",
					"type": "bytes32"
				},
				{
					"indexed": false,
					"internalType": "bytes32",
					"name": "value",
					"type": "bytes32"
				}
			],
			"name": "Deleted",
			"type": "event"
		},
		{
			"anonymous": false,
			"inputs": [
				{
					"indexed": true,
					"internalType": "address",
					"name": "owner",
					"type": "address"
				},
				{
					"indexed": true,
					"internalType": "address",
					"name": "recipient",
					"type": "address"
				},
				{
					"indexed": true,
					"internalType": "bytes32",
					"name": "key",
					"type": "bytes32"
				},
				{
					"indexed": false,
					"internalType": "bool",
					"name": "value",
					"type": "bool"
				}
			],
			"name": "Deleted",
			"type": "event"
		},
		{
			"anonymous": false,
			"inputs": [
				{
					"indexed": false,
					"internalType": "address",
					"name": "account",
					"type": "address"
				}
			],
			"name": "Paused",
			"type": "event"
		},
		{
			"anonymous": false,
			"inputs": [
				{
					"indexed": true,
					"internalType": "address",
					"name": "from",
					"type": "address"
				},
				{
					"indexed": true,
					"internalType": "address",
					"name": "to",
					"type": "address"
				},
				{
					"indexed": true,
					"internalType": "uint256",
					"name": "tokenId",
					"type": "uint256"
				}
			],
			"name": "Transfer",
			"type": "event"
		},
		{
			"anonymous": false,
			"inputs": [
				{
					"indexed": false,
					"internalType": "address",
					"name": "account",
					"type": "address"
				}
			],
			"name": "Unpaused",
			"type": "event"
		},
		{
			"anonymous": false,
			"inputs": [
				{
					"indexed": true,
					"internalType": "address",
					"name": "owner",
					"type": "address"
				},
				{
					"indexed": true,
					"internalType": "address",
					"name": "recipient",
					"type": "address"
				},
				{
					"indexed": true,
					"internalType": "bytes32",
					"name": "key",
					"type": "bytes32"
				},
				{
					"indexed": false,
					"internalType": "address",
					"name": "value",
					"type": "address"
				}
			],
			"name": "Updated",
			"type": "event"
		},
		{
			"anonymous": false,
			"inputs": [
				{
					"indexed": true,
					"internalType": "address",
					"name": "owner",
					"type": "address"
				},
				{
					"indexed": true,
					"internalType": "address",
					"name": "recipient",
					"type": "address"
				},
				{
					"indexed": true,
					"internalType": "bytes32",
					"name": "key",
					"type": "bytes32"
				},
				{
					"indexed": false,
					"internalType": "uint256",
					"name": "value",
					"type": "uint256"
				}
			],
			"name": "Updated",
			"type": "event"
		},
		{
			"anonymous": false,
			"inputs": [
				{
					"indexed": true,
					"internalType": "address",
					"name": "owner",
					"type": "address"
				},
				{
					"indexed": true,
					"internalType": "address",
					"name": "recipient",
					"type": "address"
				},
				{
					"indexed": true,
					"internalType": "bytes32",
					"name": "key",
					"type": "bytes32"
				},
				{
					"indexed": false,
					"internalType": "int256",
					"name": "value",
					"type": "int256"
				}
			],
			"name": "Updated",
			"type": "event"
		},
		{
			"anonymous": false,
			"inputs": [
				{
					"indexed": true,
					"internalType": "address",
					"name": "owner",
					"type": "address"
				},
				{
					"indexed": true,
					"internalType": "address",
					"name": "recipient",
					"type": "address"
				},
				{
					"indexed": true,
					"internalType": "bytes32",
					"name": "key",
					"type": "bytes32"
				},
				{
					"indexed": false,
					"internalType": "string",
					"name": "value",
					"type": "string"
				}
			],
			"name": "Updated",
			"type": "event"
		},
		{
			"anonymous": false,
			"inputs": [
				{
					"indexed": true,
					"internalType": "address",
					"name": "owner",
					"type": "address"
				},
				{
					"indexed": true,
					"internalType": "address",
					"name": "recipient",
					"type": "address"
				},
				{
					"indexed": true,
					"internalType": "bytes32",
					"name": "key",
					"type": "bytes32"
				},
				{
					"indexed": false,
					"internalType": "bytes",
					"name": "value",
					"type": "bytes"
				}
			],
			"name": "Updated",
			"type": "event"
		},
		{
			"anonymous": false,
			"inputs": [
				{
					"indexed": true,
					"internalType": "address",
					"name": "owner",
					"type": "address"
				},
				{
					"indexed": true,
					"internalType": "address",
					"name": "recipient",
					"type": "address"
				},
				{
					"indexed": true,
					"internalType": "bytes32",
					"name": "key",
					"type": "bytes32"
				},
				{
					"indexed": false,
					"internalType": "bytes32",
					"name": "value",
					"type": "bytes32"
				}
			],
			"name": "Updated",
			"type": "event"
		},
		{
			"anonymous": false,
			"inputs": [
				{
					"indexed": true,
					"internalType": "address",
					"name": "owner",
					"type": "address"
				},
				{
					"indexed": true,
					"internalType": "address",
					"name": "recipient",
					"type": "address"
				},
				{
					"indexed": true,
					"internalType": "bytes32",
					"name": "key",
					"type": "bytes32"
				},
				{
					"indexed": false,
					"internalType": "bool",
					"name": "value",
					"type": "bool"
				}
			],
			"name": "Updated",
			"type": "event"
		},
		{
			"inputs": [],
			"name": "OwnerData",
			"outputs": [
				{
					"internalType": "bytes",
					"name": "",
					"type": "bytes"
				}
			],
			"stateMutability": "view",
			"type": "function"
		},
		{
			"inputs": [],
			"name": "OwnerSelector",
			"outputs": [
				{
					"internalType": "bytes4",
					"name": "",
					"type": "bytes4"
				}
			],
			"stateMutability": "view",
			"type": "function"
		},
		{
			"inputs": [
				{
					"internalType": "address",
					"name": "to",
					"type": "address"
				},
				{
					"internalType": "uint256",
					"name": "tokenId",
					"type": "uint256"
				}
			],
			"name": "approve",
			"outputs": [],
			"stateMutability": "nonpayable",
			"type": "function"
		},
		{
			"inputs": [
				{
					"internalType": "address",
					"name": "owner",
					"type": "address"
				}
			],
			"name": "balanceOf",
			"outputs": [
				{
					"internalType": "uint256",
					"name": "",
					"type": "uint256"
				}
			],
			"stateMutability": "view",
			"type": "function"
		},
		{
			"inputs": [
				{
					"internalType": "address",
					"name": "recipient",
					"type": "address"
				},
				{
					"internalType": "bytes32",
					"name": "key",
					"type": "bytes32"
				}
			],
			"name": "deleteAddress",
			"outputs": [
				{
					"internalType": "bool",
					"name": "",
					"type": "bool"
				}
			],
			"stateMutability": "nonpayable",
			"type": "function"
		},
		{
			"inputs": [
				{
					"internalType": "address",
					"name": "recipient",
					"type": "address"
				},
				{
					"internalType": "bytes32",
					"name": "key",
					"type": "bytes32"
				}
			],
			"name": "deleteBool",
			"outputs": [
				{
					"internalType": "bool",
					"name": "",
					"type": "bool"
				}
			],
			"stateMutability": "nonpayable",
			"type": "function"
		},
		{
			"inputs": [
				{
					"internalType": "address",
					"name": "recipient",
					"type": "address"
				},
				{
					"internalType": "bytes32",
					"name": "key",
					"type": "bytes32"
				}
			],
			"name": "deleteBytes",
			"outputs": [
				{
					"internalType": "bool",
					"name": "",
					"type": "bool"
				}
			],
			"stateMutability": "nonpayable",
			"type": "function"
		},
		{
			"inputs": [
				{
					"internalType": "address",
					"name": "recipient",
					"type": "address"
				},
				{
					"internalType": "bytes32",
					"name": "key",
					"type": "bytes32"
				}
			],
			"name": "deleteBytes32",
			"outputs": [
				{
					"internalType": "bool",
					"name": "",
					"type": "bool"
				}
			],
			"stateMutability": "nonpayable",
			"type": "function"
		},
		{
			"inputs": [
				{
					"internalType": "address",
					"name": "recipient",
					"type": "address"
				},
				{
					"internalType": "bytes32",
					"name": "key",
					"type": "bytes32"
				}
			],
			"name": "deleteInt256",
			"outputs": [
				{
					"internalType": "bool",
					"name": "",
					"type": "bool"
				}
			],
			"stateMutability": "nonpayable",
			"type": "function"
		},
		{
			"inputs": [
				{
					"internalType": "address",
					"name": "recipient",
					"type": "address"
				},
				{
					"internalType": "bytes32",
					"name": "key",
					"type": "bytes32"
				}
			],
			"name": "deleteString",
			"outputs": [
				{
					"internalType": "bool",
					"name": "",
					"type": "bool"
				}
			],
			"stateMutability": "nonpayable",
			"type": "function"
		},
		{
			"inputs": [
				{
					"internalType": "address",
					"name": "recipient",
					"type": "address"
				},
				{
					"internalType": "bytes32",
					"name": "key",
					"type": "bytes32"
				}
			],
			"name": "deleteUint256",
			"outputs": [
				{
					"internalType": "bool",
					"name": "",
					"type": "bool"
				}
			],
			"stateMutability": "nonpayable",
			"type": "function"
		},
		{
			"inputs": [
				{
					"internalType": "address",
					"name": "recipient",
					"type": "address"
				},
				{
					"internalType": "bytes32",
					"name": "key",
					"type": "bytes32"
				}
			],
			"name": "getAddress",
			"outputs": [
				{
					"internalType": "address",
					"name": "value",
					"type": "address"
				}
			],
			"stateMutability": "view",
			"type": "function"
		},
		{
			"inputs": [
				{
					"internalType": "address",
					"name": "recipient",
					"type": "address"
				},
				{
					"internalType": "string",
					"name": "key",
					"type": "string"
				}
			],
			"name": "getAddressByString",
			"outputs": [
				{
					"internalType": "address",
					"name": "value",
					"type": "address"
				}
			],
			"stateMutability": "view",
			"type": "function"
		},
		{
			"inputs": [
				{
					"internalType": "uint256",
					"name": "tokenId",
					"type": "uint256"
				}
			],
			"name": "getApproved",
			"outputs": [
				{
					"internalType": "address",
					"name": "",
					"type": "address"
				}
			],
			"stateMutability": "view",
			"type": "function"
		},
		{
			"inputs": [
				{
					"internalType": "address",
					"name": "recipient",
					"type": "address"
				},
				{
					"internalType": "bytes32",
					"name": "key",
					"type": "bytes32"
				}
			],
			"name": "getBool",
			"outputs": [
				{
					"internalType": "bool",
					"name": "value",
					"type": "bool"
				}
			],
			"stateMutability": "view",
			"type": "function"
		},
		{
			"inputs": [
				{
					"internalType": "address",
					"name": "recipient",
					"type": "address"
				},
				{
					"internalType": "string",
					"name": "key",
					"type": "string"
				}
			],
			"name": "getBoolByString",
			"outputs": [
				{
					"internalType": "bool",
					"name": "value",
					"type": "bool"
				}
			],
			"stateMutability": "view",
			"type": "function"
		},
		{
			"inputs": [
				{
					"internalType": "address",
					"name": "recipient",
					"type": "address"
				},
				{
					"internalType": "bytes32",
					"name": "key",
					"type": "bytes32"
				}
			],
			"name": "getBytes",
			"outputs": [
				{
					"internalType": "bytes",
					"name": "value",
					"type": "bytes"
				}
			],
			"stateMutability": "view",
			"type": "function"
		},
		{
			"inputs": [
				{
					"internalType": "address",
					"name": "recipient",
					"type": "address"
				},
				{
					"internalType": "bytes32",
					"name": "key",
					"type": "bytes32"
				}
			],
			"name": "getBytes32",
			"outputs": [
				{
					"internalType": "bytes32",
					"name": "value",
					"type": "bytes32"
				}
			],
			"stateMutability": "view",
			"type": "function"
		},
		{
			"inputs": [
				{
					"internalType": "address",
					"name": "recipient",
					"type": "address"
				},
				{
					"internalType": "string",
					"name": "key",
					"type": "string"
				}
			],
			"name": "getBytes32ByString",
			"outputs": [
				{
					"internalType": "bytes32",
					"name": "value",
					"type": "bytes32"
				}
			],
			"stateMutability": "view",
			"type": "function"
		},
		{
			"inputs": [
				{
					"internalType": "address",
					"name": "recipient",
					"type": "address"
				},
				{
					"internalType": "string",
					"name": "key",
					"type": "string"
				}
			],
			"name": "getBytesByString",
			"outputs": [
				{
					"internalType": "bytes",
					"name": "value",
					"type": "bytes"
				}
			],
			"stateMutability": "view",
			"type": "function"
		},
		{
			"inputs": [
				{
					"internalType": "address",
					"name": "recipient",
					"type": "address"
				},
				{
					"internalType": "bytes32",
					"name": "key",
					"type": "bytes32"
				}
			],
			"name": "getInt256",
			"outputs": [
				{
					"internalType": "int256",
					"name": "value",
					"type": "int256"
				}
			],
			"stateMutability": "view",
			"type": "function"
		},
		{
			"inputs": [
				{
					"internalType": "address",
					"name": "recipient",
					"type": "address"
				},
				{
					"internalType": "string",
					"name": "key",
					"type": "string"
				}
			],
			"name": "getInt256ByString",
			"outputs": [
				{
					"internalType": "int256",
					"name": "value",
					"type": "int256"
				}
			],
			"stateMutability": "view",
			"type": "function"
		},
		{
			"inputs": [
				{
					"internalType": "address",
					"name": "recipient",
					"type": "address"
				},
				{
					"internalType": "bytes32",
					"name": "key",
					"type": "bytes32"
				}
			],
			"name": "getString",
			"outputs": [
				{
					"internalType": "string",
					"name": "value",
					"type": "string"
				}
			],
			"stateMutability": "view",
			"type": "function"
		},
		{
			"inputs": [
				{
					"internalType": "address",
					"name": "recipient",
					"type": "address"
				},
				{
					"internalType": "string",
					"name": "key",
					"type": "string"
				}
			],
			"name": "getStringByString",
			"outputs": [
				{
					"internalType": "string",
					"name": "value",
					"type": "string"
				}
			],
			"stateMutability": "view",
			"type": "function"
		},
		{
			"inputs": [
				{
					"internalType": "address",
					"name": "recipient",
					"type": "address"
				},
				{
					"internalType": "bytes32",
					"name": "key",
					"type": "bytes32"
				}
			],
			"name": "getUint256",
			"outputs": [
				{
					"internalType": "uint256",
					"name": "value",
					"type": "uint256"
				}
			],
			"stateMutability": "view",
			"type": "function"
		},
		{
			"inputs": [
				{
					"internalType": "address",
					"name": "recipient",
					"type": "address"
				},
				{
					"internalType": "string",
					"name": "key",
					"type": "string"
				}
			],
			"name": "getUint256ByString",
			"outputs": [
				{
					"internalType": "uint256",
					"name": "value",
					"type": "uint256"
				}
			],
			"stateMutability": "view",
			"type": "function"
		},
		{
			"inputs": [
				{
					"internalType": "address",
					"name": "owner",
					"type": "address"
				},
				{
					"internalType": "address",
					"name": "operator",
					"type": "address"
				}
			],
			"name": "isApprovedForAll",
			"outputs": [
				{
					"internalType": "bool",
					"name": "",
					"type": "bool"
				}
			],
			"stateMutability": "view",
			"type": "function"
		},
		{
			"inputs": [
				{
					"internalType": "address",
					"name": "owner",
					"type": "address"
				},
				{
					"internalType": "address",
					"name": "recipient",
					"type": "address"
				}
			],
			"name": "isReceiptOwner",
			"outputs": [
				{
					"internalType": "bool",
					"name": "",
					"type": "bool"
				}
			],
			"stateMutability": "view",
			"type": "function"
		},
		{
			"inputs": [],
			"name": "name",
			"outputs": [
				{
					"internalType": "string",
					"name": "",
					"type": "string"
				}
			],
			"stateMutability": "view",
			"type": "function"
		},
		{
			"inputs": [
				{
					"internalType": "uint256",
					"name": "tokenId",
					"type": "uint256"
				}
			],
			"name": "ownerOf",
			"outputs": [
				{
					"internalType": "address",
					"name": "",
					"type": "address"
				}
			],
			"stateMutability": "view",
			"type": "function"
		},
		{
			"inputs": [],
			"name": "paused",
			"outputs": [
				{
					"internalType": "bool",
					"name": "",
					"type": "bool"
				}
			],
			"stateMutability": "view",
			"type": "function"
		},
		{
			"inputs": [
				{
					"internalType": "address",
					"name": "from",
					"type": "address"
				},
				{
					"internalType": "address",
					"name": "to",
					"type": "address"
				},
				{
					"internalType": "uint256",
					"name": "tokenId",
					"type": "uint256"
				}
			],
			"name": "safeTransferFrom",
			"outputs": [],
			"stateMutability": "nonpayable",
			"type": "function"
		},
		{
			"inputs": [
				{
					"internalType": "address",
					"name": "from",
					"type": "address"
				},
				{
					"internalType": "address",
					"name": "to",
					"type": "address"
				},
				{
					"internalType": "uint256",
					"name": "tokenId",
					"type": "uint256"
				},
				{
					"internalType": "bytes",
					"name": "_data",
					"type": "bytes"
				}
			],
			"name": "safeTransferFrom",
			"outputs": [],
			"stateMutability": "nonpayable",
			"type": "function"
		},
		{
			"inputs": [
				{
					"internalType": "address",
					"name": "operator",
					"type": "address"
				},
				{
					"internalType": "bool",
					"name": "approved",
					"type": "bool"
				}
			],
			"name": "setApprovalForAll",
			"outputs": [],
			"stateMutability": "nonpayable",
			"type": "function"
		},
		{
			"inputs": [
				{
					"internalType": "bytes4",
					"name": "interfaceId",
					"type": "bytes4"
				}
			],
			"name": "supportsInterface",
			"outputs": [
				{
					"internalType": "bool",
					"name": "",
					"type": "bool"
				}
			],
			"stateMutability": "view",
			"type": "function"
		},
		{
			"inputs": [],
			"name": "symbol",
			"outputs": [
				{
					"internalType": "string",
					"name": "",
					"type": "string"
				}
			],
			"stateMutability": "view",
			"type": "function"
		},
		{
			"inputs": [
				{
					"internalType": "uint256",
					"name": "index",
					"type": "uint256"
				}
			],
			"name": "tokenByIndex",
			"outputs": [
				{
					"internalType": "uint256",
					"name": "",
					"type": "uint256"
				}
			],
			"stateMutability": "view",
			"type": "function"
		},
		{
			"inputs": [
				{
					"internalType": "address",
					"name": "owner",
					"type": "address"
				},
				{
					"internalType": "uint256",
					"name": "index",
					"type": "uint256"
				}
			],
			"name": "tokenOfOwnerByIndex",
			"outputs": [
				{
					"internalType": "uint256",
					"name": "",
					"type": "uint256"
				}
			],
			"stateMutability": "view",
			"type": "function"
		},
		{
			"inputs": [
				{
					"internalType": "uint256",
					"name": "tokenId",
					"type": "uint256"
				}
			],
			"name": "tokenURI",
			"outputs": [
				{
					"internalType": "string",
					"name": "",
					"type": "string"
				}
			],
			"stateMutability": "view",
			"type": "function"
		},
		{
			"inputs": [],
			"name": "totalSupply",
			"outputs": [
				{
					"internalType": "uint256",
					"name": "",
					"type": "uint256"
				}
			],
			"stateMutability": "view",
			"type": "function"
		},
		{
			"inputs": [
				{
					"internalType": "address",
					"name": "from",
					"type": "address"
				},
				{
					"internalType": "address",
					"name": "to",
					"type": "address"
				},
				{
					"internalType": "uint256",
					"name": "tokenId",
					"type": "uint256"
				}
			],
			"name": "transferFrom",
			"outputs": [],
			"stateMutability": "nonpayable",
			"type": "function"
		},
		{
			"inputs": [
				{
					"internalType": "address",
					"name": "recipient",
					"type": "address"
				},
				{
					"internalType": "bytes32",
					"name": "key",
					"type": "bytes32"
				},
				{
					"internalType": "address",
					"name": "value",
					"type": "address"
				}
			],
			"name": "updateAddress",
			"outputs": [
				{
					"internalType": "bool",
					"name": "",
					"type": "bool"
				}
			],
			"stateMutability": "nonpayable",
			"type": "function"
		},
		{
			"inputs": [
				{
					"internalType": "address",
					"name": "recipient",
					"type": "address"
				},
				{
					"internalType": "string",
					"name": "key",
					"type": "string"
				},
				{
					"internalType": "address",
					"name": "value",
					"type": "address"
				}
			],
			"name": "updateAddressByString",
			"outputs": [
				{
					"internalType": "bool",
					"name": "",
					"type": "bool"
				}
			],
			"stateMutability": "nonpayable",
			"type": "function"
		},
		{
			"inputs": [
				{
					"internalType": "address",
					"name": "recipient",
					"type": "address"
				},
				{
					"internalType": "bytes32",
					"name": "key",
					"type": "bytes32"
				},
				{
					"internalType": "bool",
					"name": "value",
					"type": "bool"
				}
			],
			"name": "updateBool",
			"outputs": [
				{
					"internalType": "bool",
					"name": "",
					"type": "bool"
				}
			],
			"stateMutability": "nonpayable",
			"type": "function"
		},
		{
			"inputs": [
				{
					"internalType": "address",
					"name": "recipient",
					"type": "address"
				},
				{
					"internalType": "string",
					"name": "key",
					"type": "string"
				},
				{
					"internalType": "bool",
					"name": "value",
					"type": "bool"
				}
			],
			"name": "updateBoolByString",
			"outputs": [
				{
					"internalType": "bool",
					"name": "",
					"type": "bool"
				}
			],
			"stateMutability": "nonpayable",
			"type": "function"
		},
		{
			"inputs": [
				{
					"internalType": "address",
					"name": "recipient",
					"type": "address"
				},
				{
					"internalType": "bytes32",
					"name": "key",
					"type": "bytes32"
				},
				{
					"internalType": "bytes",
					"name": "value",
					"type": "bytes"
				}
			],
			"name": "updateBytes",
			"outputs": [
				{
					"internalType": "bool",
					"name": "",
					"type": "bool"
				}
			],
			"stateMutability": "nonpayable",
			"type": "function"
		},
		{
			"inputs": [
				{
					"internalType": "address",
					"name": "recipient",
					"type": "address"
				},
				{
					"internalType": "bytes32",
					"name": "key",
					"type": "bytes32"
				},
				{
					"internalType": "bytes32",
					"name": "value",
					"type": "bytes32"
				}
			],
			"name": "updateBytes32",
			"outputs": [
				{
					"internalType": "bool",
					"name": "",
					"type": "bool"
				}
			],
			"stateMutability": "nonpayable",
			"type": "function"
		},
		{
			"inputs": [
				{
					"internalType": "address",
					"name": "recipient",
					"type": "address"
				},
				{
					"internalType": "string",
					"name": "key",
					"type": "string"
				},
				{
					"internalType": "bytes32",
					"name": "value",
					"type": "bytes32"
				}
			],
			"name": "updateBytes32ByString",
			"outputs": [
				{
					"internalType": "bool",
					"name": "",
					"type": "bool"
				}
			],
			"stateMutability": "nonpayable",
			"type": "function"
		},
		{
			"inputs": [
				{
					"internalType": "address",
					"name": "recipient",
					"type": "address"
				},
				{
					"internalType": "string",
					"name": "key",
					"type": "string"
				},
				{
					"internalType": "bytes",
					"name": "value",
					"type": "bytes"
				}
			],
			"name": "updateBytesByString",
			"outputs": [
				{
					"internalType": "bool",
					"name": "",
					"type": "bool"
				}
			],
			"stateMutability": "nonpayable",
			"type": "function"
		},
		{
			"inputs": [
				{
					"internalType": "address",
					"name": "recipient",
					"type": "address"
				},
				{
					"internalType": "bytes32",
					"name": "key",
					"type": "bytes32"
				},
				{
					"internalType": "int256",
					"name": "value",
					"type": "int256"
				}
			],
			"name": "updateInt256",
			"outputs": [
				{
					"internalType": "bool",
					"name": "",
					"type": "bool"
				}
			],
			"stateMutability": "nonpayable",
			"type": "function"
		},
		{
			"inputs": [
				{
					"internalType": "address",
					"name": "recipient",
					"type": "address"
				},
				{
					"internalType": "string",
					"name": "key",
					"type": "string"
				},
				{
					"internalType": "int256",
					"name": "value",
					"type": "int256"
				}
			],
			"name": "updateInt256ByString",
			"outputs": [
				{
					"internalType": "bool",
					"name": "",
					"type": "bool"
				}
			],
			"stateMutability": "nonpayable",
			"type": "function"
		},
		{
			"inputs": [
				{
					"internalType": "address",
					"name": "recipient",
					"type": "address"
				},
				{
					"internalType": "bytes32",
					"name": "key",
					"type": "bytes32"
				},
				{
					"internalType": "string",
					"name": "value",
					"type": "string"
				}
			],
			"name": "updateString",
			"outputs": [
				{
					"internalType": "bool",
					"name": "",
					"type": "bool"
				}
			],
			"stateMutability": "nonpayable",
			"type": "function"
		},
		{
			"inputs": [
				{
					"internalType": "address",
					"name": "recipient",
					"type": "address"
				},
				{
					"internalType": "string",
					"name": "key",
					"type": "string"
				},
				{
					"internalType": "string",
					"name": "value",
					"type": "string"
				}
			],
			"name": "updateStringByString",
			"outputs": [
				{
					"internalType": "bool",
					"name": "",
					"type": "bool"
				}
			],
			"stateMutability": "nonpayable",
			"type": "function"
		},
		{
			"inputs": [
				{
					"internalType": "address",
					"name": "recipient",
					"type": "address"
				},
				{
					"internalType": "bytes32",
					"name": "key",
					"type": "bytes32"
				},
				{
					"internalType": "uint256",
					"name": "value",
					"type": "uint256"
				}
			],
			"name": "updateUint256",
			"outputs": [
				{
					"internalType": "bool",
					"name": "",
					"type": "bool"
				}
			],
			"stateMutability": "nonpayable",
			"type": "function"
		},
		{
			"inputs": [
				{
					"internalType": "address",
					"name": "recipient",
					"type": "address"
				},
				{
					"internalType": "string",
					"name": "key",
					"type": "string"
				},
				{
					"internalType": "uint256",
					"name": "value",
					"type": "uint256"
				}
			],
			"name": "updateUint256ByString",
			"outputs": [
				{
					"internalType": "bool",
					"name": "",
					"type": "bool"
				}
			],
			"stateMutability": "nonpayable",
			"type": "function"
		}
	]
}